:020000040800F2
:1040000000000120D9E40008A5C00008A7C00008EE
:10401000A9C00008ABC00008ADC000080000000047
:10402000000000000000000000000000AFC0000819
:10403000B1C0000800000000B3C00008B5C000080F
:1040400029E5000829E5000829E5000829E5000818
:1040500029E5000829E5000829E50008DDC0000879
:1040600029E5000829E50008E7C0000829E500085F
:1040700029E5000829E5000829E5000829E50008E8
:1040800029E5000829E5000829E5000829E50008D8
:1040900029E5000829E5000829E5000829E50008C8
:1040A00029E5000829E5000829E5000829E50008B8
:1040B00029E50008000000000000000029E50008D4
:1040C00029E5000829E5000829E5000829E5000898
:1040D00029E50008F1C0000851C1000829E50008E1
:1040E00029E5000829E500080000000000000000A4
:1040F00000000000000000000000000000000000C0
:104100000000000029E500080000000029E5000883
:10411000000000000000000029E5000829E5000873
:1041200029E5000829E5000829E5000829E5000837
:1041300029E5000800000000000000000000000069
:1041400029E5000829E5000829E50008000000002D
:1041500029E5000829E5000829E5000829E5000807
:1041600029E5000829E5000829E50008000000000D
:1041700029E5000829E50008000000000000000013
:1041800029E5000829E5000829E5000800000000ED
:1041900010B5054C237833B9044B13B10448AFF381
:1041A00000800123237010BDB0000020000000003B
:1041B0002403010808B5034B1BB103490348AFF3BF
:1041C000008008BD00000000B400002024030108A6
:1041D00001F0FF01102A2BDB10F0070F08D010F8B8
:1041E000013B013A8B422DD010F0070F42B3F6D1BC
:1041F000F0B441EA012141EA014122F007047FF0D5
:1042000000070023F0E80256083C85EA010586EA2B
:10421000010685FA47F5A3FA87F586FA47F6A5FA67
:1042200087F68EB9EED1F0BC01F0FF0102F0070273
:1042300032B110F8013B013A83EA010313B1F8D11E
:104240000020704701387047002D06BF35460338FF
:10425000073815F0010F07D1013015F4807F02BF38
:10426000013015F4C03F0130F0BC0138704700BF89
:1042700081F0004102E000BF83F0004330B54FEA17
:1042800041044FEA430594EA050F08BF90EA020F84
:104290001FBF54EA000C55EA020C7FEA645C7FEA17
:1042A000655C00F0E2804FEA5454D4EB5555B8BF3A
:1042B0006D420CDD2C4480EA020281EA030382EAAB
:1042C000000083EA010180EA020281EA0303362D3D
:1042D00088BF30BD11F0004F4FEA01314FF4801C10
:1042E0004CEA113102D0404261EB410113F0004F22
:1042F0004FEA03334CEA133302D0524263EB4303D9
:1043000094EA050F00F0A780A4F10104D5F1200E76
:104310000DDB02FA0EFC22FA05F2801841F10001D1
:1043200003FA0EF2801843FA05F359410EE0A5F1A5
:1043300020050EF1200E012A03FA0EFC28BF4CF0D6
:10434000020C43FA05F3C01851EBE37101F000458C
:1043500007D54FF0000EDCF1000C7EEB00006EEB99
:104360000101B1F5801F1BD3B1F5001F0CD3490823
:104370005FEA30004FEA3C0C04F101044FEA44527A
:1043800012F5800F80F09A80BCF1004F08BF5FEA01
:10439000500C50F1000041EB045141EA050130BDE1
:1043A0005FEA4C0C404141EB0101013C28BFB1F5F3
:1043B000801FE9D291F0000F04BF01460020B1FA3E
:1043C00081F308BF2033A3F10B03B3F120020CDA11
:1043D0000C3208DD02F1140CC2F10C0201FA0CF0EF
:1043E00021FA02F10CE002F11402D8BFC2F1200C54
:1043F00001FA02F120FA0CFCDCBF41EA0C0190400A
:10440000E41AA2BF01EB0451294330BD6FEA040452
:104410001F3C1CDA0C340EDC04F11404C4F120023D
:1044200020FA04F001FA02F340EA030021FA04F34F
:1044300045EA030130BDC4F10C04C4F1200220FAA6
:1044400002F001FA04F340EA0300294630BD21FAE4
:1044500004F0294630BD94F0000F83F4801306BFAA
:1044600081F480110134013D4EE77FEA645C18BF9E
:104470007FEA655C29D094EA050F08BF90EA020F35
:1044800005D054EA000C04BF1946104630BD91EA2D
:10449000030F1EBF0021002030BD5FEA545C05D130
:1044A0004000494128BF41F0004130BD14F580046F
:1044B0003CBF01F5801130BD01F0004545F0FE41E3
:1044C00041F470014FF0000030BD7FEA645C1ABF18
:1044D000194610467FEA655C1CBF0B46024650EA4F
:1044E000013406BF52EA033591EA030F41F400217B
:1044F00030BD00BF90F0000F04BF0021704730B501
:104500004FF4806404F132044FF000054FF00001D5
:1045100050E700BF90F0000F04BF0021704730B596
:104520004FF4806404F1320410F0004548BF40426B
:104530004FF000013EE700BF42004FEAE2014FEAC0
:1045400031014FEA02701FBF12F07F4393F07F4F9B
:1045500081F06051704732F07F4208BF704793F09E
:104560007F4F04BF41F40021704730B54FF46074B1
:1045700001F0004521F000411CE700BF50EA0102B4
:1045800008BF704730B54FF000050AE050EA01025D
:1045900008BF704730B511F0004502D5404261EBCD
:1045A00041014FF4806404F132045FEA915C3FF40E
:1045B000D8AE4FF003025FEADC0C18BF03325FEAAB
:1045C000DC0C18BF033202EBDC02C2F1200300FA5C
:1045D00003FC20FA02F001FA03FE40EA0E0021FA81
:1045E00002F11444BDE600BF70B54FF0FF0C4CF46F
:1045F000E06C1CEA11541DBF1CEA135594EA0C0F21
:1046000095EA0C0F00F0DEF82C4481EA030621EA5B
:104610004C5123EA4C5350EA013518BF52EA033596
:1046200041F4801143F4801338D0A0FB02CE4FF048
:104630000005E1FB02E506F00042E0FB03E54FF078
:104640000006E1FB03569CF0000F18BF4EF0010E70
:10465000A4F1FF04B6F5007F64F5407404D25FEA6C
:104660004E0E6D4146EB060642EAC62141EA55511F
:104670004FEAC52040EA5E504FEACE2EB4F1FD0C61
:1046800088BFBCF5E06F1ED8BEF1004F08BF5FEADF
:10469000500E50F1000041EB045170BD06F0004691
:1046A00046EA010140EA020081EA0301B4EB5C043E
:1046B000C2BFD4EB0C0541EA045170BD41F4801136
:1046C0004FF0000E013C00F3AB8014F1360FDEBF5B
:1046D000002001F0004170BDC4F10004203C35DA37
:1046E0000C341BDC04F11404C4F1200500FA05F3BA
:1046F00020FA04F001FA05F240EA020001F000425B
:1047000021F0004110EBD37021FA04F642EB0601D0
:104710005EEA430E08BF20EAD37070BDC4F10C04FA
:10472000C4F1200500FA04F320FA05F001FA04F2BE
:1047300040EA020001F0004110EBD37041F10001AA
:104740005EEA430E08BF20EAD37070BDC4F12005B5
:1047500000FA05F24EEA020E20FA04F301FA05F21D
:1047600043EA020321FA04F001F0004121FA04F2C5
:1047700020EA020000EBD3705EEA430E08BF20EA95
:10478000D37070BD94F0000F0FD101F000464000CF
:1047900041EB010111F4801F08BF013CF7D041EA51
:1047A000060195F0000F18BF704703F00046520055
:1047B00043EB030313F4801F08BF013DF7D043EA26
:1047C0000603704794EA0C0F0CEA135518BF95EADC
:1047D0000C0F0CD050EA410618BF52EA4306D1D163
:1047E00081EA030101F000414FF0000070BD50EA82
:1047F000410606BF1046194652EA430619D094EA0C
:104800000C0F02D150EA013613D195EA0C0F05D1F5
:1048100052EA03361CBF104619460AD181EA030149
:1048200001F0004141F0FE4141F470014FF0000001
:1048300070BD41F0FE4141F4780170BD70B54FF09C
:10484000FF0C4CF4E06C1CEA11541DBF1CEA13551C
:1048500094EA0C0F95EA0C0F00F0A7F8A4EB0504FE
:1048600081EA030E52EA03354FEA013100F08880F5
:104870004FEA03334FF0805545EA131343EA1263BE
:104880004FEA022245EA111545EA10654FEA002673
:104890000EF000419D4208BF964244F1FD0404F52C
:1048A000407402D25B084FEA3202B61A65EB030588
:1048B0005B084FEA32024FF480104FF4002CB6EB45
:1048C000020E75EB030E22BFB61A754640EA0C00C5
:1048D0005B084FEA3202B6EB020E75EB030E22BF05
:1048E000B61A754640EA5C005B084FEA3202B6EB46
:1048F000020E75EB030E22BFB61A754640EA9C0005
:104900005B084FEA3202B6EB020E75EB030E22BFD4
:10491000B61A754640EADC0055EA060E18D04FEA92
:10492000051545EA16754FEA06164FEAC30343EA32
:1049300052734FEAC2025FEA1C1CC0D111F4801FFF
:104940000BD141EA00014FF000004FF0004CB6E7F8
:1049500011F4801F04BF01430020B4F1FD0C88BF97
:10496000BCF5E06F3FF6AFAEB5EB030C04BFB6EBA2
:10497000020C5FEA500C50F1000041EB045170BD95
:104980000EF0004E4EEA113114EB5C04C2BFD4EBC2
:104990000C0541EA045170BD41F480114FF0000E46
:1049A000013C90E645EA060E8DE60CEA135594EAC2
:1049B0000C0F08BF95EA0C0F3FF43BAF94EA0C0FC5
:1049C0000AD150EA01347FF434AF95EA0C0F7FF43A
:1049D00025AF104619462CE795EA0C0F06D152EA8E
:1049E00003353FF4FDAE1046194622E750EA410672
:1049F00018BF52EA43067FF4C5AE50EA41047FF483
:104A00000DAF52EA43057FF4EBAE12E74FF0FF3CE7
:104A100006E000BF4FF0010C02E000BF4FF0010CB8
:104A20004DF804CD4FEA410C7FEA6C5C4FEA430C31
:104A300018BF7FEA6C5C1BD001B050EA410C0CBF80
:104A400052EA430C91EA030F02BF90EA020F0020E2
:104A5000704710F1000F91EA030F58BF994208BF49
:104A600090422CBFD8176FEAE37040F00100704706
:104A70004FEA410C7FEA6C5C02D150EA013C07D15D
:104A80004FEA430C7FEA6C5CD6D152EA033CD3D0A8
:104A90005DF8040B704700BF8446104662468C46A2
:104AA0001946634600E000BF01B5FFF7B7FF0028D5
:104AB00048BF10F1000F01BD4DF808EDFFF7F4FFFE
:104AC0000CBF012000205DF808FB00BF4DF808ED89
:104AD000FFF7EAFF34BF012000205DF808FB00BFAC
:104AE0004DF808EDFFF7E0FF94BF012000205DF8CE
:104AF00008FB00BF4DF808EDFFF7CEFF94BF012083
:104B000000205DF808FB00BF4DF808EDFFF7C4FF7B
:104B100034BF012000205DF808FB00BF4FEA410CC4
:104B20007FEA6C5C02D150EA013C0AD14FEA430CA7
:104B30007FEA6C5C02D152EA033C02D14FF00000E4
:104B400070474FF0010070474FEA410212F5001222
:104B500015D211D56FF47873B3EB625212D94FEAC4
:104B6000C12343F0004343EA505311F0004F23FAAE
:104B700002F018BF404270474FF00000704750EA03
:104B8000013005D111F0004008BF6FF000407047C0
:104B90004FF00000704700BF4A0011D212F500121A
:104BA00011D20DD56FF47873B3EB62520ED44FEA85
:104BB000C12343F0004343EA505323FA02F0704705
:104BC0004FF00000704750EA013002D14FF0FF3043
:104BD00070474FF0000070477047000010B5094B58
:104BE0004FF0FF329A6300249C631A641C649A623B
:104BF0009C62DA62DC621A631C63FFF7EDFF2046F9
:104C000010BD00BF0010024010B50446094B1B68E0
:104C10000948A0FB0330800900F09CF808B101208E
:104C200010BD002221464FF0FF3000F047F8002071
:104C3000F6E700BF40000020D34D621010B50320FE
:104C400000F02AF80020FFF7DFFF10B10124204612
:104C500010BD044607F026F9F9E70000024A136880
:104C600001331360704700BF54220020014B1868C5
:104C7000704700BF5422002038B50446FFF7F6FF06
:104C80000546B4F1FF3F00D00134FFF7EFFF401BB2
:104C9000A042FAD338BD0000074AD36823F4E0638A
:104CA0001B041B0C000200F4E060034343F0BF63ED
:104CB00043F40033D360704700ED00E030B4174B8D
:104CC000DB68C3F30223C3F10704042C28BF0424C8
:104CD0001D1D062D18D9033B4FF0FF3505FA04F4CE
:104CE00021EA0401994005FA03F322EA0303194378
:104CF00000280BDB0901C9B200F1604000F56140FA
:104D000080F8001330BC70470023E5E700F00F0087
:104D10000901C9B2024B1954F4E700BF00ED00E0ED
:104D200014ED00E000F01F02400901239340024A05
:104D300042F82030704700BF00E100E000F01F02A1
:104D40004009012393402030014A42F82030704747
:104D500000E100E00138B0F1807F0AD2064B5860D4
:104D6000064AF02182F823100020986007221A607A
:104D700070470120704700BF10E000E000ED00E048
:104D8000042805D0054A136823F004031360704714
:104D9000024A136843F004031360704710E000E018
:104DA000704708B5FFF7FCFF08BD000010B4054CC4
:104DB000616941F001016161026043605DF8044B8B
:104DC000704700BF00200240084A536943F4802323
:104DD000536172B6402351F8042B40F8042B013B79
:104DE00013F0FF03F7D162B6704700BF0020024006
:104DF000094B5B69002B01DB00207047064B074A1B
:104E00009A6002F188329A605B69002B01DB002016
:104E100070470120704700BF002002402301674512
:104E2000034A536943F0004353610020704700BFB9
:104E30000020024038B50446FFF718FF05461E4B18
:104E40001B6913F4803F09D0B4F1FF3FF7D0FFF79F
:104E50000DFF401BA042F2D3032029E0164A13693C
:104E600023F07F4323F47D0323F4705323F00503E1
:104E7000926902F00042134309D10F4B1B6913F0F2
:104E8000010F16D00C4B01221A61002010E00B49D3
:104E90004A681A434A6013F0404203D006498869C1
:104EA00002438A6133F0404301D0034A1361012079
:104EB00038BD0020FCE700BF0020024000000020B9
:104EC0002DE9F0411646284A1278012A49D00446B5
:104ED0000D469846244B01221A704CF25030FFF7D1
:104EE000A9FF074608BB204B00225A601F4B1B68D6
:104EF00013F4806F1FD01D4A136823F4806313607E
:104F0000194B02221A77D4B1631E012B1ED900243B
:104F10004CF25030FFF78EFF074624B1134A536915
:104F200023EA0404546100F047F80F4B00221A7082
:104F30003846BDE8F0810C4B00221A77E3E7324691
:104F400043462846FFF732FF0124E1E73146284671
:104F5000FFF73AFF022C01D00024D9E74FF4802458
:104F6000D6E70227E4E700BF00000020002002404F
:104F700010F0010F04D0054A536943F00403536154
:104F8000024A536943F48033536170470020024062
:104F9000084B5A6922F4FF62C00000F4FF6002432C
:104FA0005A615A6942F002025A615A6942F48032E7
:104FB0005A61704700200240144B1B7FDBB2012B6B
:104FC00001D0032B0CD1124A116841F40061116029
:104FD000116821F400611160116841F400711160E1
:104FE000023BDBB2012B03D9084B00221A77704732
:104FF000074B1A6842F480521A601A6822F48052F1
:105000001A601A6842F480621A60EDE7000000201E
:1050100000200240F8B53B4B1B78012B6FD00446B3
:105020000E46384B01221A704CF25030FFF702FF47
:10503000074600285ED1334B00225A60324B1B6872
:1050400013F4007F33D0304B1A6822F400721A60D8
:105050001B6813F4806F26D02B4A136823F48063F7
:105060001360284B03221A772368012B31D04FF0AD
:10507000FF333360A568A368E2681344AB4237D9B5
:1050800061682846FFF784FF4CF25030FFF7D2FEEC
:105090001D4A536923F4FF6323F00203536107465B
:1050A00028BB0135E7E7174B01221A77DCE7164BDF
:1050B0001B6813F4806F08D0134A136823F48063CD
:1050C0001360104B02221A77CEE70E4B00221A779C
:1050D000CAE76068FFF74CFF4CF25030FFF7AAFEBA
:1050E0000746094A536923F00403536100E0356021
:1050F000FFF762FF034B00221A703846F8BD022703
:10510000FBE700BF0000002000200240F0B482B0A6
:10511000002236E0042400E00024B4403C43023581
:105120005B4E46F825405B4C2568DC4325EA0306C8
:105130004F6817F4803F01D043EA0506554D2E60B5
:105140006D6804EA05064F6817F4003F01D043EA92
:105150000506504D6E60AD6804EA05064F6817F409
:10516000801F01D043EA05064A4DAE60ED682C4031
:105170004E6816F4001F01D043EA0504454BDC607D
:1051800001320B6833FA02F47FD0012494402340AB
:10519000F6D04D68022D01D0122D10D1D608083658
:1051A00050F826C002F00705AF000F25BD402CEADD
:1051B000050C0D69BD4045EA0C0540F82650D0F8B5
:1051C00000C056000325B540EF432CEA050C4D689E
:1051D00005F00305B54045EA0C0505604D6805F18D
:1051E000FF3CBCF1010F03D9112D01D0122D10D1BC
:1051F000856807EA050CCD68B54045EA0C05856071
:10520000456825EA04044D68C5F30015954025431B
:105210004560C46827408C68B4403C43C4604C6817
:1052200014F0805FACD01C4C256E45F0010525665E
:10523000246E04F001040194019C9508AE1C144CEA
:1052400054F8267002F00304A6000F24B44027EAA5
:105250000407B0F1904F3FF45FAF104CA0420ED066
:1052600004F58064A0420CD004F58064A0420AD00A
:1052700004F58064A0423FF44DAF07244DE70124BC
:105280004BE7022449E7032447E702B0F0BC70472C
:1052900000000140000401400010024000040048EA
:1052A0000369194201D001207047002070470AB1FC
:1052B000816170478162704708B5054B5B690342A5
:1052C00000D108BD024B586104F066FBF9E700BF4E
:1052D0000004014003689A6912F0020F01D0002215
:1052E0009A6203689A6912F0010F03D19A6942F039
:1052F00001029A61704770B4039E05686868740D76
:1053000004F4806444F07F7444F4583444F47F74AB
:1053100044F0030420EA0400C1F3090141EA024118
:10532000194331430143696070BC7047F8B50546C5
:105330000E46174603689B6913F0100F01D1002039
:10534000F8BD2B689C6914F0200F17D1B6F1FF3F10
:10535000F7D0FFF78BFCC01BB04201D8002EF0D174
:105360006B6C43F020036B64202385F841300023ED
:1053700085F8423085F840300120E1E71022DA61FB
:105380002B682024DC612846FFF7A4FF2A685368B5
:1053900023F0FF7323F48B3323F4FF7323F0010313
:1053A00053606B6C43F004036B6485F84140002349
:1053B00085F8423085F840300120C1E770B50446D9
:1053C0000D46164623689B6913F0020F1DD1324625
:1053D00029462046FFF7AAFFC8B9B5F1FF3FF1D033
:1053E000FFF744FC801BA84201D8002DEAD1636C72
:1053F00043F020036364202384F84130002384F8C1
:10540000423084F84030012000E0002070BD0120CF
:10541000FCE72DE9F0410646884617461D463468EC
:10542000A46938EA04030CBF01240024BC4218D14B
:10543000B5F1FF3FF3D0FFF719FC069BC01AA84255
:1054400001D8002DEBD1736C43F02003736420234B
:1054500086F84130002386F8423086F8403001203B
:1054600000E00020BDE8F08170B505460C46164608
:105470002B689B6913F0200F1AD13246214628462B
:10548000FFF754FFB0B9FFF7F1FB801BA04201D832
:10549000002CEDD16B6C43F020036B64202385F866
:1054A0004130002385F8423085F84030012070BD3E
:1054B0000020FCE70120FAE770B504460D461646C9
:1054C00023689B6913F0040F3ED1324629462046DB
:1054D000FFF72CFF0146002838D123689A6912F0A3
:1054E000200F13D1FFF7C2FB801BA84201D8002D6B
:1054F000E6D1636C43F020036364202384F84130D9
:10550000002384F840300121084670BD9A6912F0EA
:10551000040F02D0228D002AF6D12022DA61216800
:105520004B6823F0FF7323F48B3323F4FF7323F0D2
:1055300001034B600023636484F8412084F8423007
:1055400084F840300121DFE70021DDE70121DBE7BE
:10555000002859D010B5044690F84130002B43D0B4
:10556000242384F841302268136823F00103136078
:105570006368226823F0706313612268936823F4E0
:1055800000439360E368012B33D0A368226843F49F
:1055900004439360E368022B31D02268536843F0E0
:1055A000007343F4004353602268D36823F400433C
:1055B000D360236962691343A169226843EA012326
:1055C000D360E369216A22680B4313602268136881
:1055D00043F00103136000206064202384F841300D
:1055E000206384F8420010BD80F8403006F072FC61
:1055F000B6E7A368226843F400439360CAE72368D0
:105600004FF400625A60C8E7012070472DE9F04767
:1056100082B00F460A9E90F84110C9B2202940F08E
:10562000A38004469046994690F84030012B00F044
:105630009F804FF0010A80F840A0FFF717FB054656
:105640000090192352464FF400412046FFF7E1FE37
:10565000002840F08F80212384F84130102384F803
:10566000423000236364C4F82480A4F82A90636362
:10567000638D9BB2FF2B0AD9FF222285414B0093F9
:105680004FF0807339462046FFF735FE18E0628DF3
:1056900092B222853B4B00934FF00073D2B2394651
:1056A0002046FFF728FE0BE0628D92B22285002390
:1056B00000934FF00073D2B239462046FFF71BFE2D
:1056C000638D9BB2002B33D02A4631462046FFF72C
:1056D00075FE002850D1626A236812789A62636A64
:1056E00001336362638D9BB2013B9BB26385238D63
:1056F000013B9BB22385628D92B2002AE0D0002B41
:10570000DED100953346002280212046FFF781FE3E
:10571000A0BB638D9BB2FF2BC6D9FF22228500233D
:1057200000934FF0807339462046FFF7E4FDC7E74A
:105730002A4631462046FFF797FE08BB2368202201
:10574000DA6121684B6823F0FF7323F48B3323F471
:10575000FF7323F001034B6084F84120002384F899
:10576000423084F8403000E0022002B0BDE8F0870B
:105770000220FAE70120F8E70120F6E70120F4E72C
:105780000120F2E7002000802DE9F04782B00F46AB
:105790000A9E90F84110C9B2202940F0A280044628
:1057A0009046994690F84030012B00F09E804FF0D3
:1057B000010A80F840A0FFF759FA05460090192326
:1057C00052464FF400412046FFF723FE002840F0E8
:1057D0008E80222384F84130102384F84230002345
:1057E0006364C4F82480A4F82A906363638D9BB239
:1057F000FF2B0AD9FF222285414B00934FF0807383
:1058000039462046FFF777FD18E0628D92B2228577
:105810003B4B00934FF00073D2B239462046FFF75E
:105820006AFD0BE0628D92B22285002300934FF057
:105830000073D2B239462046FFF75DFD638D9BB2FF
:10584000002B32D02A4631462046FFF735FE00288D
:105850004FD123685A6A636A1A70636A01336362BC
:10586000228D013A92B22285638D9BB2013B9BB29D
:105870006385638D9BB2002BE0D0002ADED10095BA
:10588000334680212046FFF7C4FDA0BB638D9BB249
:10589000FF2BC7D9FF222285002300934FF080738E
:1058A00039462046FFF727FDC8E72A4631462046FD
:1058B000FFF7DAFD08BB23682022DA6121684B6814
:1058C00023F0FF7323F48B3323F4FF7323F00103DE
:1058D0004B6084F84120002384F8423084F8403043
:1058E00000E0022002B0BDE8F0870220FAE70120C4
:1058F000F8E70120F6E70120F4E70120F2E700BF16
:1059000000240080406C704790F84130DBB2202BBF
:1059100024D190F84030012B22D0012380F8403070
:10592000242380F841300268136823F001031360D8
:105930000268136823F480531360026813681943E4
:1059400011600268136843F001031360202380F89C
:105950004130002380F840301846704702207047DD
:105960000220704790F84130DBB2202B22D190F812
:105970004030012B20D0012380F84030242380F8D0
:1059800041300268136823F0010313600268136852
:1059900023F4706343EA012111600268136843F045
:1059A00001031360202380F84130002380F8403049
:1059B000184670470220704702207047024B186853
:1059C00000F4C060704700BF0070004030B583B085
:1059D0000446204B9B6D13F0805F0BD0FFF7EEFF6A
:1059E000B0F5007F17D0802C1FD82DD0702C2DD073
:1059F00000211BE0174DAB6D43F08053AB65AB6DE1
:105A000003F080530193019BFFF7D8FFAB6D23F0A8
:105A10008053AB65E4E7802C03D9A02C03D9022185
:105A200004E0002102E0012100E003210A4A13689A
:105A300023F007030B431360136803F007038B4243
:105A400006D1002003B030BD0221EFE70121EDE7D0
:105A50000120F7E7001002400020024038B5334A29
:105A6000136843F001031360FFF700F904462F4B5E
:105A70001B6813F0020F07D1FFF7F8F8001B02288C
:105A8000F5D90324204638BD284A136823F0F003D3
:105A900043F06003136000209060254B254A1A6094
:105AA000FFF7B2F8044608B10124EBE7FFF7DEF890
:105AB00005461E4B9B6813F00C0F08D0FFF7D6F875
:105AC000401B41F288339842F3D90324DAE7174A9E
:105AD0001168194B0B401360FFF7C8F80546134BCC
:105AE0001B6813F0206F06D0FFF7C0F8401B022898
:105AF000F5D90324C6E70D4B0022DA60D96841F4DA
:105B00008051D9601A61196941F48051196119688D
:105B100021F4802119609A614FF0FF321A62D3F8A4
:105B2000942042F40002C3F89420ABE70010024036
:105B30004000002000093D00FFF4FEFA314A93685E
:105B4000D26802F0030213F00C030AD00C2B06D02B
:105B5000042B1FD0082B20D00020014610E0012A82
:105B6000F6D1284A126812F0080F0CD1254AD2F853
:105B70009420C2F30322244951F8221043B100209B
:105B80000C2B0DD070471F4A1268C2F30312F2E7C4
:105B90000846F5E71D480021F2E71D480021EFE720
:105BA000184BDA6802F00302DB68C3F30213013317
:105BB000022A0AD0032A1AD0B1FBF3F3114AD068A3
:105BC000C0F3062000FB03F008E01048B0FBF3F33D
:105BD0000C4AD068C0F3062000FB03F0094BDB68D9
:105BE000C3F3416301335B00B0FBF3F0CAE708483D
:105BF000B0FBF3F3034AD068C0F3062000FB03F0C8
:105C0000ECE700BF00100240D00301080024F400BC
:105C100000127A00002800F0C182F0B583B004467B
:105C2000AC4B9D6805F00C05DE6806F003060368C2
:105C300013F0100F5CD0E5B10C2D18D0A369002B28
:105C400000F0B680A34A136843F001031360FFF726
:105C50000DF807469F4B1B6813F0020F40F095802C
:105C6000FFF704F8C01B0228F4D90320A1E2012E9B
:105C7000E4D1984B1B6813F0020F03D0A369002BEB
:105C800000F08E82206A934B1B6813F0080F5CD0E3
:105C9000904B1B6803F0F00398425DD9FFF796FE26
:105CA000002840F07F828B4B1A6842F008021A608D
:105CB0001A6822F0F002216A0A431A605A6822F434
:105CC0007F42E16942EA01225A60FFF737FF814BC8
:105CD0009B68C3F30313804AD35C03F01F03D840CF
:105CE0007E4B18600020FEF78FFF002840F0618295
:105CF000236813F0010F7AD0082D6FD00C2D6BD0D4
:105D00006368B3F5803F00F09180B3F5A02F00F0F9
:105D10009380704B1A6822F480321A601A6822F459
:105D200080221A606368002B00F09380FEF79EFFCC
:105D30000746684B1B6813F4003F58D1FEF796FFE7
:105D4000C01B6428F5D9032033E2624BD3F89430AA
:105D50001B0903F0F0039FE75E4B1A6842F008024C
:105D60001A601A6822F0F002216A0A431A605A681F
:105D700022F47F42E16942EA01225A60206AFFF779
:105D800025FE0028A1D0012013E2524B1A6842F0F0
:105D900008021A601A6822F0F002216A0A431A60A7
:105DA0005A6822F47F42E16942EA01225A609FE781
:105DB000484A136823F001031360FEF757FF0746B4
:105DC000444B1B6813F0020F92D0FEF74FFFC01B2D
:105DD0000228F5D90320ECE1032E91D13D4B1B683D
:105DE00013F4003F03D06368002B00F0DD812368CB
:105DF00013F0020F4FD0042D3CD00C2D38D0E368A7
:105E0000002B76D0334A136843F480731360FEF797
:105E10002DFF06462F4B1B6813F4806F60D1FEF7F1
:105E200025FF801B0228F5D90320C2E1294A136807
:105E300043F48033136075E703F18043A3F53C33EB
:105E40001A6842F480221A601A6842F480321A609A
:105E500068E7FEF70BFF07461E4B1B6813F4003F75
:105E6000C5D0FEF703FFC01B6428F5D90320A0E1CD
:105E7000022EC4D1174B1B6813F4806F03D0E36864
:105E8000002B00F09381134A536823F0F8532169E3
:105E900043EA01635360236813F0080F54D0636929
:105EA000002B3AD00B4AD2F8943043F00103C2F8E9
:105EB0009430FEF7DBFE0646064BD3F8943013F021
:105EC000020F41D1FEF7D2FE801B0228F4D9032035
:105ED0006FE100BF001002400004010840000020F4
:105EE000B64A536823F0F853216943EA01635360CB
:105EF000D1E7B24A136823F480731360FEF7B6FE4D
:105F00000646AE4B1B6813F4806FC4D0FEF7AEFE9E
:105F1000801B0228F5D903204BE1A84AD2F894301F
:105F200023F00103C2F89430FEF7A0FE0646A34B0F
:105F3000D3F8943013F0020F06D0FEF797FE801BC3
:105F40000228F4D9032034E1236813F0040F7AD037
:105F50009A4B9B6D13F0805F36D1984B9A6D42F04F
:105F600080529A659B6D03F080530193019B01263B
:105F7000934B1B6813F4807F28D0A368012B39D082
:105F8000052B3FD08D4BD3F8902022F00102C3F8AF
:105F90009020D3F8902022F00402C3F89020A36848
:105FA000002B3DD0FEF762FE0746844BD3F89030BD
:105FB00013F0020F46D1FEF759FEC01B41F28833A1
:105FC0009842F2D90320F4E00026D1E77C4A136816
:105FD00043F480731360FEF749FE0746784B1B6855
:105FE00013F4807FC9D1FEF741FEC01B0228F5D90A
:105FF0000320DEE0714AD2F8903043F00103C2F88A
:106000009030CCE76D4BD3F8902042F00402C3F8F7
:106010009020D3F8902042F00102C3F89020BEE710
:10602000FEF724FE0746654BD3F8903013F0020FBD
:1060300008D0FEF71BFEC01B41F288339842F2D90C
:106040000320B6E0E6B9236813F0200F35D0636A69
:10605000E3B15A4AD2F8983043F00103C2F89830BD
:10606000FEF704FE0646554BD3F8983013F0020FA6
:1060700023D1FEF7FBFD801B0228F4D9032098E012
:106080004E4A936D23F080539365DCE74B4AD2F878
:10609000983023F00103C2F89830FEF7E7FD06467A
:1060A000464BD3F8983013F0020F06D0FEF7DEFD12
:1060B000801B0228F4D903207BE0A36A002B77D051
:1060C0000C2D78D0022B23D03C4B1A6822F0807222
:1060D0001A601B6813F0006F04D1384AD36823F0AC
:1060E0000303D360354AD36823F0887323F48033E5
:1060F000D360FEF7BBFD0446304B1B6813F0007FF6
:106100004AD0FEF7B3FD001B0228F5D9032050E06A
:106110002A4A136823F080731360FEF7A7FD054633
:10612000264B1B6813F0007F06D0FEF79FFD401B37
:106130000228F5D903203CE0236B5A1E636B1B0237
:1061400043EA0213E26A1343E26B5208013A43EA5C
:106150004253226C5208013A43EA4263A26B43EA7B
:10616000C263164AD360136843F080731360D36828
:1061700043F08073D360FEF779FD04460F4B1B6834
:1061800013F0007F06D1FEF771FD001B0228F5D940
:1061900003200EE000200CE000200AE00120704700
:1061A000012006E0012004E0012002E0012000E0DF
:1061B000002003B0F0BD0120FBE700BF001002404B
:1061C00000700040002800F0978070B50C4605462E
:1061D0004D4B1B6803F007038B420BD24A4A1368EE
:1061E00023F007030B431360136803F007038B428C
:1061F00040F084802B6813F0010F39D06B68032BBB
:1062000009D0022B26D063BB404A126812F0020F5D
:1062100006D101206FE03D4A126812F0007F6FD076
:106220003A498A6822F0030213438B60FEF71EFD91
:106230000646364B9B6803F00C036A68B3EB820F8B
:1062400016D0FEF713FD801B41F288339842F0D937
:10625000032050E02D4A126812F4003FE0D10120E3
:1062600049E02A4A126812F4806FD9D1012042E035
:106270002B6813F0020F06D0244A936823F0F00332
:10628000A9680B439360204B1B6803F00703A342EC
:106290000AD91D4A136823F00703234313601368C8
:1062A00003F00703A3422DD12B6813F0040F06D08F
:1062B000164A936823F4E063E9680B4393602B6804
:1062C00013F0080F07D0114A936823F4605329692B
:1062D00043EAC1039360FFF731FC0C4B9B68C3F3A7
:1062E00003130B4AD35C03F01F03D840094B18601B
:1062F0000020FEF789FC70BD012070470120FAE7FD
:106300000120F8E70120F6E70020024000100240DB
:106310000004010840000020014B1868704700BFCE
:1063200040000020F8B504460F46584BDB6813F0D8
:10633000030F18D0554BDB6803F003030268934248
:1063400002D001252846F8BD002A00F09D804F4B61
:10635000DB68C3F3021301334268934201D0012585
:10636000F0E7002509E00368022B56D0032B5BD031
:10637000012B41D00125002DE4D1444A136823F0BC
:1063800080631360FEF772FC0646404B1B6813F0F7
:10639000006F05D0FEF76AFC831B022BF5D903259D
:1063A000002DCFD1002F4DD138490B6923F0784310
:1063B00023F4FE43A068E268D20642EA00221343B7
:1063C0000B61324A136843F080631360FEF74EFCA2
:1063D00006462E4B1B6813F0006F05D1FEF746FCF6
:1063E000831B022BF5D90325002DABD1274A136956
:1063F000A1690B431361A5E7244A126812F0020F4A
:106400001ED02248C26822F073026168013943EA53
:1064100001131343C3600025ADE71C4A126812F450
:10642000806FEED10125A6E7184A126812F4003FEA
:10643000E7D1164A126812F4802FE2D101259AE7BB
:10644000012598E7012F0FD01048026922F0C062A1
:1064500022F4FE42A16863695B08013B5B0643EAE4
:10646000012313430361ACE70848026922F4C00228
:1064700022F4FE42A16823695B08013B5B0543EA05
:106480000123134303619CE701255BE700100240F1
:106490002DE9F04182B00446036813F4006F25D063
:1064A000436CB3F5000F06D0B3F5400F12D04BB1DB
:1064B000012637461CE0BB4AD36843F48033D360DF
:1064C000002708E000210430FFF72CFF074610B139
:1064D00006460DE00027B34AD2F8883023F4400383
:1064E000616C0B43C2F88830002601E00026374675
:1064F000236813F4003F6BD0AA4B9B6D13F0805FB1
:106500004CD1A84B9A6D42F080529A659B6D03F076
:1065100080530193019B4FF00108A34A136843F491
:1065200080731360FEF7A2FB05469F4B1B6813F4B4
:10653000807F05D1FEF79AFB401B0228F5D903277F
:10654000002F40D1974BD3F8903013F4407315D0FF
:10655000A26D9A4212D0934AD2F8903023F440733D
:10656000D2F8901041F48031C2F89010D2F8901017
:1065700021F48031C2F89010C2F8903013F0010F6E
:106580000FD1002F40F0E380864AD2F8903023F4F8
:106590004073A16D0B43C2F8903015E04FF0000836
:1065A000BBE7FEF763FB05467E4BD3F8903013F054
:1065B000020FE6D1FEF75AFB401B41F288339842A6
:1065C000F2D90327DDE73E46B8F1000F40F0C18065
:1065D000236813F0010F08D0724AD2F8883023F0F4
:1065E0000303216A0B43C2F88830236813F0020FBB
:1065F00008D06C4AD2F8883023F00C03616A0B4350
:10660000C2F88830236813F0040F08D0654AD2F826
:10661000883023F03003A16A0B43C2F88830236826
:1066200013F0200F08D05F4AD2F8883023F440637B
:10663000E16A0B43C2F88830236813F4007F08D066
:10664000584AD2F8883023F44023E16B0B43C2F858
:106650008830236813F4806F08D0524AD2F888300B
:1066600023F44013216C0B43C2F88830236813F0E5
:10667000400F08D04B4AD2F8883023F44053216BA6
:106680000B43C2F88830236813F0800F08D0454AC6
:10669000D2F8883023F44043616B0B43C2F8883052
:1066A000236813F4807F08D03E4AD2F8883023F460
:1066B0004033A16B0B43C2F88830236813F4002FDA
:1066C0000FD0384AD2F8883023F04063A16C0B43D6
:1066D000C2F88830A36CB3F1006F40D0B3F1806F83
:1066E00042D0236813F4802F0FD02E4AD2F888307E
:1066F00023F04063E16C0B43C2F88830E36CB3F1E4
:10670000006F39D0B3F1806F3BD0236813F4804F12
:106710000CD0244AD2F8883023F04053216D0B432B
:10672000C2F88830236DB3F1805F32D0236813F450
:10673000004F08D01B4AD2F8883023F08043616DA7
:106740000B43C2F88830304602B0BDE8F0813E46C7
:106750003AE7144A936D23F08053936538E7D36882
:1067600043F48013D360BCE70121201DFFF7DAFD5D
:106770000028B6D00646B4E7D36843F48013D3604C
:10678000C3E70121201DFFF7CDFD0028BDD006463F
:10679000BBE70221201DFFF7C5FD0028C6D0064635
:1067A000C4E700BF001002400070004030B4036A2C
:1067B00023F001030362036A4468826922F4803291
:1067C00022F073020D682A4323F002038D682B43E5
:1067D000144DA84207D005F5A055A84203D005F5F1
:1067E0008065A84205D123F00803CD682B4323F030
:1067F00004030C4DA84207D005F5A055A84203D0CC
:1068000005F58065A84205D124F440754C692C43F8
:106810008D692C43446082614A684263036230BCE4
:10682000704700BF002C014030B4036A23F480732A
:106830000362036A4468C26922F4803222F0730260
:106840000D682A4323F400738D6843EA0523124D33
:10685000A84219D0104DA84207D005F5A055A8426E
:1068600003D005F58065A84207D124F440544D6952
:1068700044EA05148D6944EA05144460C2614A681B
:10688000C263036230BC704723F40063CD6843EAFF
:10689000052323F48063DDE7002C014030B4036A54
:1068A00023F480530362026A4468C36923F080734F
:1068B00023F4E6430D6843EA052322F400528D6871
:1068C00042EA05320B4DA84207D005F5A055A84273
:1068D00003D005F58065A84204D124F480444D69B5
:1068E00044EA85144460C3614B680364026230BCAF
:1068F000704700BF002C014030B4036A23F480339A
:106900000362036A4468426D22F4803222F070020E
:106910000D682A4323F400338D6843EA05430B4D89
:10692000A84207D005F5A055A84203D005F580651B
:10693000A84204D124F480344D6944EA052444601B
:1069400042654A688265036230BC7047002C014092
:1069500030B4036A23F480130362026A4468436D0F
:1069600023F0807323F4E0430D6843EA052322F407
:1069700000128D6842EA05520B4DA84207D005F57A
:10698000A055A84203D005F58065A84204D124F49F
:1069900080244D6944EA8524446043654B68C3659F
:1069A000026230BC704700BF002C014003681A4AE5
:1069B000904202D0B0F1804F03D123F070034A68B7
:1069C0001343154A90420AD0B0F1804F07D002F528
:1069D000A052904203D002F58062904203D123F48A
:1069E0004073CA68134323F080034A69134303606A
:1069F0008B68C3620B688362074B984207D003F52C
:106A0000A053984203D003F58063984201D10B69EB
:106A10000363012343617047002C0140B0B110B5FE
:106A2000044690F83D3063B1022384F83D3021469E
:106A300051F8040BFFF7BAFF012384F83D30002022
:106A400010BD80F83C3005F0BDFAEDE7012070473D
:106A500030B4036A23F010030362036A4468826956
:106A600022F0807222F4E6420D6842EA052223F009
:106A700020038D6843EA0513124DA84219D0114D29
:106A8000A84207D005F5A055A84203D005F58065BA
:106A9000A84207D124F440644D6944EA85048D6915
:106AA00044EA8504446082614A688263036230BCC0
:106AB000704723F08003CD6843EA051323F04003B9
:106AC000DDE700BF002C014038B590F83C30012BC9
:106AD00000F0928004460D46012380F83C300223EA
:106AE00080F83D30142A1ED8DFE802F00B1D1D1D72
:106AF000241D1D1D381D1D1D4B1D1D1D5F1D1D1D34
:106B000072000068FFF752FE2268936943F00803A1
:106B100093612268936923F0040393612268936967
:106B200029690B439361012384F83D30002084F8E8
:106B30003C0038BD0068FFF78BFF2268936943F47F
:106B4000006393612268936923F4806393612268F0
:106B50009369296943EA01239361E4E70068FFF739
:106B600063FE2268D36943F00803D3612268D369C6
:106B700023F00403D3612268D36929690B43D361ED
:106B8000D1E70068FFF78AFE2268D36943F4006307
:106B9000D3612268D36923F48063D3612268D36907
:106BA000296943EA0123D361BDE70068FFF7A4FE2A
:106BB0002268536D43F0080353652268536D23F038
:106BC000040353652268536D29690B435365AAE793
:106BD0000068FFF7BDFE2268536D43F40063536500
:106BE0002268536D23F4806353652268536D2969CD
:106BF00043EA0123536596E702209AE710B401F0B7
:106C00001F01012303FA01F4036A23EA0403036268
:106C1000036A02FA01F10B4303625DF8044B70470B
:106C200010B5044601220068FFF7E8FF2368104A08
:106C3000934207D002F5A052934203D002F580623E
:106C4000934203D15A6C42F400425A64226891681C
:106C5000084B0B40062B09D09168064B0B40B3F54F
:106C6000803F03D0136843F001031360002010BD80
:106C7000002C01400700010010B504460022006806
:106C8000FFF7BCFF2368174A93421BD002F5A052BE
:106C9000934217D002F58062934213D02368196A99
:106CA00041F21112114208D1196A40F244421142D4
:106CB00003D11A6822F001021A60012384F83D30E2
:106CC000002010BD196A41F211121142E6D1196A71
:106CD00040F244421142E1D15A6C22F400425A641B
:106CE000DCE700BF002C014090F83C30012B25D0A0
:106CF00030B4012380F83C30022380F83D30026834
:106D0000536895680E4CA24213D023F070030C68B0
:106D1000234325F080048968214353600368996008
:106D2000012380F83D30002380F83C30184630BC09
:106D3000704723F470034C682343E6E70220704752
:106D4000002C014090F83C30012B3BD010B40123C3
:106D500080F83C30CB6823F440738A68134323F4F3
:106D600080634A68134323F400630A68134323F4DF
:106D700080530A69134323F400534A69134323F4ED
:106D800080438A6A134323F470238A6943EA0243E7
:106D900002680D4CA24207D05364002380F83C30B7
:106DA00018465DF8044B704723F470034C6A43EABD
:106DB000045323F08073CC69234323F00073096AE2
:106DC0000B43E9E702207047002C0140F0B40C6847
:106DD00094FAA4F4B4FA84F42CE08E68826893FAEE
:106DE000A3F5B5FA85F56D0007FA05F522EA050267
:106DF00093FAA3F5B5FA85F56D0006FA05F52A4371
:106E000082600E69C26893FAA3F5B5FA85F56D0044
:106E1000032707FA05F522EA050293FAA3F5B5FA66
:106E200085F56D0006FA05F52A43C2604A68022A14
:106E300022D001340B6833FA04F24CD00122A24074
:106E40001340F6D04E68026893FAA3F5B5FA85F5BB
:106E50006D00032707FA05F522EA050293FAA3F568
:106E6000B5FA85F56D0006FA05F52A4302604A6811
:106E7000013A012AC5D8B0E7FF2B15D84D69026A3F
:106E800093FAA3F6B6FA86F6B6000F2707FA06F6C7
:106E900022EA060293FAA3F3B3FA83F39B0005FAFE
:106EA00003F313430362C4E74A69456A1B0A93FA72
:106EB000A3F6B6FA86F6B6000F2707FA06F625EA15
:106EC000060593FAA3F3B3FA83F39B0002FA03F3E4
:106ED0002B434362ADE74A68013A012A02D90120F7
:106EE000F0BC7047C968426822EA030201FB03F361
:106EF00013434360F3E70000034B9B68C3F30313A2
:106F0000024AD35CD84070470010024000040108D8
:106F1000034B9B68C3F30223024AD35CD8407047FB
:106F20000010024010040108034B9B68C3F3C22306
:106F3000024AD35CD8407047001002401004010898
:106F40003A4BDB6803F00303022B57D0032B57D0D7
:106F5000012B12D0354B1B6813F0080337D1334A8D
:106F6000126812F0080F41D1304BD3F89430C3F3BC
:106F700003232F4A52F8233043E02C4B1B6813F0B5
:106F800008030ED0294B1B6813F0080F1AD1274BAA
:106F9000D3F894301B0903F0F003254A52F823304C
:106FA0002FE0224A126812F0080F08D11F4BD3F8C5
:106FB0009430C3F303231E4A52F8233021E01B4AC6
:106FC0001268F8E7194B1B68C3F30313E5E7174B87
:106FD0001B6813F0080F0CD1144BD3F894301B0925
:106FE00003F0F003124A52F823300AE00F4A126805
:106FF000BFE70E4B1B68C3F30313F3E70D4B00E031
:107000000D4B0A4AD068C0F302100130B3FBF0F315
:10701000D068C0F3062000FB03F0D368C3F34163DC
:1070200001335B00B0FBF3F0704700BF001002407B
:10703000D00301080024F40000127A0008B5354B93
:107040009B6803F00C030C2B37D8DFE803F00936FC
:107050003636073636366036363633002E482BE065
:107060002C4B1B6813F008030ED02A4B1B6813F03F
:10707000080F1AD1274BD3F894301B0903F0F00303
:10708000264A52F8230017E0224A126812F0080F2D
:1070900008D1204BD3F89430C3F303231F4A52F88E
:1070A000230009E01B4A1268F8E71A4B1B68C3F378
:1070B0000313E5E7FFF744FF08BD164B1B6813F009
:1070C00008030DD1134A126812F0080F17D1114BA3
:1070D000D3F89430C3F30323104A52F82300EBE7AC
:1070E0000C4B1B6813F0080F0CD10A4BD3F89430EB
:1070F0001B0903F0F003094A52F82300DCE7054AB4
:107100001268E9E7034B1B68C3F30313F3E7044872
:10711000D2E700BF001002400024F400D0030108B1
:1071200000127A0008B5032805D00C282BD030288F
:1071300056D0002008BD454BD3F88830034043EAC1
:107140000040A0F5403003287BD8DFE800F01502AE
:10715000050CFFF773FFEDE73C4B186810F48060F7
:10716000E8D03B48E6E7394BD3F8900010F0020036
:10717000E0D04FF40040DDE7FFF760FFFFF7BCFE13
:10718000FFF7D2FED6E7314BD3F88830034043EA0D
:107190000040A0F540200C2855D8DFE800F01A5434
:1071A0005454075454540A5454541100FFF746FFE2
:1071B000C0E7264B186810F48060BBD02448B9E7BC
:1071C000224BD3F8900010F00200B3D04FF40040EF
:1071D000B0E7FFF733FFFFF78FFEFFF799FEA9E750
:1071E0001A4BD3F88830034043EA0040194B9842C9
:1071F00019D00AD8B0F5401F1CD0103B984202D1DC
:10720000FFF71CFF96E7002094E7B0F1301F08D18C
:107210000E4BD3F8900010F002008BD04FF40040DA
:1072200088E7002086E7094B186810F4806081D059
:1072300007487FE7FFF702FFFFF75EFEFFF768FEF4
:1072400078E7002076E7002074E700BF00100240D6
:107250000024F4002000300038B5036813F0010F5B
:107260004CD104460D460368274A1A404B68C9684A
:107270000B4329690B43A9690B4313430360AB68B4
:10728000426822F44052134343606B69826822F4DF
:107290004072134383601D4B984207D01C4B9842A9
:1072A00016D01C4B984217D0002028E00320FFF78F
:1072B00039FF28B32B682BB3AA69B2F5004F0FD062
:1072C00000EB5300B0FBF3F39BB2E360012016E048
:1072D0000C20FFF727FFECE73020FFF723FFE8E75C
:1072E0005A0802EB4000B0FBF3F34FF6F0721A407D
:1072F000C3F342031343E360012000E0002038BDE4
:107300000020FCE70020FAE7F369FFEF00380140B6
:10731000004400400048004010B4074A1378D118D8
:10732000040A0C710133DBB2D118087101331370F8
:107330005DF8044B704700BFCC00002010B4124B26
:107340001C78201AC0B2FF230EE05B0083F03103EB
:10735000DBB2013AD2B22AB113F0800FF5D15B0053
:10736000DBB2F6E70130C0B2884205D2064A0244D9
:10737000127953400822EEE7034A11190B710134C8
:1073800014705DF8044B7047CC00002000B583B04A
:1073900002460B4614210091C2210948FEF736F936
:1073A00010B903B05DF804FB0548FEF7ABFA0428FA
:1073B000F7D040F24711034804F006FAF1E700BFA6
:1073C000E40000201804010810B5084C00232370C5
:1073D0004FF48270FFF7A0FF204610F8041BFFF760
:1073E000D5FFFDF743FC606610BD00BFCC00002058
:1073F00038B5094C002525701020FFF78DFF284671
:10740000FFF78AFF04210220FFF798FF204610F8BB
:10741000041BFFF7BBFF38BDCC00002038B5054684
:10742000094C002323704FF48C40FFF775FF28466A
:10743000FFF772FF04210220FFF780FF204610F8BB
:10744000041BFFF7A3FF38BDCC00002000B583B0BC
:1074500002460B4614210091C3210948FEF794F916
:1074600010B903B05DF804FB0548FEF74BFA042899
:10747000F7D04FF4AC71034804F0A6F9F1E700BF70
:10748000E40000201804010810B50C4C0023237000
:1074900040F20220FFF740FF204610F8041BFFF7E0
:1074A00075FF032104F16800FFF7D0FF94F868002E
:1074B00094F8693043EA002010BD00BFCC000020E2
:1074C000F8B507460E4615461F4C002323704FF4AF
:1074D0004070FFF721FF204610F8041BFFF756FF0E
:1074E000122104F16800FFF7B1FF94F8682094F8C6
:1074F00069301B0443EA026394F86B2043EA0223D9
:1075000094F86C2013433B6094F86E2094F86F302D
:107510001B0443EA026394F8712043EA022394F8BF
:1075200072201343336094F8742094F875301B0470
:1075300043EA026394F8772043EA022394F8782020
:1075400013432B60F8BD00BFCC00002010B51A48D3
:107550001A4B83611A4BC36100230362012242620A
:107560008362C3620363436383631830FDF7F0FFF4
:1075700098B900211348FEF7C7F998B900211148BE
:10758000FEF7F0F998B90C4C002384F87C3084F8AD
:107590007D30FDF76BFB606610BD3C210A4804F0AE
:1075A00013F9E6E74221084804F00EF9E6E748211E
:1075B000054804F009F9E6E7CC000020005C004033
:1075C0006D3D3000E40000201804010801281CD0A3
:1075D00002280ED008B100207047174BD3ED207A57
:1075E0009FED167A67EE877AFDEEE77A17EE900A3E
:1075F0007047114BD3ED217A9FED107A67EE877AB1
:10760000FDEEE77A17EE900A70470B4BD3ED227A26
:10761000B0EE007AF4EEC77AF1EE10FA0AD99FEDD7
:10762000077A67EE877AFDEEE77A17EE903AA3F1D4
:10763000C800704700207047CC0000200000C842FE
:1076400010B5074C0021201DFFF7A0FE0220FFF718
:10765000E5FEFFF7CDFEFDF709FB606610BD00BF3C
:10766000CC00002008B5FDF701FB354B5B6EC01A5E
:10767000B0F5FA6F03D9324B93F87C30DBB1FDF7EC
:10768000F5FA2F4B5B6EC01AB0F57A7F04D92C4BFC
:1076900093F87C30012B15D0294B93F87D3023B91A
:1076A000274B93F87C30012B24D0254B93F87D3069
:1076B000012B31D008BDFFF7C3FF214B012283F816
:1076C0007C20DCE71E4B93F87D30002BE4D1FFF7E4
:1076D000DBFEC0B2012804D0FDF7C8FA184B58668B
:1076E000DAE7174800F1840200F188018030FFF7E3
:1076F000E7FEF1E702F04AFB0028D6D1FFF764FE6F
:107700000F4B0022C3F88020C3F88820C3F88420E0
:10771000012283F87D20C8E7094B93F87C30012BC8
:10772000C8D102F033FB0128C4D1FFF761FEFDF799
:107730009DFA034B5866002283F87D20BAE700BF0C
:10774000CC000020037833B1013002F8013BF9E7A7
:10775000013102F8013B0B78002BF9D1137070470F
:1077600070B400249C4205D21519065D4E550134B3
:10777000E4B2F7E770BC7047F0B583B007460D463A
:1077800016460024B44210D23A5D094901A806F019
:10779000F9FE63009DF8042005F8142001339DF8DC
:1077A0000510E9540134E4B2ECE703B0F0BD00BFCA
:1077B000280401082DE9F04780460F46FDF756FAE8
:1077C0002B4B186000249C80434601E00134A4B296
:1077D00013F8015B002DF9D1022606E0244BB3F823
:1077E00004E0A64535D206F0EFFDFDF73FFA204B49
:1077F0001B68C01AB84238D2BDBB01F083FC002818
:10780000F1D1DFF86C90B9F804A00AF10103A9F8EE
:10781000043001F081FCCA448AF80800B9F8043049
:10782000632BDBD90022A9F80420D7E701339BB2F0
:107830009C420BD903EB00090D49494491F808908B
:1078400012F8011B8945F1D0AC46EFE70136B6B21C
:1078500065463046AEEB04039E42C4DC002DC2D127
:10786000424600234FF0010CE2E72846BDE8F087CE
:107870005801002010B50446FDF7F8F9064BD8660C
:10788000FDF7F4F9044BDB6EC01AA04202D206F0F9
:107890009BFDF5E710BD00BF5801002010B5044660
:1078A0000A20FFF7E7FF01F0E7FC204601F0FAFCB1
:1078B00010BD38B504460D460A20FFF7DBFF01F086
:1078C000DBFC01F0DFFC2946204601F013FD38BD4A
:1078D00010B598B004461D23002269460B48FFF7F7
:1078E0003FFF102210A92046FFF746FF20231D224C
:1078F000694610A8FFF734FF3D216846FFF7D9FF1E
:1079000064210348FFF756FF18B010BD300401088A
:107910005004010808B500224FF480514FF0904008
:10792000FDF7C5FC0520FFF7A5FF01224FF48051AC
:107930004FF09040FDF7BBFC41F288310148FFF762
:1079400039FF08BD5004010808B51048FFF7A6FF2D
:1079500032210F48FFF72EFF00B108BD00224FF47F
:1079600000414FF09040FDF7A2FC0520FFF782FF99
:1079700001224FF400414FF09040FDF798FC41F296
:1079800088310348FFF716FFE7E700BF54040108FA
:107990005004010810B5084C2046FFF77FFF322045
:1079A000FFF768FF2046FFF779FF3220FFF762FFFD
:1079B0000248FFF773FF10BD58040108680401086E
:1079C000014B93F8700070475801002030B58FB01C
:1079D000214C2046FFF762FF3220FFF74BFF204685
:1079E000FFF75CFF3220FFF745FF1C4C01AA214640
:1079F0001B48FFF7A7FE01A8FFF750FF01AA214689
:107A00001848FFF79FFE3C2101A8FFF7D3FE01288D
:107A100002D000200FB030BD04463220FDF72CF913
:107A20001148FFF73BFF4FF4C8711048FFF7C2FE43
:107A300080B9054601E00135EDB2092DEAD80028EC
:107A4000E8D14FF4C8710948FFF7B4FE0028F2D01E
:107A50002046F0E72046DDE7580401083F290020D2
:107A60007C040108880401089804010850040108F6
:107A700070B50546114C002384F87030FFF764FFA1
:107A80000F4E3046FFF70AFF3220FFF7F3FE304675
:107A9000FFF704FF3220FFF7EDFE04F174063246D3
:107AA00029460848FFF74EFE3046FFF7F7FE012350
:107AB00084F8A63084F8703070BD00BF58010020F3
:107AC00058040108AC04010808B50448FFF7E6FEB5
:107AD00064210348FFF76EFE08BD00BFE004010803
:107AE0005004010808B5FFF72FFF08BD30B591B06D
:107AF000002877D009238DF800308DF80130594BDC
:107B000093F8A8208DF8022093F8A9208DF803207F
:107B100093F8AA208DF8042093F8AB208DF8052067
:107B200093F8AC208DF8062093F8AD208DF807204F
:107B300093F8AE208DF8082093F8AF308DF8093017
:107B40004948FFF7ABFE32214848FFF733FE58B3F0
:107B50000025474B012283F8A7204648FFF79EFEE9
:107B60000923002208A94448FFF7FAFD0A2203A9C5
:107B70006846FFF701FE1423092208A903A8FFF7AE
:107B8000EFFD0024042C13D81D2108A8FFF791FE57
:107B900064213648FFF70EFE012809D03220FFF796
:107BA00069FE0134E4B2EDE7FFF79CFF0125D0E761
:107BB0009620FFF75FFE2E4B93F87030012B04D018
:107BC000002D4DD0FFF780FF4AE02C4C22462C4977
:107BD0002C48FFF7B7FD2046FFF760FE9620FFF721
:107BE00049FEEDE70446284B1B68ADF800301B0C3E
:107BF0008DF80230254D2846FFF750FE3220FFF762
:107C000039FE2846FFF74AFE3220FFF733FE0022F6
:107C1000174B83F8A720092308A91748FFF7A0FDF1
:107C2000032203A96846FFF7A7FD0623092208A936
:107C300003A8FFF795FD042C0FD80F2108A8FFF724
:107C400038FE64210948FFF7B5FD012805D0322030
:107C5000FFF710FE0134E4B2EDE70A20FFF70AFE59
:107C600011B030BD782800205404010850040108E8
:107C700058010020E8040108F4040108CC010020A8
:107C800020290020AC04010800050108580401085F
:107C900010B58EB06D4B002283F87020FFF73AFECE
:107CA000FFF752FE6A48FFF7F9FD3220FFF7E2FDC9
:107CB0006848FFF7F3FD3220FFF7DCFD6648FFF769
:107CC000EDFD64216548FFF775FD002862D064482A
:107CD000FFF7E4FD64216348FFF76CFD002876D0D0
:107CE0005A4B93F8A630012B00F08D805E48FFF7C9
:107CF000D5FD5E48FFF7D2FD0A20FFF7BBFD5C48CB
:107D0000FFF7CCFD0A20FFF7B5FD5A48FFF7C6FD87
:107D10000A20FFF7AFFD5848FFF7C0FD0A20FFF724
:107D2000A9FD5648FFF7BAFD0A20FFF7A3FD544806
:107D3000FFF7B4FD0A20FFF79DFD5248FFF7AEFDA7
:107D400041F288315048FFF735FD01203F4B83F861
:107D5000A700FFF7CBFE4D4C01AA21464C48FFF788
:107D6000F1FC01A8FFF79AFD01AA21464948FFF757
:107D7000E9FC6E2101A8FFF71DFD474B1870012893
:107D80005CD0454B00221A70304B012283F87020E2
:107D90000EB010BD4148FFF781FD3220FFF76AFDAC
:107DA0003F48FFF77BFD3220FFF764FD3D48FFF7BA
:107DB00075FD354C64212046FFF7FCFC3A48FFF77F
:107DC0006DFD41F288312046FFF7F4FC7FE701AA00
:107DD00024493648FFF7B6FC01A8FFF75FFD3220C3
:107DE000FFF748FD2F48FFF759FD274C6421204637
:107DF000FFF7E0FC2C48FFF751FD41F288312046A7
:107E0000FFF7D8FC6CE71148002380F8A6307430E7
:107E1000FFF744FD3220FFF72DFD2248FFF73EFD1E
:107E2000194C64212046FFF7C5FC1F48FFF736FDBB
:107E300041F288312046FFF7BDFC57E71C48FFF7A9
:107E40002DFD64211048FFF7B5FC9AE7580100208A
:107E5000040501080C0501081405010820050108A6
:107E60005C05010820290020680501087805010843
:107E7000880501089C050108B0050108C405010832
:107E8000D8050108EC050108500401083F2900202D
:107E90007C040108880401085E2200202C050108EA
:107EA000380501084805010850050108AC0401081F
:107EB0009804010810B50446FFF746FD2046FFF779
:107EC00007FD10BD70B42C4B1D782846C5EBC503CB
:107ED0005A002A4B134401225A7300230B2B0CD84F
:107EE000991D254A0A441479C0EBC0025100234A67
:107EF0000A44D4540133DBB2F0E714231E4A1A4477
:107F000012792C2A04D0182B02D80133DBB2F5E702
:107F1000013BDBB2C5EBC5025100184A0A440021FF
:107F20001173012212E0144919440979C0EBC0040D
:107F30006600124C34443039267B01FB0261217308
:107F400002EB82025100CAB2013BDBB2142BEAD829
:107F5000094B1B7E2D2B06D0612D02D80135064B17
:107F60001D7070BC7047054AC5EBC5014B0013443A
:107F70001A7B52421A73EFE70002002064220020AD
:107F80001B4B187898B310B41A4B93F90C4001238B
:107F9000002001E00133DBB2632B10D8C3EBC30236
:107FA0005100144A0A44527B012AF3D1114A0A446F
:107FB00092F90C20A242EDDD14461846EAE70023B0
:107FC0000BE0C0EBC00251000A4A0A44D15C0A4AE5
:107FD0001A4482F8C7100133DBB20B2BF1D9064BE0
:107FE000002283F8D32001205DF8044B70477047CE
:107FF000000200206422002078280020F0B5864688
:108000000346002501E00135ADB213F8010B00284D
:10801000F9D14FF0020C13E001339BB29D420AD913
:108020009C190E49214491F8CC4012F8011B8C4256
:10803000F2D00746F0E70CF1010C1FFA8CFC384631
:108040006646064BB3F8843C5B1B9C4504DC18B9C0
:10805000724600230127E1E7F0BD00BF00020020C7
:108060000A4BB3F8863C1BB9084A002182F8881CE9
:10807000064A591CA2F8861C134483F88C0C92F80B
:10808000883C584082F8880C704700BF00020020EE
:1080900010B50446C0B2FFF7E3FF200AFFF7E0FF88
:1080A00010BD10B5044680B2FFF7F2FF200CFFF7B9
:1080B000EFFF10BD70B504460E460025B54206D24E
:1080C00014F8010BFFF7CCFF0135ADB2F6E770BD38
:1080D00038B504461B4DA5FB0035AD0905F1300050
:1080E000FFF7BEFFC5EB451305EB8305ED00ADB211
:1080F000651BADB2144CA4FB0534C4F3471404F162
:108100003000C0B2FFF7ACFF04EB840404EB84043E
:10811000A400A4B22C1BA4B20C4DA5FB0435C5F3DE
:10812000C70505F13000C0B2FFF79AFF05EB8500E7
:10813000400080B2201AC0B23030C0B2FFF790FFCA
:1081400038BD00BFD34D62101F85EB51CDCCCCCCD8
:1081500038B505460A4CA4FB0034C4F3C70404F147
:108160003000C0B2FFF77CFF04EB84046400A4B2CB
:10817000281BC0B23030C0B2FFF772FF38BD00BF5D
:10818000CDCCCCCC084A131893F8CC3003EB830346
:108190005B002033DBB20130104490F8CC0018446F
:1081A000C0B23038C0B2704700020020C31C024881
:1081B000184490F8CC0070470002002038B50546FE
:1081C0000130C0B2FFF7F2FF84B22402A4B2284605
:1081D000FFF7ECFF14FA80F080B238BD38B50446E2
:1081E0000230C0B2FFF7EAFF05042046FFF7E6FFC2
:1081F000284438BDF8B504460E4617460025B3B2EC
:10820000AB4208D97819C0B2FFF7D0FF04F8010BD0
:108210000135ADB2F3E7F8BD08B520210348FDF7FD
:108220003FF808B1002008BD0120FCE70004004829
:1082300038B5194BB3F8B83D012B12D1164B93F852
:10824000BA3DDBB2012B00D038BD134B002283F8BE
:10825000BA2DA3F8B82DF7E7FCF708FD0E4BC3F8CD
:10826000BC0D00F04FFF0028EED10B4CB4F8845C3D
:1082700000F052FF254485F8CC00B4F8843C01336B
:108280009BB2A4F8843C40F6B7329342E4D9002272
:10829000A4F8842CE0E700BF0002002010B5FFF72F
:1082A000C7FF274BB3F8843CFBB1254B93F8CC3088
:1082B000882B0FD0224B0022A3F8842C0120E8B990
:1082C0001F4BB3F8842C93F8CE3004339A4215D068
:1082D000012014E0FCF7CAFC194BD3F8BC3DC01ACE
:1082E000B0F57A7FE6D8002000E001200028E6D132
:1082F000134BB3F8843C012BE1D80120D8B1E8B985
:108300000F4B0022A3F8842C012010BD0C4A1A4404
:1083100092F8CC205140C9B20133DBB29AB2084C7A
:10832000B4F8844CA242F1D30029E8D0044B0022D7
:10833000A3F8842CE9E703460146EFE70020E4E7D1
:108340000002002010B5FFF773FF314BB3F8843CF7
:108350000BB32F4A92F8CC200D2A2BD02C4A92F83E
:10836000CD200A2A28D02A4B0022A3F8842C0124ED
:10837000BCB9274BB3F8842C911E0B4493F8CC3036
:108380000D2B0ED0013A224B1A4492F8CC300A2B16
:1083900007D0012406E00124002CE9D1042BE7D802
:1083A00001245CB194BB1A4B0022A3F8842C012455
:1083B000204610BD0024EFE70024EDE71548FFF745
:1083C0001DFE012804D1124B022283F8C02DE9E7DB
:1083D0001148FFF713FE012804D10D4B032283F847
:1083E000C02DDFE70D48FFF709FE012804D1084B37
:1083F000042283F8C02DD5E70948FFF7FFFD0128C7
:10840000F5D0034B0022A3F8842CD1E70024CFE75A
:1084100000020020F40501085004010804060108C8
:108420000C06010870B5FFF703FF534BB3F8845CEB
:10843000002D54D093F8C13D012B05D04E4BB3F81D
:10844000C22D0021012032E04B4BB3F8C22D033284
:1084500092B2F6E7484C144494F8CC400A2C2FD141
:10846000454E96F8C16D5EBB02324348A0F8C22D5E
:10847000421813714B1C184404716A1E92B23046A4
:1084800007E03D4C66183371013189B2002384F84E
:10849000C13D541E384B234493F8CC304F2B14D09D
:1084A000013292B240F6B7339A4200D90122954286
:1084B00016D0541E304B234493F8CC300D2BC9D02A
:1084C0000D2BE6D00A2BDCD1E3E72B4B134493F8BA
:1084D000CC304B2BE4D1294B01241C70E0E7012068
:1084E00008B1002070BD0023234A1A441279222AC1
:1084F00006D040F6B732934202D801339BB2F3E77D
:108500005A1C92B240F6B7318B42EBD801E00132EF
:1085100092B2194911440979222907D003F12001A7
:108520008A4203D240F6B7318A42F0D9114601336C
:108530009A42D7D040F6B7339A42D3D8023A0E4B7C
:1085400013441B797B2B05D001390B4B19440B7954
:10855000242BC7D1084B5B7D602BC3D8064B9B7A7D
:108560002F2BBFD9A3F13A02D2B2062ABAD95A2B7D
:10857000B8D80120B6E700BF000200205C2200202E
:108580002DE9F04385B0B14C0025A4F8865C772036
:10859000FFF766FD94F8CD402046FFF761FD2846C1
:1085A000FFF75EFD013C272C34D8DFE814F02800EB
:1085B000450056008700A000A900330033003300B7
:1085C000BC0033003300330033003300330033008A
:1085D000E7004C01D400DB00B801930133009701A0
:1085E0009D01A601AA01AE01B401BE013300330012
:1085F0003300DB01C4010202330033000802012012
:10860000FFF72EFD3F20FFF743FD002004F020FE82
:10861000FFF726FD8D4B93F8860C0338C0B283F824
:108620008E0C93F8882C504083F8880CFFF718FDC7
:10863000012005B0BDE8F0830020FFF7CFFD844B9B
:108640009842E7D10420FFF7B1FDA0F14203DBB26D
:108650003A2BDFD801F0DEF9DCE70020FFF7BEFDA2
:108660007B4B9842D6D10420FFF7B8FD074608207F
:10867000FFF79CFD8046002604E0384601F0B6F97D
:1086800008370136B045C5D9F500EDB205F109004E
:10869000C0B2FFF7A3FD04460D35E8B2FFF79EFD1B
:1086A0000022A2184FF0000340EB0303A7F50201DC
:1086B000A1F5805167488142E3D8DEE70020FFF74B
:1086C0008DFD04460420FFF771FD064600250BE0F2
:1086D000204601F068F9FFF7E4FC201D01F063F982
:1086E000FFF7DFFC08340135AE42F1D892E70020F5
:1086F000FFF774FD564B98428CD101F079FC89E765
:108700000020FFF76BFD524B984283D1BFF34F8F90
:108710005149CA6802F4E062504B1343CB60BFF387
:108720004F8F00BFFDE701F037FBFFF799FC01F029
:108730002DFBFFF795FC0020FEF748FFFFF7B1FC8B
:108740000120FEF743FFFFF7ACFC0220FEF73EFFDF
:10875000FFF7A7FC5EE702F043FCF4214048FFF777
:10876000A9FC57E73E4C0022F4212046FFF742FDCA
:1087700040F24D11204602F063FC4BE702F030FC62
:10878000002408E004F17802354B03EB420398889B
:10879000FFF77EFC0134072CF4D9314CB4F8040106
:1087A000FFF776FCB4F80601FFF772FCD4F8080175
:1087B000FFF777FCB4F80C01FFF76AFC94F80E01A0
:1087C000FFF74EFC94F80F01FFF74AFC382104F53F
:1087D0008870FFF76FFCD4F84801FFF762FC94F84B
:1087E0004C01FFF73DFC15E7600000F0FE00FFF7CD
:1087F000E5FC04F178021A4B03EB42039880013444
:10880000072CF1D91020FFF7D9FC154CA4F804016E
:108810001220FFF7D3FCA4F806011420FFF7DEFCBA
:10882000C4F808011820FFF7C9FCA4F80C011A20AD
:10883000FFF7BCFC84F80E011B20FFF7B7FC84F89F
:108840000F01002633E00024DAE700BF0002002019
:10885000BBDDAACC00D0810700ED00E00400FA05E2
:1088600078280020F400E4B204F11C0000F0FC00C1
:10887000FFF7A4FC5C4D06F1220725F8370004F150
:108880001E0000F0FE00FFF799FC05EBC7056880AD
:10889000301DC00000F0F800FFF790FCA88004F144
:1088A000220000F0FE00FFF789FCE8800136062E6A
:1088B000D8D95420FFF792FC4B4CC4F848015820FB
:1088C000FFF774FC84F84C0140F24D11204602F091
:1088D000B7FB9FE64548FFF7CBF89BE60020FFF784
:1088E0006DFC00F0F7FE95E600F0C0FDFFF7B8FB69
:1088F00000F0B6FDFFF7B4FB8CE6012004F0ECFFBE
:1089000088E6032004F0E8FF84E60020FFF74EFC31
:1089100001F050FC7EE6002001F04CFC7AE60020DD
:10892000FFF744FC04F08EFF74E60020FFF73EFCE6
:1089300001F054FC6EE62E4CE078FFF791FB2079B5
:10894000FFF78EFB6079FFF78BFB2078FFF788FB42
:108950006078FFF785FBA078FFF782FBA079FFF72F
:108960007FFB57E60020FFF721FC04460120FFF7BC
:108970001DFC05460220FFF719FC06460320FFF701
:1089800015FC07460420FFF711FC80460520FFF781
:108990000DFC81460620FFF709FC0346CDF8089040
:1089A000CDF80480009732462946204603F0CDF9E1
:1089B00030E6104B93F8CF00FFF798F82AE6002036
:1089C000FFF70CFC0C4B98427FF424AE0B4C0422B6
:1089D0001F212046FFF70EFC40F24D11A4F1A80024
:1089E00002F02EFB16E600BF78280020CF02002000
:1089F0003C2A002000020020BBDDAACC2029002058
:108A000008B5FFF74BFC012800D008BDFFF7B8FD03
:108A10000128FAD1034890F8861C00F68C4000F03B
:108A2000DBFCF2E7000200202DE9F843304B1E7812
:108A30001EB9304B1D78012D05D0012E48D00025E0
:108A40002846BDE8F883FCF711F92B4BD3F8C43D59
:108A5000C01A4AF6C773984202D9284B1C7894B1C1
:108A6000FCF704F9244BD3F8C43DC01A4EF65F233B
:108A70009842E5D91F4B00221A7001F087F905468C
:108A800018B33546DCE701231C4A13701A4F4FF028
:108A9000040987F8C89D4FF00008A7F8848CA7F850
:108AA000C28D87F8C13DFEF775FF87F8C89D87F82E
:108AB0000080632CD4D8C4EBC402114B03EB4203F7
:108AC00000225A730134E4B2F3E7FFF70FF8B7E777
:108AD000FCF7CCF8084BD3F8C43DC01A4EF65F2320
:108AE000984203D90025034B1D70A9E70025A7E78D
:108AF0005E2200205D22002000020020DC270020F2
:108B00006422002038B55C4B0022A3F8862C93F831
:108B1000C04D032C05D0042C00F0A180022C02D003
:108B20000024204638BD1A4693F8DB3092F8DC501A
:108B300003EB830305EB4305EDB2103DEDB26B1E75
:108B4000052B00F29780DFE803F00309203B6D85D9
:108B50001120FFF717FB01F009F9E2E71120FFF7F9
:108B600011FB464BD862022808D9002283F82C203A
:108B700083F82D2083F82E2083F82F2040F24D110A
:108B80003E4802F05DFA2C46CBE71120FFF7FAFAD7
:108B900001F0ECF805F0C0FA40B1052004F09CFEAD
:108BA000042005F0E5FA04F04BFBBAE7334DA86A60
:108BB000C0B201F013FBA86AC0B205F0CDFAECE731
:108BC0001120FFF7DFFA98B92C4DA86AC0B201F066
:108BD00005FBA86AC0B205F0BFFA01F0D7F801287A
:108BE0001CD0032004F078FE012005F0C1FA98E7BC
:108BF00005F092FA214B9862642809D90022642179
:108C000083F8281083F8292083F82A2083F82B2062
:108C100040F24D11194802F013FAD5E7002004F094
:108C20005BFEE1E7144B93F8C93D002B7FF479AF6D
:108C3000134B1B78002B7FF474AF02F069FA00200D
:108C4000104B1870104B1860104B186001F08EF824
:108C5000012466E7084B002283F8C92D61E7002054
:108C6000084B1870084B1860084B186001F07EF82C
:108C7000012456E7002454E7000200207828002051
:108C80005D2200205E220020602200205822002069
:108C900010B50E213C48FFF70DFA3C4B93F8C93D47
:108CA000012B0FD13A4B1B78012B07D0374B0022F9
:108CB00083F8C92D0120FFF74BFA06E00620FFF7E5
:108CC00047FA02E00120FFF743FA04F0D1FA002846
:108CD00045D1304B1B68012B03D92F4BDB7E012B79
:108CE00021D90020FFF7F4F90020FFF7F1F9002067
:108CF000FFF7EEF9274A136801331360274BD86A50
:108D000080B2FFF725FA05F00DFA80B2FFF7E0F91F
:108D10000D20FFF7A5F91D4890F8861C00F68C4041
:108D200000F05AFB10BD1D4BDB6A022B0BD01C4C14
:108D30002089FFF7CDF901F005FAFFF7C9F960893D
:108D4000FFF7C6F9D6E7164C208CFFF7C1F901F002
:108D5000F9F9FFF7BDF9208FFFF7BAF9CAE704F078
:108D600081FA80B2FFF7B4F904F07CFA80B2FFF721
:108D7000AFF904F077FA80B2FFF7AAF9094A13684D
:108D800001331360BAE700BF180601080002002093
:108D90005D2200206022002010280020782800207A
:108DA000482A00205822002010B5544B93F8C83DA3
:108DB000042B69D8DFE803F0035645228100504BAD
:108DC0001B78012B07D04F4B1B784BB94B4B012223
:108DD00083F8C82D58E0494B032283F8C82D53E08F
:108DE000464B93F8C93D012B4ED1474B1B78012BC5
:108DF0004AD1424B012283F8C82D45E0404B1B78F5
:108E0000012B0BD03D4B012283F8C82D00203F4B96
:108E100018603F4B186000F0A9FF35E0FFF792FAA9
:108E2000012831D1FFF76EFE344B83F8C80D0228BC
:108E30002AD1FBF71BFFFBF719FF304BC3F8CC0D12
:108E400022E0FBF713FF2D4BD3F8CC3DC01A63286B
:108E50001AD9FFF71DFF294B032283F8C82DFBF712
:108E600005FF11E0FEF7B2FD254B1870234C0023DF
:108E700084F8C83D00F000FA94F8D03D012B04D0EE
:108E80001F4B1B78012B0CD010BD1D4B1B78002BEA
:108E9000F6D194F8D10DFEF729FE002384F8D03DD9
:108EA000EEE7164C022384F8C83DFBF7DFFEFBF724
:108EB000DDFE6438C4F8CC0DE6E7FFF7B3FA01280D
:108EC0000CD0114B1B78012BDED1FFF759F801288C
:108ED00007D00A4B002283F8C82DD5E7FEF7F2FF32
:108EE000EFE740F24D110B4802F0AAF8034B0122C4
:108EF00083F8C82D83F8C92DC6E700BF0002002003
:108F00005E2200205D2200205C22002060220020E2
:108F1000582200207828002038B5124D0024A5F8EA
:108F2000844CA5F8B84DA5F8864C012385F8D23DB0
:108F300085F8C04D0C4A14700C4A1370FBF796FE6E
:108F4000C5F8C40D85F8C84D094B1C70094B1C7041
:108F500085F8D34D85F8D04D85F8C14D85F8C94DBC
:108F600038BD00BF000200205E2200205D220020EC
:108F7000DC2700205C220020024B83F8D01D83F800
:108F8000D10D70470002002008B5FFF745F9012810
:108F90000AD00F4B93F8D23DABB9FEF7A3FD0C4BB3
:108FA000012283F8D22D08BD094B93F8D23D012B45
:108FB00002D0FFF725FDF6E7FEF786FD044B002201
:108FC00083F8D22DEFE7FFF72FFDFFF7EDFEEAE77D
:108FD0000002002030B585B0FBF748FE3D4BD3F8CA
:108FE000D43DC01A42F20F73984201D805B030BD8B
:108FF000FBF73CFE374BC3F8D40D374B1B78002BE7
:10900000F4D1FFF709F904460028EFD1334B1B7860
:10901000002BEBD0324B1B78002BE7D000F0B6FED4
:109020008DF800000120FEF7D1FA2E4D85FB0023BC
:10903000C017C0EB6310FBF76DFA00222A4BFBF759
:109040001DF9FBF7A9FD8DF801000020FEF7BEFA1F
:1090500085FB0023C017C0EB6310FBF75BFA00220F
:10906000214BFBF70BF9FBF797FDADF8020002204F
:10907000FEF7ACFA85FB0035C017C0EB6510FBF7B7
:1090800049FA0022184BFBF7F9F8FBF785FD8DF83C
:10909000040073238DF8053065238DF806307223A4
:1090A0008DF8073009E0114B234493F8A82004AB56
:1090B000234403F8082C0134E4B2052CF3D924230B
:1090C0008DF80E307B238DF80F306846FEF7F2FEE8
:1090D0008CE700BF000200205E220020DC27002079
:1090E0005C2200201F85EB510000E03F7828002023
:1090F000034B00221A805A809A80DA80704700BFA2
:10910000D80F0020034B9888DB88984214BF0020BA
:1091100001207047D80F0020074A9388D118087A99
:1091200001339BB2938040F6B732934202D9024B8F
:1091300000229A80704700BFD80F00202DE9F04729
:1091400090B0484C4FF0080AC4F820A04023039385
:109150004FF00208CDF810800327059700250695EB
:109160000123079307260896DFF8089103A94846CC
:10917000FDF72CFE80230393CDF81080059706950C
:109180000795089603A94846FDF720FE4FF40063B3
:109190000393CDF81080059706950795089603A9C7
:1091A0004FF09040FDF712FECDF80CA0CDF81080E6
:1091B000059706950795089603A94846FDF706FE0C
:1091C000294BDB68294B83F8255320225A60284B12
:1091D0001A6E42F480421A661A6E02F480420292BB
:1091E000029AD3F8882022F00302C3F88820DA6CB0
:1091F00042F00102DA64DA6C02F001020192019A93
:10920000DA6C42EA0802DA64DB6C03EA08030093D2
:10921000009B4FF4E13309930A950B950C950C23B1
:109220000D934FF440730E930F9509A92046FEF756
:1092300013F8A36843F48053A360636823F4904356
:109240006360A36823F02A03A360236843F001034B
:109250002360236843F020032360FFF749FF10B029
:10926000BDE8F0870038014000ED00E000E100E0DB
:109270000010024000040048014BDA889A807047D1
:10928000D80F00200023064A1380C72B07D8044AB2
:109290001A44002182F8C01B01339BB2F5E77047E6
:1092A000D80F002010B4114B00221A80017841B170
:1092B00001300E4A1388D41884F8C01B0133138080
:1092C000F4E70A4B1A8899180D2081F8C00B013277
:1092D0005A8001221A8093F8C02B054B1A851A6810
:1092E00042F080021A605DF8044B7047D80F0020EE
:1092F0000038014030B4124B00221A808AB2104B61
:109300001B889A4208D910F8015B0D4AD41884F8DA
:10931000C05B01331380F1E7094AD1180D2081F8B1
:10932000C00B013353800123138092F8C02B054BEF
:109330001A851A6842F080021A6030BC704700BF7C
:10934000D80F00200038014082B00A4B9B8CDBB262
:1093500001930198084AD388D118087201339BB24F
:10936000D38040F6B732934202D9034B0022DA8011
:1093700002B0704700380140D80F00200C4B1A880B
:109380005B88013B9A4209D0094B1A88511C19800D
:10939000134493F8C02B074B1A857047054B1A6886
:1093A00022F080021A601A6842F040021A60EBE76D
:1093B000D80F002000380140054B1A885B889A427C
:1093C00000D07047034A136823F040031360F8E7A6
:1093D000D80F00200038014010B400238B4208D27F
:1093E00010F8014B0A4A1A4482F8C04B0133DBB231
:1093F000F4E7074A518092F8C01B064B19850121FA
:1094000011801A6842F080021A605DF8044B7047C0
:10941000D80F00200038014000B583B0074B202250
:10942000C3F88420064BDA6901921A6822F001021F
:109430001A60FFF783FE03B05DF804FB00E100E073
:109440000038014070470000014B1878704700BF9A
:10945000601C0020014B5878704700BF601C002042
:10946000014B1878704700BFED270020014B18789A
:10947000704700BFE8270020014B1870704700BFFD
:10948000E827002008B50023084A1370084A137023
:10949000084A1370084A1380084B01221A70084BBF
:1094A00002221A700A20FBF749FC08BD0828002098
:1094B000ED270020EE270020E427002009280020C7
:1094C000F027002008B50B4B9B783BB10A4B19786D
:1094D0005868FBF7E5FE50B1002008BD064B19782F
:1094E0005868FBF7DDFE0028F7D00120F5E70120E2
:1094F000F3E700BF601C00202000002008B5FFF744
:10950000E1FF3E4B18703E4A138801339BB2138033
:109510003C4A127890422DD03B4A12789AB1092ADF
:1095200022D0062B17D9082A06D8C2F10803984082
:1095300036490B78184308700132334B1A70304BA0
:1095400000221A8007E0022B05D92D4B00221A8039
:109550002D4B01221A70294B1A782A4B1A702C4B6A
:109560001B78042B3DD008BD062BF4D9284B0422D0
:109570001A70F0E7244A1278092A0ED00A2A1AD063
:109580002AB10A2BE7D1224B04221A70E3E7082BF9
:10959000E1D11F4B04221A70DDE7082BDBD118B98B
:1095A0001B4B04221A70D6E70132174B1A70144B6A
:1095B00000221A80CFE7082BCDD1154B00221A705C
:1095C000144B10225A610A20FBF7ACFB124B01220C
:1095D0001A70124B9B680D4A1178114A10789847FF
:1095E000B9E70B4B00221A700B4B03221A70094B80
:1095F00010225A610A20FBF795FBB4E7E927002007
:10960000E427002009280020EE270020ED27002075
:10961000F027002000040140E8270020200000205F
:1096200008280020014B1878704700BFF027002061
:109630000023054A1370054A1370054A1370054A42
:109640001380054A53707047E2270020E827002066
:10965000F0270020E6270020601C0020114B1B7B18
:109660007BB138B10F490A695369898A23EA01033A
:10967000536170470B490A6950698B8A03435361F0
:10968000704730B107490A6950698B8A03435361B7
:10969000704704490A695369898A23EA01035361BF
:1096A000704700BF20000020094B187B30B11A69B9
:1096B00012699B8A134209D000207047044B1A6933
:1096C00012699B8A134202D0012070470120704723
:1096D0002000002008B5084B18800023074A1370AB
:1096E000074A1380074B04221A700A20FBF726FB57
:1096F000054B01221A7008BD0C280020EC27002021
:10970000E0270020E8270020F027002008B501EB23
:10971000002080B2FFF7DEFF08BD08B501EB002096
:1097200080B2FFF7D7FF08BD38B505460C464B4B56
:109730001B7813B9494B0022DA70484BDB78062BB3
:1097400000F28580DFE803F0041225384D607500D3
:10975000424D01232B70E1B2A320FFF7D7FFFBF7A7
:1097600085FA6860EB780133EB7038BDFBF77EFA61
:109770003A4B5B68C01A3128F7D9210AC320FFF79A
:10978000C5FFFBF773FA354B5860DA780132DA70AF
:10979000EBE7FBF76BFA314B5B68C01A3128E4D971
:1097A0000821C120FFF7B2FFFBF760FA2B4B58608E
:1097B000DA780132DA70D8E7FBF758FA274B5B68A2
:1097C000C01A3128D1D940F2E711254B585DFFF777
:1097D000A4FFFBF74BFA214B5860DA780132DA70BC
:1097E000C3E7FBF743FA1D4B5B68C01A3128BCD9AD
:1097F0000821C120FFF78AFFFBF738FA174B5860A2
:10980000DA780132DA70B0E7FBF730FA134B5B68B5
:10981000C01A3128A9D94FF4F171114B585DFFF7E7
:109820007CFFFBF723FA0D4B5860DA780132DA70CF
:109830009BE7FBF71BFA094B5B68C01A312894D9E8
:10984000064B0020D8701870FFF716FE8DE7034B0B
:109850000022DA7001221A7087E700BF601C002026
:10986000CC03010808B5314B1B8813F0030F4AD114
:10987000A32B42D8172B20D9182B22D01C2B28D051
:109880002B4A1278C2F10F012A4A12880A4102F0CB
:10989000010229490A7013F0070F22D0234B1B88BD
:1098A0001C3B13F0070F2ED1234B1878FFF7D6FE81
:1098B0001F4A13780133137025E001331B4A1380CC
:1098C00025E00020FFF7CAFE184A138801331380F1
:1098D0001DE00120FFF7C2FE144A138801331380F4
:1098E00015E0FFF7E1FE144B1B789842D6D1C3F187
:1098F0000103D8B2FFF7B2FED0E7A42B08D00B4B80
:109900001B88B42B08D0094A13880133138008BD83
:109910000120FFF7A3FEF2E7084B00221A70084B64
:1099200010225A610A20FBF7FDF9ECE7E02700203E
:10993000EC2700200C280020EB270020F027002037
:109940000004014008B5FFF76DFE01280FD0022882
:1099500015D0FFF767FE48B90D4A138801339BB253
:1099600013805B2B02D90B4B01225A7008BDFFF705
:1099700079FF0023064A1380064A5370E9E7FFF790
:10998000BDFD0023024A1380024A5370E1E700BF85
:10999000F2270020601C0020102800D0704708B576
:1099A000FFF770FD08BD0068704700EB420290426F
:1099B00004D250F8083B41F8043BF8E7704770B513
:1099C00004460D4600EB4206FBF712FAB4420AD2F7
:1099D00000202A6803462146FBF772FA0028F5D1D9
:1099E00008340435F2E7FBF71BFA70BD70B5044686
:1099F00016461D46FBF7FCF932462B462146002051
:109A0000FBF75EFA20B10024FBF70AFA204670BD8E
:109A10000124F9E710B50A4C002323602369636031
:109A2000A060084B1B68E360FBF7E2F904F1140146
:109A30002046FBF7EFFA00B1FEE7FBF7F1F910BDA6
:109A4000681C00203800002070B52DED028B044604
:109A5000134DB5F90C01FAF75DFD0022114BFAF731
:109A6000EDFE41EC180BD5F808612046FAF742FDEF
:109A7000B0EE481AF0EE681A41EC100B05F040FA0F
:109A800055EC104B3046FAF735FD22462B46FAF7D7
:109A9000ABFDFBF781F880B2BDEC028B70BD00BF5F
:109AA0007828002000408F4038B51446002839D06F
:109AB0000D46642834D88A4230D8FF2901D9C8B26B
:109AC00031E007EE900AF8EE677A9FED197AC7EE5B
:109AD000877A17EE900AFAF72FFD41EC100B05F08C
