:020000040800F2
:1040000000500020F1EA000879BF00087BBF0008DB
:1040100000000000000000000000000000000000A0
:104020000000000000000000000000007DBF00084C
:1040300000000000000000007FBF000881BF0008F2
:1040400041EB000841EB000841EB000841EB0008A0
:1040500041EB000841EB000841EB0008B5BF000848
:1040600041EB000841EB000841EB000841EB000880
:1040700041EB000841EB000841EB000841EB000870
:1040800041EB000841EB000841EB00080000000094
:1040900041EB000841EB000841EB000841EB000850
:1040A00041EB000841EB000841EB0008C1BF0008EC
:1040B00015C0000841EB00080000000041EB0008BB
:1040C00010B5064C2378002B07D1054B002B02D0EE
:1040D000044800E000BF0123237010BDD800002079
:1040E00000000000642A0108044B10B5002B03D027
:1040F0000349044800E000BF10BDC04600000000B6
:10410000DC000020642A010803B47146490840001D
:104110004900095E49008E4403BC704700224308F1
:104120008B4274D303098B425FD3030A8B4244D37F
:10413000030B8B4228D3030C8B420DD3FF220902C1
:1041400012BA030C8B4202D31212090265D0030B80
:104150008B4219D300E0090AC30B8B4201D3CB0376
:10416000C01A5241830B8B4201D38B03C01A5241B8
:10417000430B8B4201D34B03C01A5241030B8B42BA
:1041800001D30B03C01A5241C30A8B4201D3CB02A5
:10419000C01A5241830A8B4201D38B02C01A52418A
:1041A000430A8B4201D34B02C01A5241030A8B428D
:1041B00001D30B02C01A5241CDD2C3098B4201D3A5
:1041C000CB01C01A524183098B4201D38B01C01A23
:1041D000524143098B4201D34B01C01A524103099A
:1041E0008B4201D30B01C01A5241C3088B4201D349
:1041F000CB00C01A524183088B4201D38B00C01AF6
:10420000524143088B4201D34B00C01A5241411A1C
:1042100000D20146524110467047FFE701B5002029
:1042200000F0F0F802BDC0460029F7D076E77047ED
:1042300003460B437FD4002243088B4274D3030907
:104240008B425FD3030A8B4244D3030B8B4228D3A8
:10425000030C8B420DD3FF22090212BA030C8B42CE
:1042600002D31212090265D0030B8B4219D300E06E
:10427000090AC30B8B4201D3CB03C01A5241830BF3
:104280008B4201D38B03C01A5241430B8B4201D3A3
:104290004B03C01A5241030B8B4201D30B03C01ACC
:1042A0005241C30A8B4201D3CB02C01A5241830A46
:1042B0008B4201D38B02C01A5241430A8B4201D375
:1042C0004B02C01A5241030A8B4201D30B02C01A9F
:1042D0005241CDD2C3098B4201D3CB01C01A524106
:1042E00083098B4201D38B01C01A524143098B428F
:1042F00001D34B01C01A524103098B4201D30B0178
:10430000C01A5241C3088B4201D3CB00C01A52419C
:1043100083088B4201D38B00C01A524143088B4261
:1043200001D34B00C01A5241411A00D201465241FA
:10433000104670475DE0CA0F00D04942031000D319
:104340004042534000229C4603098B422DD3030A6E
:104350008B4212D3FC22890112BA030A8B420CD37E
:10436000890192118B4208D3890192118B4204D3A7
:1043700089013AD0921100E08909C3098B4201D327
:10438000CB01C01A524183098B4201D38B01C01A61
:10439000524143098B4201D34B01C01A52410309D8
:1043A0008B4201D30B01C01A5241C3088B4201D387
:1043B000CB00C01A524183088B4201D38B00C01A34
:1043C0005241D9D243088B4201D34B00C01A52410B
:1043D000411A00D20146634652415B10104601D398
:1043E0004042002B00D54942704763465B1000D322
:1043F000404201B5002000F005F802BD0029F8D0C8
:1044000016E770477047C0468446101C62468C46CB
:10441000191C634600E0C0461FB501F0DFFB002811
:1044200001D40021C8421FBD10B501F029FB404254
:10443000013010BD10B501F0D1FB002801DB0020D8
:1044400010BD012010BDC04610B501F0C7FB00280B
:1044500001DD002010BD012010BDC04610B501F0E7
:104460004BFB002801DC002010BD012010BDC04620
:1044700010B501F041FB002801DA002010BD012039
:1044800010BDC0468446081C6146FFE71FB500F01A
:10449000E5FA002801D40021C8421FBD10B500F084
:1044A00069FA4042013010BD10B500F0D7FA00287B
:1044B00001DB002010BD012010BDC04610B500F08A
:1044C000CDFA002801DD002010BD012010BDC0463E
:1044D00010B500F077FA002801DC002010BD0120A3
:1044E00010BDC04610B500F06DFA002801DA0020BA
:1044F00010BD012010BDC046002B11D1002A0FD1E4
:10450000002900D1002802D00021C943081C07B4AB
:10451000024802A14018029003BDC046E9FEFFFF19
:1045200003B4684601B5029800F04CF8019B9E4622
:1045300002B00CBC7047C046F0B515042D0C0F003E
:1045400001002E00C64684460004140C000C090C21
:1045500046434D43604361434019340C241800B571
:10456000A54203D98020400280464144250C6D18A5
:10457000614659437A43300449192404000C201839
:10458000891880BCB846F0BD70B500220C4B040001
:104590000D00FFF76DFF002804D12000290002F074
:1045A000A9F970BD064B00222000290001F0F2FDA0
:1045B00002F0A0F980231B069C466044F1E7C04648
:1045C0000000E041F0B557464E464546DE46E0B5B0
:1045D00004000D009246994683B08B4230D82DD00E
:1045E0004946504602F078FA29000600200002F001
:1045F00073FA331A9846203B9B4633D45A465346A7
:10460000934042461F00534693401E00AF423AD8A3
:10461000AF4200D178E05B46A41BBD41002B00DA1D
:1046200075E0002200230092019301235A46934033
:104630000193012342469340009328E08242CFD960
:1046400000220023009201930C9B002B01D01C60E0
:104650005D600098019903B0F0BCBB46B246A94624
:10466000A046F0BD424620239B1A5246DA404146FE
:1046700013004A468A40170042461F435346934060
:104680001E00AF42C4D9002200230092019343468A
:10469000002BD9D0FB0772081A4346467B080EE070
:1046A000AB4201D1A2420CD8A41A9D410120241989
:1046B0006D410021013E24184D41002E06D0AB4231
:1046C000EED9013E24196D41002EF8D100980199D0
:1046D0005B4600196941002B24DB2B005A464446F7
:1046E000D3402A00E2401C005B461500002B2ADB69
:1046F00026009E40330026004746BE403200801A06
:104700009941009001919FE7A342BCD883E74246BC
:10471000202300219B1A0022009101920122DA40FD
:10472000019286E7424620239B1A2A0046469A4079
:104730002300F340444613432A00E2401C005B463A
:104740001500002BD4DA42462F0020232600974084
:104750009B1ADE403B003343CDE7C046F0B54F46E1
:104760004646D6464502C0B547000C1C6D0A3F0EB2
:10477000C60F002F66D0FF2F6CD00023EA008025E3
:1047800099469A46ED0415437F3F60026100430A53
:104790009846090EE40F002948D0FF2910D0802246
:1047A000D800D2040243904600207F394A463300A5
:1047B0007F1A02436C4992008A586340DBB29746E5
:1047C000002B6DD10220FF3F33E0002398462600E6
:1047D000454682465346022B00D17FE0032B00D191
:1047E00094E0012B17D038007F3000285FDD6B0785
:1047F00004D00F232B40042B00D004352B0103D50C
:1048000038005A4B80301D40FE2867DCAD016D0A30
:10481000C0B202E01E0000200025C0052843F607B4
:104820003043E0BCBA46B146A846F0BD002B2BD1C0
:1048300001204A4633004E49024392008A586340A1
:10484000DBB29746002D13D104239946033B002782
:104850009A469AE7002D05D108239946063BFF2783
:104860009A4692E70C239946093BFF279A468CE724
:10487000280002F013F97627431F9D4000237F4252
:1048800099469A463F1A80E7180002F007F9424617
:10489000431F76219A404942091A9046002085E735
:1048A000FF21032082E71E00FF200025B5E701233A
:1048B0001B1A1B2BAFDC9E372900BD40D9406A1E56
:1048C00095410D436B0704D00F232B40042B00D0E0
:1048D00004356B0144D5012000259EE7FF2000250B
:1048E0009BE780250026FF20ED0396E700239846EE
:1048F0008020C003054209D04346034206D1454605
:1049000005436D022600FF206D0A86E78020C00364
:1049100005436D02FF206D0A7FE741466A014801A9
:10492000824219D21B210025013F012614006D008F
:104930005200002C01DB904201D8121A3543013994
:104940000029F3D1501E824138007F301E001543EC
:10495000002800DD4BE7AAE71A210125121AE4E737
:10496000AD0100206D0A58E7902A0108FFFFFFF70C
:10497000D02A010870B542004E024C0045026D0A73
:10498000120EC30F760A240EC90FFF2A0FD0FF2C78
:1049900011D00120A24200D070BDB542FCD18B42A3
:1049A0000DD0002AF8D12800451EA841F4E70120C7
:1049B000002DF1D1EBE70120002EEDD1E9E7002039
:1049C000EAE7C046F0B5420046024D024C00C30F74
:1049D000760A120E6D0A240EC80FFF2A1FD0FF2C74
:1049E00010D0002A1FD171427141002C01D1002D3D
:1049F0001ED000290ED183421ED00221581E08402D
:104A00000138F0BD002D26D1002AF4D17142714148
:104A10000029F0D00028F4D101204042F1E7002E17
:104A200019D1FF2CEED0002CE5D1002DE3D1E4E725
:104A30000020002EE5D0E0E7A24205DCEADBAE4232
:104A400002D8E7D30020DCE741424141484202213D
:104A500008400138D5E702204042D2E7F0B54200D5
:104A600046024D024C00C30F760A120E6D0A240E48
:104A7000C80FFF2A0DD0FF2C0FD0002A23D171427E
:104A80007141002C0FD1002D0DD10020002E14D02B
:104A90000DE0002E10D1FF2C15D1002D0CD1002AD5
:104AA00003D171427141002908D1834210D0022103
:104AB000581E0840013800E00220F0BD0028FCD15B
:104AC00001204042F9E7002CEFD1002DEDD1EEE7B7
:104AD000A24205DCF2DBAE4202D8EFD30020ECE7C5
:104AE000414241414842022108400138E5E7C046C1
:104AF000F8B557464E464546DE464402E0B5450009
:104B00000F1C640A2D0EC60F002D47D0FF2D4DD06F
:104B1000002380209A469B46E400C00404437F3D66
:104B20007802430A99467A00FB0F9846120E4B46CC
:104B300044D0FF2A11D0D8008023DB0403439946D8
:104B400000207F3AAD18474653467740691C0F2B2B
:104B50003FD8724A9B00D3589F46FF35002B00D0A8
:104B600079E0524602231A4392460220EBE7474679
:104B70004C4683465B46022B28D0032B00D1C6E06F
:104B8000012B4FD100200024C005FF0720433843EC
:104B9000F0BCBB46B246A946A046F8BD002C71D178
:104BA00004239A46033B00259B46B9E7002C63D1BA
:104BB00008239A46063BFF259B46B1E7002B50D1C0
:104BC000524601331A4392460120BCE7FF200024DD
:104BD000DAE74846260C2404220C0404240C4B4635
:104BE00020001B0C504374435A435E431219030CBC
:104BF0009B189C4203D980225202944666440004CA
:104C00001A04000C12189401601E84411B0C920EB1
:104C10009B1914439B011C431B0172D5012063089F
:104C200004401C4308007F3000283CDD630704D0AB
:104C30000F232340042B00D00434230103D58031FB
:104C40000800374B1C40FE28C0DCA401640AC0B237
:104C50009AE737008EE7524603231A439246032011
:104C600071E7484601F01AFF4A46431F9A402D1A41
:104C700091460020763D66E70C239A46093BFF25C6
:104C80009B464DE7200001F009FF7625431F9C401D
:104C900000236D429A469B462D1A41E78024002747
:104CA000FF20E40370E701231B1A1B2B00DD69E7DB
:104CB0009E3120008C40D840631E9C410443630712
:104CC00004D00F232340042B00D0043463011AD5F1
:104CD0000120002458E78020C003044209D04B463D
:104CE000034206D14C46044364024746FF20640A4F
:104CF0004AE78020C003044364023700FF20640AAF
:104D000042E729008EE7A4010020640A3CE78020E6
:104D1000C00304436402FF20640A35E7102B010836
:104D2000FFFFFFF741024200C30F490A0020120EA5
:104D30007E2A03D99D2A02D9094A981870478020F3
:104D400000040143952A07DC9620821AD14048428C
:104D5000002BF3D10800F1E7963A9140F7E7C046FF
:104D6000FFFFFF7F70B5051E0ED001F097FE9E235A
:104D700004001B1A962B0CDC082801DD083CA5401A
:104D80006D026D0AD8B201E000200025C00528435D
:104D900070BD992B09DD020029001B3291404A1E8B
:104DA00091410522121AD5400D43052C01DD621FE9
:104DB00095402900084E31406A0709D00F2028404D
:104DC000042805D004314A0102D59F2331401B1B22
:104DD00089014D0AD8B2D9E7FFFFFFFBF0B54F4676
:104DE000D64646460D0001001800C0B517002B033B
:104DF0005A0A4B0F1343CA00914602036E0041004A
:104E0000520AEC0F7D0F1543760D490DC00F8246F7
:104E1000AC46FF00721A844200D198E0002A00DC00
:104E200081E0002900D1B6E0C9498E4200D172E18B
:104E300080212800090408438446382A00DD5EE109
:104E40001F2A00DDEEE1202039006546801A8740E8
:104E5000D14085400D4339004F1EB9416746D740C8
:104E60002943DB1B4A46551AA945894149425B1A29
:104E7000984643461B0200D4CCE043465B025B0AE3
:104E800098464346002B00D12CE1404601F006FE37
:104E900001000839202228004346521A8B40D04096
:104EA0008D4003438E4200DD17E18E1B721C1F2ACA
:104EB00000DDA7E1202118002E00891A8D408840CE
:104EC000D640D340691E8D413043984600260543A5
:104ED0006B0709D00F232B40042B05D02B1DAB42B1
:104EE000AD416D42A8441D0043461B0200D494E02E
:104EF000974B721C9A4200D19DE04146954BED08BC
:104F000019400B00520549075B0229431B0B520D48
:104F100012051343E407234308001900E0BCBA4616
:104F2000B146A846F0BD002A43D08A1B002E00D00F
:104F30002AE14C461C4300D1D1E1541E012A00D184
:104F40001FE2834DAA4200D172E2220023E1002A2F
:104F500000DC98E0002942D07D498E4200D1DAE0A1
:104F600080212800090408438446382A00DD29E10D
:104F70001F2A00DC87E1110065462039CD40202A38
:104F800004D040206146821A91400F4339004F1EE1
:104F9000B9410D431BE12900394300D1B5E0511E51
:104FA000012A00D1ABE16A48824200D1B2E10A0095
:104FB00043E76949751C0D4200D0CFE0002E00D0B8
:104FC00093E14946194300D1D1E16146394300D00C
:104FD000E3E149465807C9080143DB0826E02900F8
:104FE000394300D191E0511E012A05D05848824230
:104FF00000D18FE10A00B8E73D004D444D4589419D
:105000006344984649428844434602261B0200D521
:10501000EBE0013E6B0700D05CE74346E9085A0726
:1050200011433200DB084A48824221D01B0352055B
:105030001B0B520D6CE70023002169E72A003A435D
:1050400069D04A465807D108DA0880231B03084371
:105050001A4207D02900ED081D4203D12A00FF089B
:1050600048073843430FC1005B07C90819431300C1
:105070000A001A4300D113E28022120313431B03D8
:10508000334A1B0B44E7002A4BD08A1B002E00D169
:10509000E7E02F48814200D195E1802000040343DE
:1050A000382A00DD43E11F2A00DDDBE120201D005E
:1050B0004E46801A8540D64035434E4686403000E5
:1050C000D340461EB0419C440543ED19BD429B416F
:1050D0005B42634498460E007FE01E4A761A1340F6
:1050E0009846F5E6280001F0D9FC010018311F2987
:1050F00000DCCFE62B00083883400025D2E662466C
:105100003A4311004F1EB941ACE649465807C90859
:105110000143DB0887E749465A07C9081143DB0802
:10512000A6E70D49701C084200D0BBE0002E00D05D
:1051300014E14946194300D175E12900394300D0F3
:105140007EE149465807C9080143DB086EE7C046BF
:10515000FF070000FFFF7FFFFE0700004946CD1B51
:105160006146581AA945894149428846010040468E
:10517000091A8846090200D5A6E04146294300D015
:105180007FE60023002451E7C74CA14200D1C7E0CD
:10519000802424042343382A54DC1F2A00DDCCE079
:1051A00020244846A41A1D004E46A040D640A540E3
:1051B0000400D34062463543661EB441D31A9C4670
:1051C000254344E062463A4315006F1EBD414D44FD
:1051D0004D45894149428846984443461B0200D4C4
:1051E00018E7B14B01369E4249D04246AF4B0121F0
:1051F0001A4013006A080D401543D9075B0898460A
:105200000D4365E618001F3EF040202A03D04021E0
:105210008A1A93401D43691E8D410023002698463B
:105220000543F7E6110065462039CD40202A04D019
:1052300040206146821A91400F4339004F1EB94108
:1052400029430FE64A4613431D006B1E9D417D1BFB
:10525000AF429B4162465B42D31A984654460E00C9
:1052600007E64846184300D1B3E0501E012A00D19A
:105270000DE18D4DAA4200D1A5E0020010E73200F9
:105280000023002144E620213800891A65468F401A
:105290008D40D040791E8F4105433D436746D7403E
:1052A000DB1994E7804A904200D1ECE03900494490
:1052B00049459241634452429B18DD0749085B0807
:1052C000984606000D43A5E64A46BD1AAF428941FD
:1052D00062464942D31A5B1A98465446D1E56C0798
:1052E000F9082143EB0804009DE64A461A4375D1AC
:1052F0006146394314D1802300241B03BCE64A468F
:10530000D51BA9458941624649429B1A5B1A9846BA
:105310000126AEE54A46D1085A071143DB08A7E645
:105320006346F9085A0754461143DB08A0E64A468B
:1053300013431D006B1E9D41C7E614001E00203C58
:10534000E640202A05D04024A21A93404A461A4338
:1053500091464D466B1E9D41354378E74A461A43B8
:1053600000D06BE66B07F9081943EB0880E661464D
:10537000394354D06346F9085C072143DB08040035
:1053800054E64A46BD1AAF42894162464942D31AA1
:105390005B1A9846040001266BE54A46D51BA945D1
:1053A0008941624649429A1A521A9046120232D5EF
:1053B0004A46BD1AAF42894162464942D31A5B1A36
:1053C0009846040084E56346F9085A071143DB0850
:1053D0004EE6F90868070143EB0824E662463A43C3
:1053E00000D198E64A46D1085A071143DA088023CB
:1053F0001B031A4208D06046C5081D4204D154461A
:105400002A00F908430719434B0FC9005B07C90875
:10541000194313002CE64146294300D0FAE5002346
:105420000A00002402E66B07F9081943EB08FDE5C2
:105430006346F9085B07194363460400DB0817E677
:105440003D004D4463444D45894198464942884456
:1054500043461B0200D4DDE54246144B01261A40A8
:105460009046D7E510001E002038C640202A05D0FF
:105470004020821A93404A461A4391464D466B1E7D
:105480009D41354321E602000023002140E54A46C4
:10549000D519BD4289416344984649428844B3E5E1
:1054A0000021014A0B0033E5FF070000FFFF7FFFEB
:1054B000F0B557464E464546DE46E0B58146050006
:1054C0000C03480092461F0085B0240B400DCE0F00
:1054D000002859D0874B984200D198E06B0FE40028
:1054E0001C4380231B0423439846834BED009B46BB
:1054F00000239946834400933C037B005046240BD1
:105500005B0DFF0F002B67D07A4A934218D07A497F
:10551000420F8C46E400594614438022634412042F
:10552000CB1A14439B46C200002033007B409A46AE
:105530004B460F2B00D9EFE070499B00CB589F469C
:105540006F4B52469C462243E344002A00D095E02C
:10555000494602231943894600240220E5E7002337
:105560000024002552461B052343D207134328007D
:10557000190005B0F0BCBB46B246A946A046F0BD36
:10558000002400255B4BEDE74B462343984600D1B2
:1055900089E0002C00D1E0E1200001F07FFA010059
:1055A00002000B391D235B1A49461000D940083808
:1055B00084400B004D4623439846854051483C03A8
:1055C000831A9B460023994600937B005046240B88
:1055D0005B0DFF0F002B97D15246224355D0002C74
:1055E00000D1CAE1200001F059FA02000B3A1D2354
:1055F00001009B1A52460839DA408C401443524647
:105600008A40414B58449B46834400208DE74B46DB
:105610002343984640D108239946063B00258346FC
:10562000009369E7B246009B022BA9D0032B00D15F
:1056300011E2012B93D0354A5A44002A00DC3CE1A8
:105640006B0700D0A7E1ED084346DB0106D54246D3
:105650002F4B1A4090468022D2005A442D4B9A423A
:105660008EDC4346520558075C020543240B530D5C
:1056700078E7BA46A04615000090D4E74A460323CF
:105680001A439146032052464FE7494601231943E6
:1056900089460024012048E70C239946093BA0468F
:1056A0008346009328E70423994600239B46013351
:1056B0000025009320E7002380249A4600250D4B07
:1056C00024034FE7802341461B03194208D01C42A4
:1056D00006D11C432403BA461500064B240B41E7B0
:1056E0008024434624031C432403B246014B240B6D
:1056F00038E7C046FF07000001FCFFFF502B010800
:1057000001F8FFFF0DFCFFFFF3030000FF030000A3
:10571000FFFFFFFEFE070000444500D216E100D166
:1057200011E101235B429C462E0040460025E344E4
:105730002302140E1C431B0C994623041F0C120257
:10574000494600920197FEF76FFD02007A430B0471
:10575000310C804619438A420BD901235B429C4697
:105760000919E0448C4204D88A4202D9831E984623
:105770000919881A4946FEF757FD09048C46310479
:105780006646019A090C4243030031438A4204D918
:105790000919013B8C4200D811E1891A4246009E4A
:1057A00012041A43330C1F00100C9046029313048A
:1057B0003204160C32001B0C5A4303967B434643BB
:1057C0007843170CBC469B1963449E4203D980263C
:1057D0007602B44660441E0C301816041B04360CC6
:1057E0009E19814200D29CE000D197E0AE1B091ABD
:1057F000B54280414042081A844200D111E1494635
:10580000FEF712FD019A0B044243310C05001943C7
:105810008A4207D90919013D8C4203D88A4201D92D
:10582000851E0919881A4946FEF7FEFC09048C46B4
:1058300031046646019A090C4243030031438A420F
:1058400007D90919013B8C4203D88A4201D9831E2A
:105850000919039E891A32002D041D43029F2B044F
:105860001B0C5A437B439C46280C4643130CB44400
:10587000634478439E4203D980267602B44660444E
:105880001E0C12041B04120C30189B18814206D304
:1058900002D001231D43CEE6002B00D1CBE66118D8
:1058A0006E1EA14200D2A4E0814200D2C9E000D124
:1058B000D9E03500EDE701256D420121891A38292B
:1058C00000DD4CE61F2900DC7FE01F235B429A1AB3
:1058D0004346D340202904D04446654A5A44944064
:1058E00025436A1E954107222B43150000241D40C5
:1058F0001A4200D1A1E00F2200241A40042A00D14C
:1059000098E01A1D9A429B415B42E4181300220260
:1059100000D48FE001230024002523E6B54200D304
:1059200064E743465A1E009B9C4665441F009D4207
:105930009B415B421B19C9188C423AD2884263D8FA
:1059400060D0904652E7AA4200D9EAE64346DE0715
:1059500058086B081E43ED07EAE6484601F09EF83A
:1059600001000200153120321C2900DC1AE64B46EA
:10597000083883400025984620E601F08FF80300A0
:105980001A00153220301C2A00DC30E65446083B51
:1059900000229C4035E60F232B40042B00D152E619
:1059A00005235B42AB429B4104355B42ED089844C2
:1059B0004AE68C42C5D1AF42C0D9904616E78A422A
:1059C00000D8EAE6831E0919E7E62A4A28005A4465
:1059D000434695409340C8406A1E95414446034360
:1059E0002B43CC405A0792D00F221A40042A88D168
:1059F0008DE73500814200D04BE7009A934200D0FA
:105A000047E718E6AE429CD902235B429C46009BC6
:105A1000E0449C4665449D429B415B421B19C9186A
:105A2000E4E6154A5A44002A00DC44E70123002535
:105A3000984409E665076402240BDB081D43002334
:105A400090E5009E023D7200B242BF417F423C1988
:105A500009190092CEE78024434624031C43240303
:105A6000064B240B7EE5009A9A42EAD33500C4E740
:105A70003E0400001E040000FF030000FF070000BA
:105A8000F0B54F464646D646944691461A03120B49
:105A9000184DC0B54C000F0392465A0006008046D0
:105AA0003F0B0120640DC90F520DDB0FAC420AD031
:105AB000AA4203D0944201D157450DD0E0BCBA466A
:105AC000B146A846F0BD3D003543F7D1A242F5D11D
:105AD000524665462A43F1D10120C845EED199428C
:105AE00006D0002CEAD13E433000461EB041E5E727
:105AF0000020E3E7FF070000F0B54E464546574655
:105B0000DE4604001800E0B516001B031B0B324DE7
:105B10000F034A0099464300A446B0463F0B520D7E
:105B2000C90F5B0DC00FAA4229D0AB4218D0002A82
:105B30002AD13C43A34665426541002B02D14C4625
:105B4000264327D0002D15D1814228D002200139CB
:105B500008400138F0BCBB46B246A946A046F0BD9D
:105B60004D462E432FD1002AEED13C43654265417C
:105B7000002DE9D00028EDD101204042EAE73D00A8
:105B8000254320D19342EBD0002BDDD14C46264358
:105B9000DAD1DBE75B460020002BDBD0D6E79A4268
:105BA0000ADCE7DB4F45D1D810D000204F45D1D2D9
:105BB0000029E1D00800CDE743425841022340428A
:105BC00018400138C6E702204042C3E7C445BDD8AB
:105BD0000020C445BED2EBE7FF070000F0B54E46FB
:105BE00045465746DE4604001800E0B516001B0384
:105BF0001B0B314D0F034A0099464300A446B046A3
:105C00003F0B520DC90F5B0DC00FAA4211D0AB4222
:105C100014D0002A2FD13C43A34665426541002B96
:105C200014D14C46264311D15B460020002B17D0DF
:105C300010E03D00254312D193421CD14D462E4326
:105C40000DD1002A04D13C4365426541002D0DD1A0
:105C5000814216D0022001390840013800E00220BC
:105C6000F0BCBB46B246A946A046F0BD0028F7D11D
:105C700001204042F4E7002BEAD14C462643E7D10D
:105C8000E8E79A4206DD4342584102234042184069
:105C90000138E5E79A42E9DB4F45DBD806D0002022
:105CA0004F45DDD20029E3D00800D9E7C445D1D85B
:105CB0000020C445D4D2F5E7FF070000F0B55746F1
:105CC0004E464546DE46E0B598460C034B000600BE
:105CD000924687B0240B5B0DCF0F002B6CD0DD4AB2
:105CE000934200D186E0420FE40014438022120464
:105CF0001443D94AC500944663440093002399464F
:105D00009B46434642461E03D20F5B0050469046D8
:105D1000360B5B0D00D178E0CE4A93421DD0CE49C0
:105D2000420F8C4600996344F6008C46164380224D
:105D30009C44120463461643C2000020009300995D
:105D4000434601318C4649467B4001930F2900D9D7
:105D50007EE0C24B890059588F465246009B324321
:105D600000D056E1BB4900268C4663444946009367
:105D70000223194389460220E1E743460193340098
:105D8000150083465B46022B5ED0032B00D1F3E166
:105D9000012B00D018E1002200240025019B1205F0
:105DA0002243DB071A432800110007B0F0BCBB46B2
:105DB000B246A946A046F0BD2500054300D141E109
:105DC000002C00D1ADE1200000F068FE01000200CF
:105DD0000B391D2310005B1A310035000838844050
:105DE000D94085400C439E48831A0093002399466E
:105DF0009B4686E70500254300D01CE1082200935E
:105E00000223002491469B467BE75246324300D151
:105E10000AE1002E00D176E1300000F03FFE0200E2
:105E20000B3A1D2301009B1A52460839DA408E4076
:105E3000164352468A40009B8949181A03008C4633
:105E40006344002000937AE700240025814AA5E7F7
:105E50002F0C2D042D0C2B00110C1204120C53438B
:105E60009846130028007B4399464843484483469C
:105E700040460B00000C824658467B435044029338
:105E8000814506D99A4680235B029946CA44534607
:105E90000293030C9B4643461B0400041B0C9846CC
:105EA000030043440493330C99462B003604360C0C
:105EB0007343984633007B439A464B465D435F43AA
:105EC00043465544180C4019824503D980235B0290
:105ED0009A465744050CEB19059343461D042D0CB7
:105EE00000044019250C2404240C270057436A435E
:105EF00090462A003B0C9A464A4361434144514430
:105F00008344884503D980235B02984642443F047A
:105F10000B0C3F0C0904C919270098464B467743E0
:105F20005C436E435D433B0C9946A4194C44424488
:105F30000395A64204D980235B0298464544039505
:105F4000029B3F045B441E00834280412304984629
:105F5000059B3F0C4744984676188E42894147443A
:105F600040423D18A846934649428A46C3449F4250
:105F7000BF4180458041039BDA44984653464042E6
:105F80007F420743240C934592418A4589413F193A
:105F9000DC0D049B75021D43681E85415346524229
:105FA00049420A43BF184744F60D7F0235435A025F
:105FB0003C431543FB0100D4C1E001216A080D40B8
:105FC0001543E2071543640826496144002956DD5C
:105FD0006B0709D00F222A40042A05D02A1DAA42A5
:105FE000AD416D4264191500E30104D580211E4ABC
:105FF000C900144061441D4A914200DD24E7620754
:10600000ED08640249051543240B4A0DC6E60197C5
:10601000B8E6104A0320944663444A46009303239B
:106020001A43914652468AE6494601231943894656
:106030000026012083E60C220093032305009146ED
:106040009B465EE604239946002300930133002417
:106050009B4656E6FF07000001FCFFFF902B01085E
:106060000DFCFFFFFF030000FFFFFFFEFE07000027
:10607000002380240025444A019324038EE6012056
:10608000401A382800DD86E61F285BDD1F2223002A
:106090005242511ACB401900202803D03B4A624497
:1060A000944025436A1E95412A000A4307210D00AA
:1060B0000024154011425BD00F2100241140042917
:1060C00053D0111D914292415242A4180A0023025A
:1060D0004BD501220024002560E680231B031C42CF
:1060E00009D01E4207D133431C0343461500240B3D
:1060F000254A019352E68022120314432403224AC4
:10610000240B01974AE600F0C9FC03001A0015327F
:1061100020301C2A00DC84E65646083B00229E40C4
:1061200089E600F0BBFC01000200153120321C2979
:1061300000DC4EE6340008380025844053E6009B1E
:106140009C4641E71249220061442E008D408A405E
:10615000C640691E8D4132432A43C4405307B6D01E
:106160000F2111400429ACD1B1E765076402240B6B
:10617000D2081543002211E680221203144324039F
:10618000014A240B0AE6C046FF0700003E04000057
:106190001E040000F8B557464E464546DE4604004C
:1061A000E0B51F0010000B03620F4E00CD0F5B0A1D
:1061B00039031343490AE200440F2143C24C91467C
:1061C0009246C0007A008046760D520DFF0FA24223
:1061D00000D1B4E001246740BB46BD4200D188E055
:1061E000B41AA446002C00DCB2E0002A00D1C5E0BD
:1061F000B54A964200D18BE28022120411436246D6
:10620000382A00DDA1E11F2A00DD16E220270C005C
:10621000BF1ABC400200A0466446B840E240444673
:1062200014430200501E82416046C14022435B1A63
:1062300049468C1AA145924152429B1A98464346C0
:106240001B0200D417E143465B025B0A98464346B3
:10625000002B00D16CE1404600F020FC0200083A1F
:10626000202120004346891A9340C84094400343AC
:10627000964200DD57E1961B711C1F2900DDCBE122
:10628000202218002600521A94409040CE40CB4065
:10629000621E94413043984600260443630709D0A8
:1062A0000F232340042B05D0231DA342A4416442A5
:1062B000A0441C0043461B0200D4DFE0824B0136A1
:1062C0009E4200D1FBE04246804BE4081A40130096
:1062D000710552075B0222431B0B490D0905ED07AF
:1062E000194329431000F0BCBB46B246A946A0465C
:1062F000F8BDB41AA446002C58DD002A00D19EE057
:10630000714A964200D13BE1802212041143624659
:10631000382A00DDC1E01F2A00DCBBE10C00203A76
:10632000D44022006446202C04D040273F1BB940B3
:10633000084380464446611E8C411443B1E00C0082
:1063400004432AD0BB46BD422DD0614CA446B44480
:106350006446002C5CD0941BA446002E00D015E1AE
:106360004D461D4300D1C3E1651E012C00D10CE256
:10637000554EB44200D1F8E1AC460EE10A000243AA
:1063800000D136E12200013A012C00D1C6E14E4C89
:10639000A44500D1F4E0944631E701246740BB46B0
:1063A000BD4200D01CE74A4CA446B4446446002CCD
:1063B00000D1CFE0941BA446002E00D15CE1424EF8
:1063C000B24200D1ECE18026360433436446382CD7
:1063D00000DDB3E11F2C00DD38E22026361B1C0057
:1063E000B4404F46A0466446E74044463C434F46CF
:1063F000B7403E00771EBE4134436646F340C9189D
:10640000241884429B415B429846160088444EE023
:10641000304A741C144200D0D6E04A461A43002E7B
:1064200000D05BE1002A00D1A5E10A00024300D0C0
:10643000BBE14A465907D2080A43DB0827E00A00B5
:10644000024300D174E12200013A012C05D01E4C18
:10645000A44500D194E0944659E748444845924108
:106460005B189846040052429044434602261B02A1
:1064700000D5C4E0013E630700D011E74346B446AF
:106480005907E2080A43DB080F498C4540D06146B2
:106490001B0349051B0B490D20E701430C00611E3E
:1064A0008C414C444C45924152429046984443465C
:1064B0001B02E0D5044B01369E4200D09FE0310024
:1064C000002300220AE7C046FF070000FFFF7FFF0E
:1064D00001F8FFFFFE070000002A00D160E10A007A
:1064E00002434DD04A465C07D20822438024DB0891
:1064F0002403234207D0CE08264204D15D46330050
:10650000C20849070A43510FD200D20849070A437B
:106510001100194300D1C8E1802109030B431B037B
:10652000D5491B0BDAE6D549B61A0B409846B5E6B5
:10653000200000F0B3FA020018321F2A00DC8FE6B8
:10654000230008388340002492E608430200501ECE
:1065500082416DE6CA4C721C224200D0ADE04A4630
:106560001A43002EB8D1002A00D158E10A00024394
:1065700000D059E14A465907D2080A43DB0886E7AA
:106580004A465907D2080A43DB08C1E7BA4DAA4276
:1065900000D11EE180252D042B436446382C5DDCA0
:1065A0001F2C00DDD0E0202567462D1B4E461C0029
:1065B000FE40AC4034434E46AE403500FB406E1EBC
:1065C000B541C91A2C434EE04A46141AA1459241DE
:1065D000524290465F1A3A004746D21B904612023A
:1065E00000D58BE04246224300D030E60023002550
:1065F0004DE74A465907D2080A43DB0844E74246BA
:106600009E4B61081A401300012214400C43DA0724
:106610005B089846144341E61A001F3EF2401600FC
:10662000202903D04022511A8B401C43621E944102
:1066300000233443984600261DE70C00203AD4403E
:1066400022006446202C04D040273F1BB940084359
:1066500080464446611E8C412243E9E54C46234373
:106660001C00631E9C41041BA0429B415B42CB1A51
:1066700098465D461600E2E54E461E4300D1AEE068
:10668000661E012C00D1FDE07B4FBC4200D107E12A
:10669000B4469BE664462022121B0C00944007007F
:1066A0009040A0466446421E90416246E740444600
:1066B000D1403C4304435B18F3E66F4CA24200D147
:1066C000D5E048445B184845894149425B18DC07DE
:1066D00040085B08984616000443CCE6002A00D028
:1066E00082E00A00024340D1802300251B0313E708
:1066F0004B07C2081A435D46CB08C5E64A46841AD2
:10670000A0429241CB1A52429B1A98465D469EE5A2
:106710004A465907D2080A43DB08F9E64A46141AE2
:10672000A14592415B1A52429B1A9846012686E582
:106730004A465907D2080A43DB08A5E64C462343DC
:106740001C00631E9C415BE665461E00203DEE403A
:10675000202C05D040252D1BAB404C461C43A246A7
:106760005446631E9C4134437DE74B07C2081A43DD
:106770005D46CB08CCE60A00024300D136E74B0762
:10678000C2081A435D46CB0881E64A46841AA042F5
:106790009241CB1A52429B1A98465D4601264EE51D
:1067A0004B07C2081A43CB08B2E64A46141AA14561
:1067B00092415F1A5242BA1A904612026BD54A466B
:1067C000841AA0429241CB1A52429B1A98465D46C7
:1067D00064E54B07C2081A435D46CB0898E64B07B1
:1067E000C2081A43CB084FE60A00024390D04A463B
:1067F0005C07D20814438022DB081203134208D03E
:10680000CE08164205D1C0084907084304005D467A
:106810003300610FE2004907D2080A4378E64B07CC
:10682000C2081A43CB0832E648445B1848459241F7
:10683000984652429044434604001B0200D41AE694
:1068400042460E4B01261A40904614E666461F004B
:10685000203EF740202C05D04026361BB3404C4646
:106860001C43A2465446631E9C413C43C8E51100AC
:106870000023002232E5C046FF070000FFFF7FFF34
:10688000FE0700004A461418844292415B1898465D
:1068900052429044E9E54246224300D1A6E6EAE5A9
:1068A0004B07C2081A43CB0832E600220149130005
:1068B00014E5C046FF07000070B505000C480C0346
:1068C000160049001A035B00240B490D120B5B0DE7
:1068D000814208D0064900208B4203D13243100088
:1068E000421E904170BD01202C43FBD1F2E7C0460F
:1068F000FF0700000A0030B5134C530009030500E0
:10690000090B00205B0DD20FA34204DD0F48834228
:1069100002DD0F4BD01830BD8020400301430D48ED
:10692000C01A1F2808DD0C48C31AD9400B00584272
:10693000002AF0D11800EEE7084CC540A446634495
:1069400099400B002B43F2E7FE0300001D040000FA
:10695000FFFFFF7F3304000013040000EDFBFFFF87
:1069600070B5002816D0C317C5185D40C40F2800A5
:1069700000F094F8114A121A0A2816DC03002E00BF
:1069800015339E400B23181AC54053052D032D0BBC
:106990005B0D03E000240023002500261B052B438C
:1069A000E40723433000190070BD0B3885405305C0
:1069B0002D0300262D0B5B0DF0E7C0461E040000E2
:1069C00010B5041E10D000F069F80F4B1B1A0A28EE
:1069D00011DC0B222100121AD14015300A035B058D
:1069E0008440120B5B0D01E0002300221B051343C2
:1069F0002000190010BD22000B3882405B051203F5
:106A00000024120B5B0DF1E71E04000070B543007B
:106A10004602C40FFE201B0E591C750A08420CD0FA
:106A2000E022920094466D07360B63441B05334306
:106A3000E40723432800190070BD002B14D1002D5A
:106A40001BD0280000F02AF80A281CDC0B232A009F
:106A50001B1ADA40030015339D400E4B12031B1A1C
:106A60005B05160B5B0DE1E7002D09D0320B80268C
:106A70003603094B6D071643D8E700230026D5E7F8
:106A80000026054BD2E703002A000B3B9A40002565
:106A9000E3E7C04689030000FF0700001C21012333
:106AA0001B04984201D3000C10391B0A984201D3F1
:106AB000000A08391B09984201D30009043902A2CF
:106AC000105C40187047C046040302020101010136
:106AD000000000000000000010B5002903D1FFF7FE
:106AE000DDFF203002E0081CFFF7D8FF10BDC046D4
:106AF00010B5054A13780549040ACC540133DBB2BA
:106B0000C8540133137010BD70010020080100202B
:106B100030B5114B1D78281AC4B2FF230FE05B007B
:106B200031204340DBB2013AD2B2002A05D058B23C
:106B30000028F4DB5B00DBB2F5E70134E4B28C4201
:106B400004D2064A125D53400822EEE7034A535529
:106B50000135014B1D7030BD70010020080100207F
:106B600000B583B002000B0014210091AE3109483A
:106B700008F09AFD002801D103B000BD054808F0D7
:106B800007FF0428F8D098214900034804F02EFD9F
:106B9000F2E7C04620010020D02B010810B5084CB8
:106BA0000023237082204000FFF7A2FF21780548D0
:106BB000FFF7D6FF08F022F8034B186010BDC0465F
:106BC00070010020080100207401002010B5094C5C
:106BD000002323701020FFF78BFF0020FFF788FFB2
:106BE00004210220FFF794FF21780348FFF7B8FF44
:106BF00010BDC046700100200801002070B50400DF
:106C0000094D00232B708C20C001FFF771FF20007D
:106C1000FFF76EFF04210220FFF77AFF297803486F
:106C2000FFF79EFF70BDC0467001002008010020E4
:106C300000B583B002000B0014210091AF31094868
:106C400008F0ECFD002801D103B000BD054808F0B4
:106C50009FFE0428F8D04221FF31034804F0C6FC0F
:106C6000F2E7C04620010020D02B010810B50A4CE5
:106C7000002323700948FFF73BFF21780848FFF7FE
:106C80006FFF084C03212000FFF7D2FF23781B027F
:106C90006078184310BDC046700100200202000059
:106CA00008010020F4000020F8B507000E001500D0
:106CB000184C00232370C0208000FFF719FF2178B3
:106CC0001548FFF74DFF154C12212000FFF7B0FFCC
:106CD00023781B06627812041343E27812021343EE
:106CE000227913433B60A3791B06E2791204134314
:106CF000627A12021343A27A13433360237B1B068A
:106D0000627B12041343E27B12021343227C13437F
:106D10002B60F8BD7001002008010020F400002065
:106D200010B51B481B4B03601B4B43600023836063
:106D30000122C260036143618361C361036208F0A1
:106D40004DFC002815D10021114808F023FE002831
:106D500014D100210E4808F049FE002813D1002369
:106D60000E4A13700E4A137007F048FF0D4B18605F
:106D700010BD3C210C4804F039FCE4E742210A48EC
:106D800004F034FCE5E74821074804F02FFCE6E76F
:106D900020010020007800406D3D3000710100208E
:106DA0007201002074010020D02B010810B50128C9
:106DB00015D002280BD0002801D0002010BD1149A9
:106DC000114B1868FDF794FEFDF7ACFFF6E70D498F
:106DD0000E4B1868FDF78CFEFDF7A4FFEEE70C4B99
:106DE0001C688021C905201CFDF768FB002807D11D
:106DF0000449201CFDF77CFEFDF794FFC838DDE751
:106E00000020DBE70000C8421C0100206C010020CC
:106E10007801002010B500210648FFF7A1FE0220EE
:106E2000FFF7ECFEFFF7D2FE07F0E8FE024B18601A
:106E300010BDC046080100207401002010B507F005
:106E4000DDFE314B1B68C01AFA23DB00984203D9E0
:106E50002E4B1B78002B19D007F0D0FE2A4B1B6855
:106E6000C01AFA239B00984203D9284B1B78012BA8
:106E700012D0274B1B78002B03D1244B1B78012BFE
:106E80001ED0234B1B78012B2BD010BDFFF7C2FF68
:106E90001E4B01221A70DFE71D4B1B78002BE8D137
:106EA000FFF7E4FEC0B2012804D007F0A7FE164B9E
:106EB0001860DEE7174A18491848FFF7F5FEF4E7AF
:106EC00002F0AAFC0028DCD1FFF768FE0023134A79
:106ED0001360114A13600F4A13600D4B01221A70A0
:106EE000CFE70A4B1B78012BCFD102F095FC01288C
:106EF000CBD1FFF76BFE07F081FE034B1860044B0C
:106F000000221A70C1E7C046740100207101002000
:106F1000720100206C010020780100201C0100207B
:106F20000378002B06D0013013700132F8E70131ED
:106F3000137001320B78002BF9D11370704770B5C4
:106F400000249C4205D21519065D4E550134E4B269
:106F5000F7E770BDF0B583B007000D001600002400
:106F6000B4420FD23A5D084901A809F01DFF630041
:106F70006A461279EA5401336A465179E954013478
:106F8000E4B2EDE703B0F0BDE42B0108F0B5D6465E
:106F90004F464646C0B582B004000190884607F0CF
:106FA0002DFE2E4B18602E4B00221A802300002548
:106FB00002E00135ADB213005A1C1E78002EF8D144
:106FC000022706E0264B1B889946AB4233D207F0D6
:106FD000FDFC07F013FE214B1B68C01A404536D25A
:106FE000002E34D101F0FAFC0028F0D11C4B994658
:106FF0001B889A4601334A46138001F0FDFC194B69
:10700000524698544B461B88632BDBD9144B002205
:107010001A80D7E701339BB210009D4208D95A1855
:10702000104CA45C421C00788442F3D00096F1E737
:107030000137BFB2009E39004B465B1B9F42C6DC46
:10704000002EC4D10198002301220092E5E7300010
:1070500002B0E0BCBA46B146A846F0BD1802002016
:10706000160200208001002010B5040007F0C6FDC4
:10707000064B186007F0C2FD044B1B68C01AA04203
:1070800002D207F0A3FCF5E710BDC0461C020020A9
:1070900010B504000A20FFF7E7FF01F067FD01F0DB
:1070A0006FFD200001F080FD10BD70B504000D00E3
:1070B0000A20FFF7D9FF01F059FD01F061FD290019
:1070C000200001F0A1FD70BD10B598B004001D2393
:1070D000002269460B48FFF732FF102210A920005A
:1070E000FFF738FF20231D22694610A8FFF727FF6E
:1070F0003D216846FFF7D9FF64210348FFF746FFAB
:1071000018B010BDEC2B01080C2C010870B58025BF
:107110006D00094C00222900200008F018F9052014
:10712000FFF7A2FF01222900200008F010F903490F
:107130000348FFF72BFF70BD0004005088130000C8
:107140000C2C010870B51048FFF7A2FF32210F4840
:10715000FFF71CFF002800D070BD80252D02A02461
:10716000E40500222900200008F0F1F80520FFF7CF
:107170007BFF01222900200008F0E9F804490348B8
:10718000FFF704FFE8E7C046102C01080C2C0108AB
:107190008813000010B5084C2000FFF779FF32205B
:1071A000FFF762FF2000FFF773FF3220FFF75CFF5D
:1071B0000248FFF76DFF10BD142C0108242C0108B4
:1071C000014B18787047C0467E01002070B58EB024
:1071D000214C2000FFF75CFF3220FFF745FF200025
:1071E000FFF756FF3220FFF73FFF1C4C01AA21009A
:1071F0001B48FFF795FE01A8FFF74AFF01AA2100EF
:107200001848FFF78DFE3C2101A8FFF7BFFE0500DF
:107210000600012802D000200EB070BD322007F019
:10722000F3FC1148FFF734FFC82149000F48FFF76E
:10723000ADFE041E03D02800EEE70134E4B2092CB1
:10724000EAD80028E8D1C82149000848FFF79EFE87
:107250000028F2D03000F0E7142C01089F2A00200B
:10726000382C0108442C0108542C01080C2C01086E
:1072700070B504000F4D00232B70FFF763FF0E4E17
:107280003000FFF705FF3220FFF7EEFE3000FFF77A
:10729000FFFE3220FFF7E8FE084E320021000848CA
:1072A000FFF73EFE3000FFF7F3FE0123054A13709F
:1072B0002B7070BD7E010020142C0108E401002019
:1072C000682C01087C01002010B50448FFF7E0FE9F
:1072D00064210348FFF75AFE10BDC046742C010814
:1072E0000C2C010810B5FFF72DFF10BD30B591B083
:1072F000041E6ED009236A4613705370534BA822A4
:107300009A5C69468A70A9229A5CCA70AA229A5C21
:107310000A71AB229A5C4A71AC229A5C8A71AD22E6
:107320009A5CCA71AE229A5C0A72AF229B5C4B7265
:107330004748FFF7ADFE32214648FFF727FE0028F9
:107340002AD00025444B01221A704448FFF7A0FEC2
:107350000923002208A94248FFF7F1FD0A2203A9E8
:107360006846FFF7F7FD1423092208A903A8FFF7D1
:10737000E6FD0024042C13D81D2108A8FFF795FE74
:1073800064213448FFF702FE012809D03220FFF7BC
:107390006BFE0134E4B2EDE7FFF7A4FF0125D1E76E
:1073A0009620FFF761FE2F4B1B78012B04D0012D97
:1073B0004AD1FFF789FF47E02B4C22002B492C488C
:1073C000FFF7AEFD2000FFF763FE9620FFF74CFEAF
:1073D000EDE7284B1A8869460A809B788B70264D0A
:1073E0002800FFF755FE3220FFF73EFE2800FFF78A
:1073F0004FFE3220FFF738FE174B00221A70092388
:1074000008A91748FFF79BFD032203A96846FFF769
:10741000A1FD0623092208A903A8FFF790FD042C6B
:107420000FD80F2108A8FFF740FE64210948FFF795
:10743000ADFD012805D03220FFF716FE0134E4B27D
:10744000EDE70A20FFF710FE11B030BDD82900206B
:10745000102C01080C2C01087D0100207C2C010857
:10746000882C01087E010020E4010020802A0020F1
:10747000682C0108942C0108142C010810B58EB05A
:107480006A4B00221A70FFF741FEFFF75BFE684867
:10749000FFF7FEFD3220FFF7E7FD6648FFF7F8FD36
:1074A0003220FFF7E1FD6448FFF7F2FD64216348F5
:1074B000FFF76CFD002860D06148FFF7E9FD64210B
:1074C0006048FFF763FD002800D172E05E4B1B7837
:1074D000012B00D188E05D48FFF7DAFD5C48FFF73B
:1074E000D7FD0A20FFF7C0FD5A48FFF7D1FD0A205B
:1074F000FFF7BAFD5848FFF7CBFD0A20FFF7B4FDB0
:107500005648FFF7C5FD0A20FFF7AEFD5448FFF7C8
:10751000BFFD0A20FFF7A8FD5248FFF7B9FD0A207A
:10752000FFF7A2FD5048FFF7B3FD50495048FFF761
:107530002DFD504B01221A700120FFF7D7FE4E4C53
:1075400001AA21004D48FFF7EBFC01A8FFF7A0FDC1
:1075500001AA21004A48FFF7E3FC6E2101A8FFF7CA
:1075600015FD484B1870012857D0464B00221A7061
:107570002E4B01321A700EB010BD4348FFF788FD44
:107580003220FFF771FD4148FFF782FD3220FFF7FF
:107590006BFD3F48FFF77CFD354C64212000FFF771
:1075A000F5FC3C48FFF774FD30492000FFF7EEFC86
:1075B00082E701AA23493848FFF7B2FC01A8FFF788
:1075C00067FD3220FFF750FD3148FFF761FD284C81
:1075D00064212000FFF7DAFC2E48FFF759FD23490C
:1075E0002000FFF7D3FC71E7174B00221A702B48DD
:1075F000FFF74EFD3220FFF737FD2548FFF748FD26
:107600001B4C64212000FFF7C1FC2248FFF740FD1E
:1076100016492000FFF7BAFC5DE72148FFF738FD67
:1076200064211348FFF7B2FC9FE7C0467E010020AB
:10763000982C0108A02C0108A82C0108B42C0108E2
:10764000F02C0108802A00207C010020FC2C01087D
:107650000C2D01081C2D0108302D0108442D0108B6
:10766000582D01086C2D0108802D01088813000099
:107670000C2C01087D0100209F2A0020382C0108D5
:10768000442C010892220020C02C0108CC2C0108B7
:10769000DC2C0108E42C0108682C0108E40100201E
:1076A000542C010810B50400FFF74CFD2000FFF733
:1076B0000BFD10BDF0B52A4B1C782000E3001B1B0E
:1076C0005A00284B9B1801225A7300230B2B0BD80E
:1076D0009A1D25498D5CC200121A5100214A521888
:1076E000D5540133DBB2F1E714231F4AD25C2C2AB4
:1076F00004D0182B02D80133DBB2F6E7013BDBB232
:10770000E200121B5100174A521800211173013177
:1077100011E0154AD25CC600361A7700114DED19FA
:10772000303A4A432E7B92192A738A0089184A00FC
:10773000D1B2013BDBB2142BEBD80B4B1B7D2D2BB5
:1077400005D0612C02D80134054B1C70F0BD0549F1
:10775000E300181B42008A18137B5B421373F0E7A7
:10776000F0020020982200202802002010B51A4BB9
:10777000187800282FD0194B0C201856012300240C
:1077800001E00133DBB2632B10D8DA00D21A5100CA
:10779000124A5218527B012AF3D1104A5218127B16
:1077A00052B28242EDDD10001C00EAE700230BE03C
:1077B000E200121B5100094A5218D15C084AD21843
:1077C000C73211700133DBB20B2BF1D9044AD3233A
:1077D0000021D154012010BDF00200209822002089
:1077E000D8290020F0B583B003000190002602E004
:1077F0000136B6B213005A1C18780028F8D10225B9
:1078000010E001339BB211009E4208D9DA190D4CE9
:10781000A45C4A1C09788C42F3D00090F1E7013552
:10782000ADB200982F00084B1B889B1B9D4206DCC5
:10783000002804D10199002301220092E4E703B05B
:10784000F0BDC046F4020020DE0F0020084B1B886C
:10785000002B02D1074A00211170591C044A1180E3
:10786000054AD054034B1A78504018707047C046F0
:10787000E20F0020DC0F0020B00E002010B5040045
:10788000C0B2FFF7E3FF200AFFF7E0FF10BD10B51D
:10789000040080B2FFF7F2FF200CFFF7EFFF10BDEE
:1078A00070B50E000024B44207D2451C0078FFF7E3
:1078B000CDFF0134A4B22800F5E770BD70B5040017
:1078C000FA218900FCF72AFC85B2C0B23030C0B280
:1078D000FFF7BCFFFF2628003040FA25AD004543E6
:1078E000ADB2651BADB264212800FCF717FC84B271
:1078F000C0B23030C0B2FFF7A9FF344064235C430C
:10790000A4B22C1BA4B20A212000FCF707FC85B20C
:10791000C0B23030C0B2FFF799FF2E40B000361829
:107920007600A01BC0B23030C0B2FFF78FFF70BD31
:1079300070B504000A21FCF7F1FB85B2C0B230300B
:10794000C0B2FFF783FFFF2028408300C01840002B
:10795000201AC0B23030C0B2FFF778FF70BD00000F
:10796000064A135C99005B185B002033DBB20130E0
:10797000105CC018C0B23038C0B27047F4020020AA
:107980000330014B185C7047F402002070B505000D
:107990000130C0B2FFF7F4FF84B22402A4B2280081
:1079A000FFF7EEFF80B2001980B270BD70B5040021
:1079B0000230C0B2FFF7EAFF05042000FFF7E6FF40
:1079C000401970BDF0B583B0060001911700002486
:1079D0006B469B88A34209D9751C3819C0B2FFF7C2
:1079E000CFFF30700134A4B22E00F1E703B0F0BD38
:1079F00010B52021044807F0A3FC002801D0002086
:107A000010BD0120FCE7C0460004005070B5144BC7
:107A10001B88012B0ED1134B1B78012B00D070BD9E
:107A20000023104A13700E4A1380F8E707F0E6F8B7
:107A30000D4B186000F0D2FF0028F0D10B4C2588C8
:107A400000F0DAFF0A4B5855238801339BB223809C
:107A5000084A9342EAD9054B00221A80E6E7C0465D
:107A6000E40F002020020020F00F0020DE0F002095
:107A7000F4020020B70B000010B5FFF7C7FF244B3E
:107A80001B88002B1DD0234B1B78882B0ED0204B3E
:107A900000221A80012000281BD11D4B1A881D4B83
:107AA0009B7804339A4214D0012014E007F0A6F822
:107AB000194B1B68C01AFA239B009842E7D8002094
:107AC00000E001200028E6D1114B1B88012BE2D8F1
:107AD0000120002817D0002818D10D4B00221A8051
:107AE000013010BD0B4AD25C5140C9B20133DBB248
:107AF0009AB2074C2488A242F4D30029EBD0044B5D
:107B000000221A80EDE703000100F1E70020E8E71A
:107B1000DE0F0020F4020020F00F002010B5FFF768
:107B200075FF2C4B1B88002B1AD02B4A12780D2A7C
:107B300026D0294A52780A2A24D0264B00221A80BD
:107B40000124002C12D1234B1B889A1E22498A5CE7
:107B50000D2A0BD0013BCB5C0A2B07D0012407E098
:107B60000124002CEDD1042BEBD80124002C0BD0E8
:107B7000002C2DD1174B00221A800134200010BD9B
:107B80000024EEE70024ECE71448FFF72BFE012861
:107B900003D1134B02221A70EAE71248FFF722FEC4
:107BA000012803D10E4B03221A70E1E70E48FFF7BC
:107BB00019FE012803D10A4B04221A70D8E70B489A
:107BC000FFF710FE0128F6D0024B00221A80D5E7FD
:107BD0000024D3E7DE0F0020F4020020882D0108E6
:107BE000F20200200C2C0108982D0108A02D01089C
:107BF00070B5FFF70BFF464B1D88002D44D0454B59
:107C00001B78012B04D0444B1A880021012028E066
:107C1000414B1A88033292B2F7E7A45C0A2C27D1B1
:107C20003C4E3678002E23D102323B4802803B4A3C
:107C300053544B1CD4546A1E92B2300006E0374CA9
:107C40006354013189B2334B00241C70531E344CF1
:107C5000E35C4F2B11D0013292B2324B9A4200D9E1
:107C60000122954211D0531E2D4CE35C0D2BD4D034
:107C70000D2BEBD00A2BE2D1E8E7A35C4B2BEAD12A
:107C8000294B01241C70E6E70120002801D00020C8
:107C900070BD0023214AD25C222A05D0214A93429A
:107CA00002D801339BB2F5E75A1C92B21D498B42B0
:107CB000EED801E0013292B21849895C222906D03F
:107CC000190020318A4202D216498A42F2D91100A3
:107CD00001339A42DCD0134B9A42D9D8931E0F4AF3
:107CE000D35C7B2B03D00139535C242BD0D10B4BBD
:107CF0005B7C602BCCD8094B9B792F2BC8D91A0001
:107D00003A3AD2B2062AC3D95A2BC1D80120BFE7CA
:107D1000DE0F0020AC0E0020E00F00202802002023
:107D2000F4020020B70B000090220020F0B5CE46F0
:107D3000474680B599B0BD4B00221A807720FFF7E7
:107D400085FDBB4B5C782000FFF780FD0020FFF72E
:107D50007DFD282C0ED8A400B64B1B599F46012050
:107D6000FFF774FD4920FFF789FD002005F0F0FAC8
:107D7000FFF76CFDAD4B18880338C0B2AE4B98705E
:107D8000AE4B1A7850401870FFF760FD012019B013
:107D9000C0BCB946B046F0BD0020FFF707FEA84BB7
:107DA0009842E7D10420FFF7F1FDA64BC3189BB220
:107DB000B02292009342DDD201F012FBDAE70020FC
:107DC000FFF7F4FD9E4B9842D4D10420FFF7EEFD5F
:107DD00007000820FFF7D4FD05003F231E003E40AA
:107DE0003B4223D1102802D1002538E00136B542AC
:107DF000C0D9F400E4B220000930C0B2FFF7D6FDCC
:107E000005900D34E0B2FFF7D1FD0400B02252021C
:107E10008D4BFB189342E9D20599380001F0B7FA6F
:107E2000381D210001F0B3FA0837DFE70026DEE74E
:107E30002801001980000930C0B2FFF7B7FDA30088
:107E400007AAD0500134E4B20F2CF1D9B02252026B
:107E50007D4BFB18934207D340370135EDB2012D1E
:107E600000D987E70024EFE707A9380001F0A2FA5C
:107E7000F2E70020FFF79AFD04000420FFF780FDE1
:107E8000060000250BE0200001F07FFAFFF7FFFC61
:107E9000201D01F07AFAFFF7FAFC08340135AE42F2
:107EA000F1D867E70020FFF781FD654B984200D0CD
:107EB00060E701F0E3FD5DE70020FFF777FD604B31
:107EC000984200D056E7BFF34F8F604B604ADA60AC
:107ED000BFF34F8FC046FDE70020FFF767FD584B0B
:107EE000984200D046E75B4B1793C020042217A9A5
:107EF000000101F093FA3DE701F094FCFFF7A6FCC6
:107F000001F08AFCFFF7A2FC0020FEF74FFFFFF70D
:107F1000BEFC0120FEF74AFFFFF7B9FC0220FEF786
:107F200045FFFFF7B4FC25E702F034FFF4214A488F
:107F3000FFF7B6FC1EE7484C0022F4212000FFF7B3
:107F400041FD4E21FF31200002F040FF12E702F018
:107F500021FF00240BE02200783252003E4B9B1898
:107F60001A79587900021043FFF788FC0134072C76
:107F7000F1D9394C82235B00E35C0622FF32A05C1E
:107F800000021843FFF77AFC83235B00E35C0822BE
:107F9000FF32A05C00021843FFF770FC84235B00F3
:107FA000E05C0A23FF33E35C1B020343852252009B
:107FB000A05C000403430C22FF32A05C00061843BF
:107FC000FFF765FC86235B00E35C0E22FF32A05CBA
:107FD00000021843FFF752FC87235B00E05CFFF7C9
:107FE00035FC1023FF33E05CFFF730FC200011303C
:107FF000FF303821FFF754FCA4235B00E05C4A23E8
:10800000FF33E35C1B020343A5225200A05C000483
:1080100003434C22FF32A05C00061843FFF737FCF5
:10802000A6235B00E05CFFF711FCA3E6E20F002053
:10803000F4020020AC2D0108B00E0020DC0F00205F
:10804000BBDDAACCC0FCFFFF0060FEF700ED00E046
:108050000400FA05CCBBDDAAD82900206000C0B21C
:10806000FFF794FC220078325200894B9B1818715C
:10807000000A58710134072CF0D91020FFF786FC54
:10808000834C82235B00E054000AE31858701220EE
:10809000FFF77CFC83235B00E054000AE318587070
:1080A0001420FFF783FC84235B00E054020A2300C2
:1080B0000933FF335A70020C9A70000ED8701820E2
:1080C000FFF764FC83B2FF2210400D32A0541B0A5C
:1080D00022000D32FF3253701A20FFF751FC872324
:1080E0005B00E0541B20FFF74BFC1023FF33E054F0
:1080F000002628E00024BEE7F500EDB228001C3081
:10810000C0B2FFF743FC624B34002234E400185540
:10811000000A1C19607028001E30C0B2FFF736FC40
:10812000A070000AE070301DC000C0B2FFF72EFC46
:108130002071000A60712235E8B2FFF727FCA071B8
:10814000000AE0710136062ED6D95420FFF72EFC26
:108150004F4CA4235B00E054020A23004933FF3351
:108160005A70020C9A70000ED8705820FFF708FC65
:10817000A6235B00E0544E21FF31200002F026FED2
:10818000F8E54448FFF774F8F4E50020FFF7FEFB3C
:1081900000F080FFEEE500F02BFEFFF757FB00F04C
:1081A00021FEFFF753FBE5E5012005F091FDE1E538
:1081B000032005F08DFDDDE50020FFF7E1FB01F078
:1081C00085FDD7E5002001F081FDD3E50020FFF714
:1081D000D7FB05F005FDCDE50020FFF7D1FB01F051
:1081E0008FFDC7E52C4CE078FFF730FB2079FFF7D7
:1081F0002DFB6079FFF72AFB2078FFF727FB6078DB
:10820000FFF724FBA078FFF721FBA079FFF71EFB07
:10821000B0E50020FFF7B4FB81460120FFF7B0FB7B
:1082200080460220FFF7ACFB06000320FFF7A8FB07
:1082300007000420FFF7A4FB04000520FFF7A0FBC4
:1082400005000620FFF79CFB0300029501940097B0
:1082500032004146484603F0CFFC8BE50F4BD878FF
:10826000FFF744F886E50020FFF7A0FB0C4B98428F
:1082700000D07FE50B4C04221F212000FFF7A2FB5A
:108280004E212000A838FF3102F0A0FD72E5C04663
:10829000D8290020F7020020502B0020F4020020F3
:1082A000BBDDAACC802A002010B5FFF7E5FB012832
:1082B00000D010BDFFF73AFD0128FAD1024B197822
:1082C000024800F03FFDF4E7E20F0020B00E00206E
:1082D000F0B5C64600B5304B1E78002E03D12F4BAB
:1082E0001D78012D06D0012E46D00025280080BC27
:1082F000B846F0BD06F082FC294B1B68C01A294B1A
:10830000984203D9284B1C78002C10D006F076FC3C
:10831000234B1B68C01A254B9842E7D91F4B0022FC
:108320001A7001F079FA051E22D03500DEE701232C
:108330001D4A13701E4F042290463A7000221D49B8
:108340000A801D490A801D4A1370FEF723FF434629
:108350003B7000221A4B1A70632CD7D8E3001B1B0A
:108360005B00184AD31800225A730134E4B2F3E7D1
:108370000020FEF7BBFFB9E706F040FC084B1B6886
:10838000C01A0A4B984204D9044B00221A700025E7
:10839000ACE70025AAE7C0469222002091220020E7
:1083A000EC0F0020C7AF0000102800205FEA00009B
:1083B00025020020DE0F0020E00F0020AC0E002080
:1083C000F00200209822002070B5534B00221A8042
:1083D000524B1C78032C05D0042C00D18EE0022CCB
:1083E00002D00024200070BD4D4BDA7B1B7C910035
:1083F000521852009B18DBB2103BDBB2062B00D99F
:1084000088E09B00474AD3589F461120FFF7A8FAFF
:1084100001F0F2F9E6E71120FFF7A2FA01F0ECF91A
:1084200006F01EF9002808D0052005F051FC0420B4
:1084300006F03EF904F084FFD4E73B4E2825705D3A
:1084400001F05EFC705D06F027F9EDE71120FFF703
:1084500087FA002812D1344E2825705D01F050FCB7
:10846000705D06F019F901F0D7F9012826D0032034
:1084700005F02EFC012006F01BF9B3E706F0F0F83A
:10848000294B28229854010A01329954010C0132D7
:108490009954010E01329954642809D9033A642190
:1084A000995401320021995401329954013299545E
:1084B0004E21FF311C4802F089FCCCE7002005F07A
:1084C00007FCD7E7194B1B78002B00D08AE7184B25
:1084D0001B78002B00D085E702F0A0FC0023154A92
:1084E0001370154A1360154A1360002001F084F9D7
:1084F000012477E70D4B00221A7073E700230D4A21
:1085000013700D4A13600D4A1360002001F074F9D6
:10851000012467E7002465E7E20F0020F202002053
:10852000F4020020502E0108D82900202402002047
:108530009122002092220020942200208C220020F0
:1085400010B50E213D48FFF7ABF93D4B1B78012BD1
:108550000ED13C4B1B78012B06D0394B00221A70F0
:108560000120FFF7E5F906E00620FFF7E1F902E058
:108570000120FFF7DDF904F0FBFE002849D1324B62
:108580001B68012B03D9314BDB7E012B23D9002043
:10859000FFF794F90020FFF791F90020FFF78EF91B
:1085A000294A136801331360294B2C229A5C2D2130
:1085B000585C00021043FFF7BBF906F057F880B291
:1085C000FFF77CF90D20FFF741F9224B197822487B
:1085D00000F0B8FB10BD04F0ADFE01280DD002285C
:1085E000DED11E4C208CFFF769F901F02FFBFFF75D
:1085F00065F9208FFFF762F9D2E7184C2089FFF761
:108600005DF901F023FBFFF759F96089FFF756F98F
:10861000C6E704F0A7FE80B2FFF750F904F0A2FE0F
:1086200080B2FFF74BF904F09DFE80B2FFF746F9E8
:108630000B4A136801331360B6E7C0466C2E01087D
:1086400024020020912200209422002044280020AF
:10865000D8290020E20F0020B00E00205C2B002063
:108660008C22002010B54D4B1B78042B60D89B004A
:108670004B4AD3589F464B4B1B78012B07D04A4B94
:108680001B78002B07D1454B01221A7050E0434B59
:1086900003221A704CE0454B1B78012B48D1444B08
:1086A0001B78012B44D13D4B01221A7040E03D4B19
:1086B0001B78012B0BD0394B01221A7000233D4A45
:1086C00013603D4A1360002001F096F830E0FFF798
:1086D00025FA01282CD1FFF777FE304B18700228BD
:1086E00026D106F08BFA06F089FA344B18601FE0A9
:1086F00006F084FA314B1B68C01A632818D9FFF7BB
:108700001FFF264B03221A7006F078FA10E0FEF7DE
:108710005DFD244B1870214B00221A7000F026FAE0
:10872000274B1B78012B04D01E4B1B78012B0CD040
:1087300010BD1C4B1B78002BF6D1224B1878FEF78E
:10874000D5FD1F4B00221A70EEE7144B02221A705F
:1087500006F054FA06F052FA6438184B1860E7E74E
:10876000FFF746FA01280BD0114B1B78012BDFD104
:10877000FEF7FCFF012806D0084B00221A70D7E74D
:10878000FEF798FFF0E74E21FF310F4802F01EFB85
:108790000123024A1370054A1370C9E7250200201D
:1087A0007C2E010892220020912200202402002029
:1087B00090220020942200208C220020F40F002020
:1087C0002202002023020020D829002010B5002317
:1087D0000024134A1380134A1380134A1380013371
:1087E000124A1370124A1470124A1470124A13700B
:1087F00006F004FA114B186006F000FA104B1860EE
:10880000104B1C70104B1C70104B1C70104B1C70CC
:10881000104B1C70104B1C70104B1C7010BDC046D0
:10882000DE0F0020E40F0020E20F002021020020D4
:10883000F20200209222002091220020EC0F002062
:10884000E80F0020250200201028002090220020A0
:10885000F102002022020020AC0E002024020020A1
:10886000024B1970024B18707047C046220200205C
:108870002302002010B5FFF7BBF8012809D00E4BEA
:108880001B78002B12D1FEF72DFD0B4B01221A7025
:1088900010BD094B1B78012B02D0FFF705FDF7E750
:1088A000FEF712FD044B00221A70F1E7FFF710FDEE
:1088B000FFF7D8FEECE7C0462102002010B584B0D7
:1088C00006F09CF9354B1B68C01A354B984201D80D
:1088D00004B010BD06F092F9304B1860314B1B7894
:1088E000002BF5D1FFF784F8041EF1D12E4B1B7835
:1088F000002BEDD02D4B1B78002BE9D000F08CFF26
:108900006B4618700120FEF751FA6421FBF790FCCA
:10891000FEF726F80022264BFCF760FAFBF734FE40
:108920006B4658700020FEF741FA6421FBF780FC8B
:10893000FEF716F800221E4BFCF750FAFBF724FE58
:108940006B4658800220FEF731FA6421FBF770FC79
:10895000FEF706F80022164BFCF740FAFBF714FE70
:108960006B46187173236A4653710E3B93710D3336
:10897000D37108E00F4B1B19A8331A7823006B44FE
:108980001A720134E4B2052CF4D924236A46937395
:108990005733D3736846FEF785FE99E7E80F00204A
:1089A0000F27000092220020102800209022002093
:1089B0000000E03FD82900200023044A1380044A25
:1089C0001380044A1380044A13807047E21C00207D
:1089D000E01C0020DC1C0020DE1C0020044B1B8857
:1089E000044A1088C01A43425841C0B27047C0467A
:1089F000DE1C0020DC1C0020064A13880649C85CE7
:108A000001339BB21380054A934202D9014B0022E5
:108A10001A807047DC1C0020F80F0020B70B000004
:108A2000F0B5D6464F464646C0B590B04A4D0823ED
:108A30009A462B6238330393022604963D3B9846B0
:108A4000059300240694012707970894434B994601
:108A500003A9180007F095FF80230393049643466B
:108A6000059306940794089403A9484607F089FFE4
:108A700080231B01039304964346059306940794B1
:108A800001330893A02003A9C00507F07AFF5346DD
:108A90000393049643460593069407940233089380
:108AA00003A9484607F06DFF2D4AC6218900535897
:108AB0001B021B0A535080231B051360294B596B63
:108AC0008020C001014359635A6B02400292029A0E
:108AD000DA6C41468A43DA64DA6A3A43DA62DA6A7D
:108AE0003A400192019ADA6A3243DA62DB6A1E4046
:108AF0000096009BE1235B0209930A940B940C946B
:108B00000C230D93C0239B000E930F9409A92800FA
:108B100008F0A2F8AA6880235B011343AB606B687E
:108B2000114A13406B60AB682A229343AB602B68F9
:108B30003B432B60EFF3108287F310882B682021D2
:108B40000B432B6082F31088FFF736FF10B0E0BCB8
:108B5000BA46B146A846F0BD0038014000040050B6
:108B600000E100E000100240FFB7FFFF024B1A884F
:108B7000024B1A807047C046DE1C0020DC1C00201F
:108B8000074B00221A80002396225200934205D2FE
:108B9000044A0021D15401339BB2F5E77047C04627
:108BA000E21C0020B01B002010B5134B00221A80DD
:108BB0000278002A07D001300F490B880F4CE2548D
:108BC00001330B80F4E70C4803880C490D32CA547A
:108BD00001330B4A1380012202800978094B996204
:108BE000EFF3108182F310881A68802002431A6024
:108BF00081F3108810BDC046E21C0020B01B00208D
:108C0000E01C00200038014010B5134B00221A80F0
:108C10008AB2114B1B889A4207D904780F4AD45460
:108C200001330D4A13800130F2E70C490D22CA547A
:108C300001330B4A13800122074B1A800978094B34
:108C40009962EFF3108182F310881A688020024342
:108C50001A6081F3108810BDE21C0020B01B0020B8
:108C6000E01C00200038014082B00D4B5A6AFF23FF
:108C7000134001930B4B1A8801981A8892B20A4943
:108C800088541A88013292B21A801B889BB2074A14
:108C9000934202D9034B00221A8002B07047C046AB
:108CA00000380140DE1C0020F80F0020B70B000048
:108CB00010B5134B1A88134B1B88013B9A4215D3EE
:108CC000EFF31080012181F310880F4B1A68802484
:108CD000A2431A6080F31088EFF3108081F31088AC
:108CE0001A683F310A431A6080F31088044A1388D7
:108CF000591C1180054AD25C034B9A6210BDC046D4
:108D0000E21C0020E01C002000380140B01B0020C5
:108D1000094B1A88094B1B889A420BD3EFF3108139
:108D2000012383F31088064A1368402083431360AD
:108D300081F310887047C046E21C0020E01C002030
:108D40000038014010B500238B4206D204780D4A4A
:108D5000D4540133DBB20130F6E70B4B1980094BD9
:108D60001A780A4B9A62012209490A80EFF31081AE
:108D700082F310881A68802002431A6081F31088F9
:108D800010BDC046B01B0020E01C00200038014090
:108D9000E21C002000B583B0094A80238021090528
:108DA000D150BFF34F8FBFF36F8F064BDA6901923B
:108DB0001A6801218A431A60FFF732FE03B000BD32
:108DC00000E100E00038014070470000014B1878D6
:108DD0007047C046E61C0020014B18787047C0461B
:108DE000E51C0020014B18787047C0462128002060
:108DF000014B1878C0B270471C280020014B187036
:108E00007047C0461C28002010B50023084A137084
:108E1000084A1370084A1370084A1380084B01224D
:108E20001A70084B01321A70072005F03BFF10BD85
:108E30003C2800202128002022280020182800207B
:108E40003D2800202428002010B50D4B1B78002B56
:108E500009D00C4B19880C4B186806F071FA0028E1
:108E60000BD0002010BD074B1988074B186806F07F
:108E700067FA0028F6D00120F4E70120F2E7C046A7
:108E8000E41C0020000000200400002010B5FFF7C3
:108E9000DBFF414B1870414A138801339BB21380AA
:108EA0003F4A127890422ED03E4A1278002A13D0C0
:108EB000092A22D0062B17D9082A06D808239B1A7C
:108EC000984039490B78184308700132354B1A70B5
:108ED000324B00221A8007E0022B05D92F4B0022CB
:108EE0001A80304B01321A702B4B1A782C4B1A70A7
:108EF0002E4B1B78042B40D010BD062BF4D92B4BE6
:108F000004221A70F0E7274A1278092A0FD00A2A99
:108F10001CD0002A05D00A2BE6D1244B04221A705B
:108F2000E2E7082BE0D1214B04321A70DCE7082B72
:108F3000DAD1002803D11D4B04221A70D4E7013284
:108F4000184B1A70154B00221A80CDE7082BCBD195
:108F5000164B00221A70164B802252015A610720CC
:108F600005F094FE134B01221A700F4B1978124B27
:108F70001878124B1B689847B6E70C4B00221A7002
:108F80000C4B03321A700A4B802252015A6107209F
:108F900005F07CFEB0E7C0461D2800201828002000
:108FA0003D280020222800202128002024280020FD
:108FB000000401401C2800203C2800201000002054
:108FC000014B18787047C046242800200023064A29
:108FD0001370064A1370064A1370064A1380002263
:108FE000054B1A707047C046162800201C28002028
:108FF000242800201A280020E51C0020134B1B7891
:10900000002B11D0002807D0114B1A685369114961
:1090100009888B43536170470D4B1A6851690D4B9A
:109020001B880B435361F6E7002807D0084B1A68EA
:109030005169084B1B880B435361ECE7044B1A68DA
:109040005369044909888B435361E4E70800002011
:109050000C0000200A0000200B4B1878002808D0D4
:109060000A4B1B681A690A4B1B881A420AD0002057
:109070007047064B1B681A69054B1B881A42F7D0CC
:109080000120F5E70120F3E7080000200C00002094
:109090000A00002010B5084B18800023074A1370FF
:1090A000074A1380074B04221A70072005F0FAFDC7
:1090B000054B01221A7010BD4028002020280020F6
:1090C000142800201C2800202428002010B50002AD
:1090D000401880B2FFF7DEFF10BD10B50002401847
:1090E00080B2FFF7D7FF10BD70B505000C00504BE4
:1090F0001B78002B02D14F4B00221A704D4B1B786E
:10910000062B00D98CE09B004B4AD3589F46484B16
:1091100001221A70E1B2A320FFF7D8FF05F06EFD1F
:10912000464B1860434A13780133137070BD05F045
:1091300065FD424B1B68C01A3128F7D9210AC320AC
:10914000FFF7C4FF05F05AFD3C4B1860394A13780D
:1091500001331370EAE705F051FD384B1B68C01A64
:109160003128E3D90821C120FFF7B0FF05F046FD03
:10917000324B18602F4A137801331370D6E705F08D
:109180003DFD2E4B1B68C01A3128CFD9E8212C4B4E
:10919000585DFF31FFF7A1FF05F030FD274B186048
:1091A000244A137801331370C0E705F027FD234BE1
:1091B0001B68C01A3128B9D90821C120FFF786FFE2
:1091C00005F01CFD1D4B18601A4A1378013313700B
:1091D000ACE705F013FD194B1B68C01A3128A5D95F
:1091E000F121174B585D4900FFF777FF05F006FDA9
:1091F000124B18600F4A13780133137096E705F08D
:10920000FDFC0E4B1B68C01A312800D88EE70023E6
:10921000084A1370064A13700020FFF7EFFD85E738
:10922000044B00221A70024B01321A707EE7C046CE
:10923000E61C0020E71C0020902E0108E81C0020FE
:10924000F430010810B5314B1B889A0749D1A32B84
:1092500041D8172B1FD9182B21D01C2B27D02C4AD3
:1092600012780F21891A2B4A12880A411100012213
:109270000A4029490A705B0721D0244B1B881C3BFC
:109280005B072ED1244B1878FFF7B8FE204A1378DD
:109290000133137025E001331C4A138025E00020C0
:1092A000FFF7ACFE194A1388013313801DE001203B
:1092B000FFF7A4FE154A13880133138015E0FFF76A
:1092C000CBFE154B1B789842D7D10120C01AC0B2F3
:1092D000FFF794FED1E7A42B08D00C4B1B88B42BCE
:1092E00008D00A4A13880133138010BD0120FFF70C
:1092F00085FEF2E7094B00221A70094B80225201C9
:109300005A61072005F0C2FCEBE7C0461428002094
:1093100020280020402800201F280020242800208A
:109320000004014010B5FFF74BFE012810D00228C1
:1093300016D0FFF745FE002809D10D4A13880133E6
:109340009BB213805B2B02D90A4B01221A7010BD0D
:10935000FFF778FF064B00221A80064B1A70E8E7E9
:10936000FFF794FD024B00221A80024B1A70E0E7CF
:1093700026280020E51C002010B580235B019842C0
:1093800000D010BDFFF740FDFBE70068704770B5E7
:1093900004000D0005F0A6FD2A002100022005F0C2
:1093A00023FE002804D0002405F0D0FD200070BD6D
:1093B0000124F9E730B583B004000D0005F092FDFB
:1093C0006B46D87107331B78002B03D005F0BEFD28
:1093D00003B030BD2900200009F052FBF6E7000081
:1093E00010B50B4C0022226080235B03C318DB0105
:1093F0006360084B1B68A36005F074FD06492000FC
:1094000005F094FE002800D0FEE705F09FFD10BD9A
:10941000EC1C002014000020F81C0020F8B5070008
:109420000D00160005F002FE0024B4420AD2074BDC
:10943000F91861182A78002005F034FE013501344E
:10944000A4B2F2E705F010FEF8BDC046000008081F
:10945000064B9C466044531E9BB2002A05D00278FE
:109460000A7001301A000131F5E770470000080862
:1094700070B506000D0005F0D9FD0024AB08A3422D
:1094800009D9A0003018054B9C46604405F0F6FD54
:109490000134A4B2F2E705F0E7FD70BD0000080852
:1094A000F8B505001C4C86235B00E35C0E22FF32FE
:1094B000A05C0002184300040014FDF751FA0022DA
:1094C000164BFBF7F5FF06000F0084235B00E25C00
:1094D0000A23FF33E35C1B021A4385235B00E35C32
:1094E0001B0413430C22FF32A45C24061C432800F7
:1094F000FDF766FA32003B0008F008F906000F009D
:109500002000FDF75DFA32003B00FCF7D7FBFBF7CC
:109510003BF880B2F8BDC046D829002000408F40FB
:1095200070B50D00140000282AD0642826D88A427D
:1095300022D8FF2901D9C8B223E0FBF713FC114957
:10954000FBF70CF9FDF762FA08F0A2F800220E4BC7
:10955000FCF7B4FB00220D4BFBF7AAFF08F04AF81A
:10956000FDF7C8F980B2401983B200B2A04201DB16
:10957000D8B206E0E0B204E0C8B202E0C8B200E04F
:10958000D0B270BD0000C84200A06F40000008408B
:10959000F0B5C64600B5464B00221A7001280DD022
:1095A000444B18780201121A1001821A12015878DD
:1095B0000301181A80001018002121E0012914D09D
:1095C00005F01CFB3C4B1B68C01A3C4B984211D861
:1095D00005F014FB384B1B68C31A1801C01A0001B0
:1095E000FA218900FAF79AFDE6E705F007FB324B0E
:1095F0001860E5E705F002FB2F4B1860E8E7012152
:109600002B4B1C780E2C0AD8002908D1E3002C4AD9
:109610009B588342F3D80134254B1C70F0E7002C93
:1096200030D0631E264DDB005B599846C01AFDF70B
:10963000C7F906000F00E30058594346C01AFDF76A
:10964000BFF902000B0030003900FBF731FF0600C4
:109650000F00002C27D01A4BE2009A185068013CEA
:10966000E4001C196468A0420FD3001BFDF7A8F9A1
:1096700032003B00FCF722FBFAF786FF80B20019AC
:1096800080B211E000260027E3E7201AFDF798F9E1
:1096900032003B00FCF712FBFAF776FF83B2A0B270
:1096A000C01A80B200E0074880BCB846F0BDC04692
:1096B000FC1C0020502B0020001D0020407E0500D7
:1096C000AC2E0108B80B000070B5224B00221A76B0
:1096D000DA76002405E01F4B5B5D012B1FD00134BF
:1096E000E4B2052C34D825001A490A19937C0B558D
:1096F00092799342EFD00A0009198B7101230B7301
:10970000135D012BE7D1A21D9200124B9B18002282
:109710005A6005F073FAA3000F4AD050DBE705F05A
:109720006DFAAA000C4BD358C01A0A4BAA1D92001E
:109730009A1850602A000C3292009A185060012149
:10974000A9401A7E0A431A76DA7E0132DA76C6E733
:1097500070BDC04644280020101D002010B5802197
:10976000C901204805F0ECFD002810D08021C90176
:109770001C4805F0E5FD01280ED08021C9011948DB
:1097800005F0DEFD002816D0FFF79EFF10BD05F0A6
:1097900035FA154B1860E9E705F030FA124B1B68F3
:1097A000C01A3128E9D905F029FA104B1860104B7E
:1097B00001221A70E8E705F021FA0C4B1B68C01A69
:1097C0000C490B7F4A7F12021A438B7F1B041A43FA
:1097D000CB7F1B0613439842D6D3054B00221A7049
:1097E000D2E7C04600080050081D00200C1D0020D4
:1097F000041D0020D82900200023052B09D80200D1
:109800001A4101211140034AD21891740133DBB28D
:10981000F3E7704744280020014B18787047C04692
:10982000041D002010B58021C901034805F088FD02
:1098300043425841C0B210BD00080050F0B5D646B2
:109840004F464646C0B588B01422002103A807F051
:10985000A3FA384BD96A04221143D962D96A0A4063
:109860000092009ADA6A01252A43DA62DA6A2A400B
:109870000192019ADA6A022188460A43DA62DB6AB7
:109880000B400293029B2C4B9A462C4E002219004F
:10989000300005F05CFD80231B029946A027FF05E0
:1098A00000221900380005F052FD8023DB010393EC
:1098B00000240494059403A9214805F073FC434651
:1098C00003930494059503A9380005F06BFC5346F7
:1098D000039304950594069403A9300005F062FCF7
:1098E00080235B01039384239B030493059403A9C2
:1098F000300005F057FC134B03930494059403A91F
:10990000300005F04FFC4B460393049505940694F4
:1099100003A9380005F046FC00220021072005F0CD
:1099200085F9072005F0B2F908B0E0BCBA46B146A7
:10993000A846F0BD001002400141000000040050A4
:10994000000800502080000000B59DB038220021A2
:109950000EA807F021FA1422002109A807F01CFA2A
:1099600024220021684607F017FA20490B68204A94
:109970001A4080231B0113430B6002230E93013B0B
:1099800011930F331293002318930EA806F026F9B3
:1099900000281CD10F2309930E3B0A9300230B933D
:1099A0000C930D93002109A806F0E4FB002813D1C5
:1099B0000C23FF3300930023029303930593069334
:1099C000684606F0C9FC00280BD11DB000BDD121AE
:1099D000084801F00BFEDDE7DE21064801F006FE37
:1099E000E6E7EA21034801F001FEEEE700700040DF
:1099F000FFE7FFFF2C2F010810B51C4B1C4A9A6093
:109A000005F0DCF8FFF7A0FF1A4A916B80235B0595
:109A10000B43936306F09AFC1749FAF77FFB05F0B6
:109A200051F9042005F06AF901200022002140428A
:109A300005F0FCF8FFF702FF02F022F9FDF770F9DC
:109A400000F082F900F0D2F9FEF7EAFF01F0F0FD34
:109A500000F02AFA04F0CAF804F09CFFFEF7B6FE04
:109A6000FDF70CFD04F0B2FFFCE7C04600ED00E09E
:109A700000400008001002401027000070B50C4D97
:109A80000C4C2B68236005F0DBFF05F05BF80A4BFC
:109A900000221A605A609A60012383F31088074BF2
:109AA00083F308882B68236023689847FEE7C04645
:109AB0000400FF1FD429002010E000E05022002005
:109AC00010B5642809D80B4C60436421FAF7B0FB49
:109AD00083B2A34202D9074B00E0064B064C00229A
