:020000040800F2
:1040000000500020E1FA0008F9CF0008FBCF0008BB
:1040100000000000000000000000000000000000A0
:10402000000000000000000000000000FDCF0008BC
:104030000000000000000000FFCF000801D00008D1
:1040400031FB000831FB000831FB000831FB0008A0
:1040500031FB000831FB000831FB000829D00008C3
:1040600031FB000831FB000831FB000831FB000880
:1040700031FB000831FB000831FB000831FB000870
:1040800031FB000831FB000831FB00080000000094
:1040900031FB000831FB000831FB000831FB000850
:1040A00031FB000831FB000831FB000835D0000867
:1040B00089D0000831FB00080000000031FB000837
:1040C00010B5064C2378002B07D1054B002B02D0EE
:1040D000044800E000BF0123237010BDE800002069
:1040E0000000000000460108044B10B5002B03D06F
:1040F0000349044800E000BF10BDC04600000000B6
:10410000EC0000200046010803B471464908400055
:104110004900095E49008E4403BC704700224308F1
:104120008B4274D303098B425FD3030A8B4244D37F
:10413000030B8B4228D3030C8B420DD3FF220902C1
:1041400012BA030C8B4202D31212090265D0030B80
:104150008B4219D300E0090AC30B8B4201D3CB0376
:10416000C01A5241830B8B4201D38B03C01A5241B8
:10417000430B8B4201D34B03C01A5241030B8B42BA
:1041800001D30B03C01A5241C30A8B4201D3CB02A5
:10419000C01A5241830A8B4201D38B02C01A52418A
:1041A000430A8B4201D34B02C01A5241030A8B428D
:1041B00001D30B02C01A5241CDD2C3098B4201D3A5
:1041C000CB01C01A524183098B4201D38B01C01A23
:1041D000524143098B4201D34B01C01A524103099A
:1041E0008B4201D30B01C01A5241C3088B4201D349
:1041F000CB00C01A524183088B4201D38B00C01AF6
:10420000524143088B4201D34B00C01A5241411A1C
:1042100000D20146524110467047FFE701B5002029
:1042200000F0F0F802BDC0460029F7D076E77047ED
:1042300003460B437FD4002243088B4274D3030907
:104240008B425FD3030A8B4244D3030B8B4228D3A8
:10425000030C8B420DD3FF22090212BA030C8B42CE
:1042600002D31212090265D0030B8B4219D300E06E
:10427000090AC30B8B4201D3CB03C01A5241830BF3
:104280008B4201D38B03C01A5241430B8B4201D3A3
:104290004B03C01A5241030B8B4201D30B03C01ACC
:1042A0005241C30A8B4201D3CB02C01A5241830A46
:1042B0008B4201D38B02C01A5241430A8B4201D375
:1042C0004B02C01A5241030A8B4201D30B02C01A9F
:1042D0005241CDD2C3098B4201D3CB01C01A524106
:1042E00083098B4201D38B01C01A524143098B428F
:1042F00001D34B01C01A524103098B4201D30B0178
:10430000C01A5241C3088B4201D3CB00C01A52419C
:1043100083088B4201D38B00C01A524143088B4261
:1043200001D34B00C01A5241411A00D201465241FA
:10433000104670475DE0CA0F00D04942031000D319
:104340004042534000229C4603098B422DD3030A6E
:104350008B4212D3FC22890112BA030A8B420CD37E
:10436000890192118B4208D3890192118B4204D3A7
:1043700089013AD0921100E08909C3098B4201D327
:10438000CB01C01A524183098B4201D38B01C01A61
:10439000524143098B4201D34B01C01A52410309D8
:1043A0008B4201D30B01C01A5241C3088B4201D387
:1043B000CB00C01A524183088B4201D38B00C01A34
:1043C0005241D9D243088B4201D34B00C01A52410B
:1043D000411A00D20146634652415B10104601D398
:1043E0004042002B00D54942704763465B1000D322
:1043F000404201B5002000F005F802BD0029F8D0C8
:1044000016E770477047C0468446100062468C46E7
:104410001900634600E0C0461FB501F037FE0028D2
:1044200001D40021C8421FBD10B501F077FD404204
:10443000013010BD10B501F029FE002801DB00207D
:1044400010BD012010BDC04610B501F01FFE0028B0
:1044500001DD002010BD012010BDC04610B501F0E7
:10446000A1FD002801DC002010BD012010BDC046C8
:1044700010B501F097FD002801DA002010BD0120E1
:1044800010BDC046844608006146FFE71FB500F036
:104490008DFC002801D40021C8421FBD10B500F0DA
:1044A0000DFC4042013010BD10B500F07FFC00282B
:1044B00001DB002010BD012010BDC04610B500F08A
:1044C00075FC002801DD002010BD012010BDC04694
:1044D00010B500F01BFC002801DC002010BD0120FD
:1044E00010BDC04610B500F011FC002801DA002014
:1044F00010BD012010BDC046002B11D1002A0FD1E4
:10450000002900D1002802D00021C943080007B4C7
:10451000024802A14018029003BDC046E9FEFFFF19
:1045200003B4684601B5029800F052F8019B9E461C
:1045300002B00CBC7047C046F0B5CE469946030C9D
:104540009C46130447461B0C1D000E0061460404E4
:10455000240C80B50700100C4B4365434143604376
:104560002C0CC01824188C46A34203D980235B026C
:104570009846C444494679435643230C2D042D0CD8
:104580008919634424046019C918C0BCB946B046EF
:10459000F0BDC04670B500220C4B04000D00FFF7C3
:1045A00067FF002804D12000290002F067FC70BDDD
:1045B000064B00222000290002F0A2F802F05EFC67
:1045C00080231B069C466044F1E7C0460000E041A2
:1045D000F0B557464E464546DE46E0B504000D00B0
:1045E0009246994683B08B4230D82DD049465046EA
:1045F00002F038FD29000600200002F033FD331AD6
:104600009846203B34D49B4653465A4693404246F4
:104610001F00534693401E00AF423BD8AF4200D12B
:1046200079E05B46A41BBD41002B00DA76E0002256
:1046300000230092019301235A46934001930123E2
:1046400042469340009329E08242CFD900220023C2
:10465000009201930C9B002B01D01C605D600098C0
:10466000019903B0F0BCBB46B246A946A046F0BDD6
:1046700042469B4620239B1A5246DA40414613008D
:104680004A468A40170042461F43534693401E0045
:10469000AF42C3D900220023009201934346002B6E
:1046A000D8D0FB0772081A4346467B080EE0AB429F
:1046B00001D1A2420CD8A41A9D41012024196D41B8
:1046C0000021013E24184D41002E06D0AB42EED908
:1046D000013E24196D41002EF8D1009801995B46E6
:1046E00000196941002B24DB2B005A464446D34075
:1046F0002A00E2401C005B461500002B2ADB260046
:104700009E40330026004746BE403200801A994141
:10471000009001919EE7A342BCD882E74246202345
:1047200000219B1A0022009101920122DA4001929D
:1047300085E7424620239B1A2A0046469A402300DA
:10474000F340444613432A00E2401C005B46150038
:10475000002BD4DA42462F002023260097409B1AD4
:10476000DE403B003343CDE7F8B5CE464746430233
:104770005A0A4E024500C40F480091462D0E720A97
:10478000000E944680B59B09C90FB6092A1A8C42BF
:1047900021D0002A0DDD00282DD1002E00D18DE082
:1047A000511E012A00D11DE1FF2A00D1ABE00A0011
:1047B00027E0002A4DD0421B002D00D0CCE0002B7A
:1047C00000D179E0541E012A00D128E1FF2A00D14E
:1047D00097E02200C5E0002A00DC96E000284FD0D8
:1047E000FF2D00D18FE08021C9040E431B2A51DD2B
:1047F0002A00013318E0FF2D00D184E08021C90494
:104800000E4301211B2A08DC31002020D140821AEE
:1048100096403200501E824111435B1A5A0159D40E
:1048200007212A00194049D00F211940042900D03E
:104830000433590142D5501CFE2A3AD09B01C0B224
:104840005B0AC0051843E4072043C0BCB946B04624
:10485000F8BDFE2080466F1C38004746074200D056
:104860008EE0002D00D0B4E0002B00D1DBE0002E64
:104870006CD0981B450100D4F7E00C00F31A3DE022
:10488000002E1BD0511E012A00D182E0FF2A3AD00F
:104890000A00ABE731002020D140821A9640320056
:1048A000501E82410A439B185A01B9D56A1CFE2D3D
:1048B00075D1FF200023C4E70C003300DB08FF2A7A
:1048C00046D1002BF5D08022D20313435B02FF2098
:1048D0005B0AB6E79F01BF09380002F0A5FB053867
:1048E0008740854224DC3B002021421B0132D3401B
:1048F0008A1A97407A1E974100223B43590793D169
:1049000097E70C003300DB08DBE7002A14D0421BDA
:10491000002D4BD1002BD0D0511E012A00D19EE09A
:10492000FF2AEFD00A001B2A5FDD0200731C7BE721
:10493000504B2A1A3B40E1E7FE216A1C11423BD151
:10494000002D5DD1002B7FD0002E7FD10022DB080F
:104950005B025B0AD0B274E7FF28D2D08024E40463
:10496000234301241B2A07DC1C002025D440AA1A5B
:1049700093405A1E93411C43331B05000C004DE726
:104980009F1B7A0122D4002FA6D1002400200023EF
:1049900057E79B1901250132590100D440E7012155
:1049A000354819405B0803400B43A7E7FF28A9D00F
:1049B0008021C9040B43B6E7FF2A00D179E79B1990
:1049C0005B08590700D02FE7DB08C1E70C00F71A96
:1049D00082E7002B2CD1002E93D180230024FF20CE
:1049E000DB032EE701259B1B18E719002025D1408A
:1049F000AA1A93405A1E93410B4305009B1953E793
:104A0000002B00D17EE7002E00D17CE78022D2036C
:104A1000914502D3944500D23300DB0853E70C00E4
:104A2000F31A0135FAE6002EAFD00C0033008DE703
:104A3000002E00D167E78022D2039145EDD3944543
:104A4000EBD20C003300E8E733007FE79B1900222C
:104A50005901B9D5074A1340DB08012278E79B19B1
:104A60000132013559019AD4DAE6031E8DD0DB08F4
:104A70006EE7C046FFFFFFFBFFFFFF7DF0B54F462F
:104A80004646D6464402C0B547000E1C640A3F0E97
:104A9000C50F002F3CD0FF2F42D000238022994623
:104AA0009A46E400D20414437F3F73025B0A98469F
:104AB00073001B0EF60F002B1BD0FF2B13D04246AA
:104AC0008021D200C9041143884600207F3B290081
:104AD000FF1A4B467140C9B20F2B00D9B5E0744A9A
:104AE0009B00D3589F464346002B3FD1FF3F0233E4
:104AF00003E04346002B2DD1012329004A46714093
:104B0000C9B21A430E2A38D86A489200825897468A
:104B1000002C13D104239946033B00279A46C4E78F
:104B2000002C05D108239946063BFF279A46BCE78F
:104B30000C239946093BFF279A46B6E7200002F06E
:104B400073FA7627431F9C4000237F4299469A467A
:104B50003F1AAAE7404602F067FA4246431F9A40CE
:104B600076235B421B1A90460020B0E703234A4697
:104B70001A4391460320FC33A9E70D00FF200022D1
:104B8000C005ED0710432843E0BCBA46B146A8462D
:104B9000F0BD0D0000200022F2E75346022BEDD0BD
:104BA000032B33D0A046012B05D100200022E7E7DC
:104BB000350003287AD03B007F33002B2DDD4246A1
:104BC000520707D00F2241460A40042A02D004228D
:104BD0009446E0444246120105D54246364B1A40FF
:104BE0003B0090468033FE2BC8DC42469201520ABD
:104BF000D8B2C5E780220025FF20D203C0E780227B
:104C0000D203144202D04346134249D08022D20339
:104C100022435202FF20520AB2E70122D31A1B2B71
:104C2000C3DC4246DA4043469E37BB40591E8B41A7
:104C30001A43530704D00F231340042B00D004322F
:104C4000530129D5012000229AE74246630155010C
:104C5000AB4215D21B200022013F01261C0052004E
:104C60005B00002C01DB9D4201D85B1B3243013805
:104C70000028F3D1581E8341134398460D009AE74C
:104C80001A2001225B1BE8E7023B5A4253415B4278
:104C900035000022D8B273E792010020520A6FE774
:104CA0001A4352023500FF20520A69E74446ADE735
:104CB0005C4901089C490108FFFFFFF770B54200FD
:104CC0004E024C0045026D0A120EC30F760A240EE6
:104CD000C90FFF2A10D0FF2C0CD00120A2420AD10C
:104CE000B54208D18B420FD0002A04D12800431EC0
:104CF000984100E0012070BD0120FF2CFBD135431D
:104D0000F9D14B401800F6E70020F4E730B5420037
:104D100044024D02C30F4800640A120E6D0A000ED1
:104D2000C90FFF2A19D0FF280BD0002A1ED1002856
:104D30000BD1002D27D0002C34D100292FD0080012
:104D400030BD002D28D1002A01D1002CF5D08B4296
:104D500007D1002B23D01800F2E7002C1CD1FF282C
:104D600014D0581E022318400138E9E70028F8D073
:104D70008B42F6D18242F4DCEBDBAC42F1D800206E
:104D8000AC42DDD2E5E7002CDAD0EAE7002D03D112
:104D90008B42E6D10020D3E702204042D0E7012039
:104DA0004042CDE78B42E8D0DBE7C04630B5420059
:104DB00044024D02C30F4800640A120E6D0A000E31
:104DC000C90FFF2A1AD0FF280ED0002A1ED10028B2
:104DD0000ED1002D2AD0002C0CD08B421DD0581E95
:104DE00002231840013810E0002D0DD1002A20D1F7
:104DF000002C1ED1002923D0080006E0002C03D18E
:104E0000FF28ECD1002D17D0022030BD0028E6D0BD
:104E10008B42E4D18242E2DC04DBAC42DFD80020EA
:104E2000AC42F2D2002B0BD01800EEE7002CECD0F5
:104E3000D5E78B42D3D1F5E700208B42E5D0CEE712
:104E400001204042E1E7C046F0B54F464646D6460F
:104E500043025B0A4500C0B599460F1C2D0EC60FD4
:104E6000002D00D188E0FF2D00D18DE08022DB00F5
:104E7000D2041A430023914698469A467F3D7C020D
:104E80007B00640A1B0EFF0F002B68D0FF2B21D084
:104E90008022E400D204144342467F3B5B19002188
:104EA0005D1C0A2A2EDC7E404246022A23DC013A9F
:104EB000012A00D9BDE002296ED001292CD10020A1
:104EC0000022C005F60710433043E0BCBA46B146A5
:104ED000A846F0BD2B00FF33002C65D003224146CD
:104EE00011433200013588467A40FF350A2900DD3A
:104EF000D8E016000321404601228240A620C000CF
:104F0000024220D05346022B46D0032B00D1BBE0F7
:104F100051464C460129D2D02B007F33002B70DD47
:104F2000620704D00F222240042A00D00434220158
:104F300003D5634B1C402B008033FE2B2CDCA201DD
:104F4000520AD8B2BDE790208000024227D1B9387A
:104F5000FF3810426DD03E00A1468A46D2E7002CB1
:104F600041D1012342461A4390462B00424601217B
:104F70005D1C0A2A97DDC5E7002B26D1042398463D
:104F8000033B00259A467AE7002B18D10823984660
:104F9000063BFF259A4672E7FF20002291E7802218
:104FA0000026FF20D2038CE741460222013511433F
:104FB0008846FF350A29A5DC02217E4074E70C23D0
:104FC0009846093BFF259A4659E7180002F02CF84D
:104FD0004A46431F76259A4000236D4291469846E3
:104FE0009A462D1A4BE7200002F01EF84246431F56
:104FF0009C402B1A763B00215D1C0A2A00DC52E7FC
:1050000080E70122D31A1B2B00DD58E79E352200D2
:10501000AC40DA40631E9C412243530704D00F2367
:105020001340042B00D00432530137D50120002255
:1050300047E7210C4A462404240C2700100C1204D4
:10504000120C44435743484351433A0C0919521830
:10505000944203D9802149028C4660443F041104E4
:105060003F0CC9198C01671EBC41120C890E121825
:105070000C439201144312010ED5012362081C4017
:10508000144349E73E00A14680224B46D2031A430F
:105090005202FF20520A14E71D003DE79201002052
:1050A000520A0EE70F29EDD180224B46D20313425C
:1050B000EAD01442E8D13E00FF20224301E7C04677
:1050C000FFFFFFF741024200C30F490A0020120E02
:1050D0007E2A03DD9D2A02DD094A98187047802048
:1050E00000040143952A07DC9620821AD1404842E9
:1050F000002BF3D10800F1E7963A9140F7E7C0465C
:10510000FFFFFF7F70B5002813D0C317C5185D409F
:10511000C40F280001F088FF9E2301001B1A962B64
:105120000FDC082834D008398D406D026D0AD8B2E2
:1051300002E0002400200025C0052843E4072043A6
:1051400070BD992B16DC421F052800D095402A001F
:10515000114802406E0709D00F263540042D05D0B6
:105160000432550102D59F2302405B1A9201550A71
:10517000D8B2E1E70522121A2800D0400200080048
:105180001B3085402800451EA84102431500DEE77C
:105190006D0296206D0ACFE7FFFFFFFB70B5041E7E
:1051A0000ED001F041FF9E2301001B1A962B0CDC50
:1051B00008282FD008398C406402640AD8B201E074
:1051C00000200024C005204370BD992B16DC421F2F
:1051D000052800D09440220010480240650709D0FD
:1051E0000F252C40042C05D00432540102D59F23F6
:1051F00002405B1A9201540AD8B2E3E70200200091
:105200001B3290400200501E82410520401AC440CB
:105210001443E0E764029620640AD3E7FFFFFFFB34
:10522000F0B557464E464546DE46E0B583B00090A1
:1052300001910C034F00CE0F610A009C1D03640F07
:105240000C43009900920193C80059004B0D9946F8
:10525000009A019B6D0AD90F530F2B439A46009B6E
:105260007F0DDA0094464A46B046BA1A8E4200D103
:10527000B0E0002A00DC78E04946002900D1E9E0EE
:10528000C9498F4200D195E10125382A16DC8021D9
:10529000534609040B439A461F2A00DDE7E120210B
:1052A00055468B1A61469D40D1400D436146994059
:1052B0004B1E99415346D3400D43E41A451BA84267
:1052C00080414042241A230200D40FE16402640AA0
:1052D000002C00D139E1200001F0A6FE0300083BBC
:1052E00020212800CA1AD0409C4002009D40224341
:1052F0009F4200DD73E1D81B0130091A2C008D405C
:10530000C4406B1E9D411300C2408B4025430027C3
:1053100014001D436B0709D00F232B40042B05D02D
:105320002B1DAB42AD416D4264191D00230200D418
:105330002DE19D4A0137974200D1D3E046469B4973
:10534000ED0821404A072A437C054D022D0B640DD0
:1053500024052C43F60734431000210003B0F0BCB1
:10536000BB46B246A946A046F0BD002A00D184E063
:105370004A46D21B002F00D06DE12500054300D125
:1053800027E1561E012A00D13BE2874DAA4200D1F7
:105390006AE20125382E12DC32001F2A00DDF8E116
:1053A00020262500B61A07005346B040D440B54029
:1053B000D740461EB0411B1B9A463D4305436246FB
:1053C000551BAC459241534652420E004F4688460B
:1053D0009C1A78E7002A00DC8EE04946002975D146
:1053E00061465346194300D1F6E0511E012A00D10F
:1053F00091E16D4DAA4200D1DCE00125382914DC91
:105400000A001F2A00DDA2E120215346891A8B40A1
:105410001D006346D3401D4363468B4019004B1E5D
:1054200099415346D3400D43E4182D1885428041DD
:1054300040422418230259D55B4B01379F4251D07B
:1054400001215A4B6A081C4029400A43E5071543CD
:1054500064085FE761465346194300D1BCE0511E22
:10546000012A00D164E1504DAA4200D16AE1012530
:10547000382900DD22E70A000EE74D4A7D1C15425F
:1054800000D0D0E025006246534605431A43002F62
:1054900000D037E1002D00D1A8E1002A00D16AE157
:1054A0006346C51A5346E21AA8429B415B42D31A8F
:1054B0001A0200D403E263461D1AAC4592415346DA
:1054C00052421C1B0E008846A41A23E736498F421D
:1054D00070D00125382AA8DC8021534609040B43EB
:1054E0009A468EE73C000025002231E707232B4037
:1054F000002B00D010E793E0002A74D04A46D21B5C
:10550000002F00D1C7E02849894500D185E1012558
:10551000382A12DC802109040C431F2A00DDABE18C
:1055200020212500891A070088408D40D740411E60
:105530008841D4403D430543A244654465459241BA
:105540005242524414004F4674E7280001F06CFDAB
:10555000030018331F2B00DCC2E62A000838824003
:105560009F4200DDA9E0DB1B581C1F2800DCACE1DA
:1055700015001F3BDD40202805D040231B1A9A4010
:10558000531E9A411543072300272B40B0E7ED082F
:10559000054B62072A43E4089F420FD02403250BE2
:1055A0007C05640DD4E6C046FF070000FFFF7FFFC7
:1055B000FE070000C00862070243E408130023430B
:1055C00000D186E180252D0325432D03C34C2D0BEF
:1055D000BEE6604654460E001700C508D8E7C04C2A
:1055E000FF1A144096E6BF4A791C11426BD1220083
:1055F0000243002F00D0DBE0002A00D12DE16246FB
:1056000053461A4300D1B6E06346C518854280412F
:10561000544440422418230202D50F00B04B1C40D2
:105620003A002800D8E76246851AA84292415346BC
:1056300052429146E31A1A004B46D21A1300914681
:105640001A0254D44A464C462A4300D040E600266B
:10565000002400257CE6A14DA94500D190E001255C
:10566000382A00DDABE680252D042C4395E6110099
:1056700055462039CD40A946202A06D04021534620
:105680008A1A934062461A43944665466B1E9D41B2
:105690004B461D4312E62100014300D1C4E0511ED8
:1056A000012A00D1FBE08D4DAA4200D1B5E00125D1
:1056B000382900DD41E70A002FE7894CFF1A144022
:1056C0006207E4086AE7854A914200D1E3E0634655
:1056D000C218824280412300404253441B18DD0718
:1056E0005C080723520815430F002B4000E7634670
:1056F0001D1AAC459241534652421C1B0E0088466F
:10570000A41AE5E5002D00D091E0002A38D18024CC
:105710000026240356E76346C51885428041544459
:10572000404224180127230200D4DFE6022787E63F
:105730006346C51AA842804153464042E41A0127F5
:10574000241AC0E56207C0080243E40836E71100E6
:1057500053462039CB409946202A06D04021534653
:105760008A1A934062461A43944665466B1E9D41D1
:105770004B461D4359E66207C0080243E4080DE7A3
:1057800053465A076346D80853460E000243DC08C6
:1057900014E715002600203DEE40202A03D04025C6
:1057A000AA1A94402043421E90410500354306E664
:1057B000002A7CD062465346C0081A4300D1FAE65C
:1057C000620710438022E4081203144208D0D9086B
:1057D000114205D16346D80853460C005B071843B5
:1057E000420FC000C00852070243E7E6002A00D17A
:1057F0002DE76346D80853465A070E000243DC08DB
:10580000CCE663461D1AAC459241534652421C1BDE
:105810000E008846A41A013755E56346D908534659
:105820005A070A43DC08C9E660465446D4E6C00875
:10583000002A00D1BFE6620710438022E408120369
:105840001442CDD0DD081542CAD16346D80853466C
:105850005B070E002C001843C2E76346D908534685
:105860005A070A43DC0899E66346D80853465A07A4
:105870000E000243DC08A1E6110027002039CF40CA
:10588000202A03D040218A1A94402043421E90418E
:1058900005003D4351E60C000025002258E5604418
:1058A00060459241544452420500A4183AE75346D9
:1058B0005A076346D90853460A43DC087EE61A00B5
:1058C0001C002A4300D0ABE6C1E620210025091ABE
:1058D00019E500220025014C3AE5C046FF0700000B
:1058E000FFFF7FFFFE070000F0B5DE464546574646
:1058F0004E46E0B587B0009201930B031B0B9B460D
:10590000CA0F4B00040080465B0D029200D16AE191
:10591000D44A934200D18CE15946420FC9000A4350
:10592000802109041143C2009046CF4A894692461D
:105930009A44002300240393009E019F3B031B0B0A
:105940009B467B0030005B0DFD0F002B00D128E152
:10595000C44A934200D177E15946720FC9000A4305
:105960008021090411438B46BF49F2008C46514601
:105970006344CB1A9A460023029E6E400F2C27D810
:10598000BA49A40009598F46CB464246029E039B62
:10599000022B16D0032B00D1A6E2012B00D0DFE0B2
:1059A00000220023002490461B052343F6073343BF
:1059B0004046190007B0F0BCBB46B246A946A04617
:1059C000F0BD002200249046A64BEDE72E00DFE755
:1059D000CB4500D2D4E100D1CFE101235B429C460C
:1059E000444648460027E2445B46150E1B021D4311
:1059F000190C2B04120200951D0C9146029103957F
:105A0000FEF712FC02006A430B04210C8046194386
:105A10008A4209D9009D0123AC465B4261449C4601
:105A2000E0448D4200D8FBE1881A0299FEF7FCFBA6
:105A3000039A240442430904240C03000C43A242A9
:105A400006D90099013B8C466444A14200D8E1E1AB
:105A5000A01A424612041A4393464B4659461B0C61
:105A60001D0004930B0449460904090C0C001B0C8F
:105A70005C43120C6B43884651436A43250CAC4689
:105A80005B186344994203D9802149028C466244E1
:105A9000190C24041B04240C8A181C19904202D3EC
:105AA00016D1A74214D25B46009D013B4F4405939B
:105AB0004F459B41AC465B426344C018854200D3CE
:105AC000A1E1824200D9F6E100D1F1E1059B9B46BC
:105AD0003C1BA742BF41009D801A7F42C01B8542EC
:105AE00000D1D0E10299FEF79FFB039A0B044243D9
:105AF000210C070019438A4200D978E1881A0299DB
:105B0000FEF792FB039A240442430904240C030089
:105B10000C43A24200D95DE14146A41A3A041A435B
:105B2000049D13041B0C594347466B439C46100CC1
:105B300047430B0CBC44634468439F4203D9802510
:105B40006D02AC4660441F0C09041B04090C3F188D
:105B50005B18BC4200D202E100D1FDE001231A43F0
:105B6000434B5344002B00DCAEE0510700D098E1DA
:105B70005946C90106D559463E4B194080238B46EC
:105B8000DB0053443C498B4200DD1AE75946D208FA
:105B9000490711435A465B0554028846240B5B0DA6
:105BA00002E75A46009B1A4300D17EE05B46002B79
:105BB00000D100E1584601F037FA020003000B3A29
:105BC0001D27009EBA1A19005846D6400839884049
:105BD000320002439346009A8A40284953448A4639
:105BE0009A440023C8E65B460343994656D05B4679
:105BF000002B00D1CDE0584601F016FA0B235B4292
:105C00009C460200844466461D239B1B260011000F
:105C10005846DE4008398840330003439946230044
:105C20008B409846164B00249B1A9A4600230393F8
:105C300082E65A46024391462AD100229A4602231E
:105C400090460824039377E65A46009B1A430D4B6F
:105C50009C46E244002A17D102231C4300239B46A2
:105C6000023389E6FF07000001FCFFFFD849010865
:105C7000FF030000FFFFFFFEFE070000F30300002C
:105C80000DFCFFFF01F8FFFF032332001C4373E606
:105C90009A460323D9460C2403934DE600239846E5
:105CA0009A4601330424039346E601231C43002350
:105CB0009B46013360E60023802498460026924BE1
:105CC000240371E6012252420121C91A382900DD5C
:105CD00066E61F2900DCABE01F204042C31A58468D
:105CE000D8400300202904D05846884951448840B0
:105CF0000243511E8A411A43072319000024114010
:105D000013420CD00F231340042B00D1F9E0111DD6
:105D100091429B410A005B4259075B021C0BD2086F
:105D20000A43904600233FE680244B462403234247
:105D300009D05B46234206D11C4324032E00904623
:105D4000714B240B30E680244B4624031C43240370
:105D5000029E6D4B240B27E6002B00D100E7009834
:105D6000511E84466444844200D284E0BC4200D286
:105D7000AEE000D1C1E00A00F0E6424500D92CE6D1
:105D80004B46DC07580843465B081C434346DF0785
:105D90002AE601F049F915239C4684440200634633
:105DA00020321C2B00DC2EE7230008388340994664
:105DB0000023984636E701F037F902000300153258
:105DC00020331C2A00DCFBE60099083881400022C1
:105DD0008B4602E70099013B8C466444A14200D9FE
:105DE0009AE6A24200D897E6831E644494E6AC4645
:105DF0006144013F8D4200D980E68A4200D87DE6A9
:105E0000871E61447AE6854200D05FE6B94500D935
:105E10005CE656E6A24200D81AE6831E644417E602
:105E20008A4200D800E6AC46831E98466144FBE5F2
:105E300037481400504482405B4617008340CC40F2
:105E40007A1E974123433B431A005B46CB405107E0
:105E500009D00F211140042905D0111D9142924112
:105E600052429B180A00190200D455E70022012370
:105E70000024904698E50A00BC4200D06EE64B45EF
:105E800000D06BE66CE6234B234A5344924500DA7C
:105E900018E7012149420A1D8A42894149428B443F
:105EA00066E60F211140042900D161E61100F2E7F6
:105EB000BC4200D80AE602235B429C4600994F444C
:105EC0004F459B41E3448C465B426344C018FFE569
:105ED0004946009D480048458941AC4649426144D5
:105EE0008146023A6418C7E780245B4624031C43BA
:105EF00024039046044B240B56E59945E8D30A0049
:105F0000BDE7002308E7C046FF0700003E0400008D
:105F10001E040000FF03000002FCFFFFF0B557461F
:105F2000DE464E464546E0B50D000400E80F8346C8
:105F30000903D80F090B824619488C461F036900D4
:105F40005E00490D3F0B760D814218D086420FD07E
:105F50000120B1420DD1BC450BD1944209D1D345AA
:105F60001CD0002905D160462043431E984100E023
:105F70000120F0BCBB46B246A946A046F0BD0120B8
:105F80008E42F6D1614639430F0017432743F0D1C3
:105F90005B465246981A431E9841EAE70020E8E71C
:105FA000FF070000F0B557464E464546DE46E0B5D1
:105FB0000D000F03390B83B0040080460191580097
:105FC000E90F314F400D8C466E0019038246914611
:105FD000760D090BD80FBE421FD0BA450FD0002E48
:105FE0002FD15546019E3443002D27D10A433AD084
:105FF000002C45D100281AD10120404217E011435E
:106000003BD1002E02D1019F2743F3D0844509D113
:106010006346002BF0D0604609E0019F27432CD156
:10602000B24524D063460220013B1840013803B03A
:10603000F0BCBB46B246A946A046F0BD002CD9D064
:10604000E4E75446002CEDD08445EBD15645E9DC1D
:10605000DEDB019B8B42E5D8DAD1C845E2D80020CF
:10606000C845E4D2D4E70020002CE0D0DAE71143A1
:1060700003D18445D6D10020D9E702204042D6E79B
:106080008445E6D0CEE7C046FF070000F0B557468E
:106090004E464546DE46E0B50D000F03040080463F
:1060A000E80F390B844683B05800304F400D019102
:1060B0001E03690082469146490D360BD80FB9423E
:1060C00020D0BA450FD000292BD101990C4351465D
:1060D000002937D1324338D0002C44D1002819D1BF
:1060E0000120404216E0164313D1002902D1019F3E
:1060F0002743F3D0844520D063460220013B18405B
:10610000013807E0019F274303D18A45F4D11643A4
:106110001FD0022003B0F0BCBB46B246A946A04641
:10612000F0BD5446002CE7D08445E5D15145E3DC71
:1061300003DB019BB342DFD80FD06346002BCFD0E7
:106140006046E7E7002CC9D0D4E70020002CE1D05E
:10615000D2E78445D0D10020DCE7C845CCD8002068
:10616000C845D7D2E9E78445E3D0C5E7FF0700007B
:10617000F0B55746DE464E464546E0B51F000B03D8
:106180001B0B16009A46CA0F4B000400934687B0BB
:106190005B0D00D1D5E0BB4A934200D1F8E05146F7
:1061A000420FC9000A43802109041143C2009146ED
:1061B000B54A8A469D180023984602933C037B000B
:1061C000FA0F3000240B5B0D009200D196E0AD4A2F
:1061D000934231D0720FE4002243802424041443FC
:1061E000A94AF000944663445B195A1C0192424646
:1061F00000260A2A42DC5A4600994A409346424603
:10620000022A32DC013A012A00D949E1022E00D1EA
:10621000CAE0012E3DD100230024002210005A467E
:106220001B052343D2071343190007B0F0BCBB463C
:10623000B246A946A046F0BD924B2643EB18002E6D
:1062400000D1BBE00322414611435A4688460099DB
:106250004A40802109018C46290061440191414650
:106260000A2900DD33E29346032642460127974080
:10627000A6213A00C9000A400F4231D0029E022EE8
:1062800000D135E2032E00D1D2E154464846012E1A
:10629000C1D0019A7D4B94466344002B00DCC0E0E2
:1062A000420709D00F220240042A05D0021D824273
:1062B0008041404224181000E20106D5744B019A37
:1062C0001C4080239446DB006344724A93426BDC9B
:1062D0006207C00864025B050243240B5B0D9DE767
:1062E000902189000F4263D188223A4200D1D7E041
:1062F000009BA2469B4681460296BFE7230033439C
:1063000000D17FE0002C00D1ADE1200000F08CFE38
:10631000020003000B3A1D201900821A30000839D0
:10632000D0408C400443300088405B4AEB1A9446CE
:1063300063445A1C0192424600260A2A00DC5AE7AE
:106340009CE753460343994654D05346002B00D153
:1063500077E1504600F068FE0B235B429C4602004A
:10636000844411005046083988401D238046604609
:106370001B1A2000D8400300404603439A462300DE
:106380008B4099460023444D9846AD1A029315E779
:1063900052460243914626D100221D000223924616
:1063A00008329046029309E700240022354B35E776
:1063B000002380249B462403324B2FE702224146D0
:1063C00011438022120194462A00624488460192B9
:1063D0000A2900DD52E75A460020009904004A408D
:1063E000934602260BE70C221D00032381469046AC
:1063F0000293E3E600239A4604339846033B0025C4
:106400000293DBE6424601331A432B0090465A1CA6
:10641000019242460024002001260A2A00DCEAE616
:106420002CE70122D21A382A00DDF4E61F2A00DC0C
:106430002AE11F214942CB1A2100D9400B00202A12
:1064400005D0164A019D94466544AC402043421E47
:1064500090411843072319000024014003420CD047
:106460000F230340042B00D140E1031D8342A441CC
:106470001800644261076402240BC20800230A4327
:10648000CCE6C046FF07000001FCFFFFFF03000051
:10649000FFFFFFFEFE0700000DFCFFFF3E040000B3
:1064A00049464A460904090C0D00160C020C00046A
:1064B000000C4543AC4605007543A84615000F0087
:1064C0007543009202952A00009D6F4365462D0C8E
:1064D000A94647444F44B84505D9150080225202C9
:1064E0009046454402953D0C039565462D043F04B6
:1064F0002D0CAC463D0065440495250C2404240C69
:10650000AC4625007543A84665460F0069434144E3
:1065100089466743390C49446E43884503D9802234
:106520005202904646440D0CA84635004544059558
:10653000039D3F04A8463F0C0904C91988444546F9
:10654000039555462E04360C2F0C350045437843F1
:1065500081463800A8462D0CAA46009A5043724343
:106560004A445244914503D980256D02A9464844C6
:10657000150CA94645462D042D0CA84665467D43BD
:10658000120448449044A9463200654662436E4373
:106590007C43170C3619BF19BC4203D9802464020E
:1065A000A446E144029C039EA446059D66448E4297
:1065B0008941AC4612043C04120CA21862444942C0
:1065C00054184644A4464645A44182466442A04627
:1065D000AA4292418C458941E244D0444942524208
:1065E0000A43A045A44182458941644249420C4383
:1065F00041463F0CD2191219CC0D04997002084380
:10660000411E884141464A44F60D52023043490238
:1066100014430843D20135D50122430802401343F5
:10662000E0071843640834E6009BA2469B46814677
:106630008024534624031C4324034A462E4B240B38
:10664000ECE500F0F1FC15239C468444020063460F
:1066500020321C2B00DC84E60023994623000838F6
:1066600083409A468EE600F0DFFC020003001532FC
:1066700020331C2A00DC4EE602003400083A0020D9
:10668000944052E6019304E61C4B21009C46030013
:10669000019DD3406544A94019430300AB40581EF7
:1066A000834119430800D4404B0709D00F230B4006
:1066B000042B05D00B1D8B4280414042241818004A
:1066C000230200D4D6E6012300240022A6E50F29E8
:1066D000AAD1802352461B031A42A9D01C42A7D13B
:1066E0001C43009B02009B46034B97E50024C1E638
:1066F0000024014B220091E5FF0700001E0400006A
:10670000F0B54E464546DE465746E0B585B00090AA
:1067100001910C034F00CE0F610A009CB046640F3C
:106720000C4300997F0DC80011001A001B039C4602
:106730000091019251004B0D9946019B009DD90F8C
:1067400063466A0F5B0A1343EA0094469346C14AC4
:1067500003900293914500D1CDE0012569404D465B
:106760007D1BAA468E4200D180E0002D00DC35E37F
:106770004946002900D1DFE0974200D194E152461A
:106780000125382A19DC8022029B1204134302934C
:1067900052461F2A00DDE3E1534620226146029D56
:1067A000D21A9540D9400D43614691400A00511ECE
:1067B0008A411543029ADA40A41A451BA842804137
:1067C0004042241A230200D43DE16402640A002CF2
:1067D00000D147E1200000F027FC0300083B202106
:1067E0002800CA1AD0409C4002009D4022439F428C
:1067F00000DD77E1D81B0130091A2C008D40C44020
:106800006B1E9D411300C2408B402543002714009E
:106810001D436B0709D00F232B40042B05D02B1DE4
:10682000AB42AD416D4264191D00230200D440E12A
:10683000884A0137974200D101E101264346864943
:10684000ED0821404A072A437C054D022D0B640DBB
:106850001E4024052C43F60734431000210005B0E8
:10686000F0BCBB46B246A946A046F0BD002D00DCF8
:10687000D0E24946002900D0D4E06146029B19438A
:1068800000D12BE1691E012D00D1D9E1954200D143
:106890000AE10125382917DC8A4653461F2B00DD03
:1068A000E7E12022D21A029B614693401D00534625
:1068B000D940634693401A000D43511E8A41534606
:1068C0001543029ADA40A4182D18854280414042AF
:1068D0002418230200D4B6E05E4B01379F4200D15A
:1068E000ADE001215C4B6A081C4029400A43E507E2
:1068F000154364088DE7594A029B92466246BA44A2
:106900001A432CD08E422ED05246002A60D0002F3F
:1069100000D1DBE063460E00029CD8086207024308
:10692000E4081300234300D154E280252D032543BE
:106930002D03484C2D0B8CE76146029B194300D177
:10694000CCE029000139012D00D188E1954200D128
:10695000AAE00125382900DD2FE78A4618E7012241
:1069600051408E42D0D15346002B00D1BEE0002FC3
:1069700000D038E1CA462200024300D1E2E153468A
:10698000591E012B00D10DE2324A924500D1D2E1CD
:106990000127382913DC1F2900DDEEE12022029BAC
:1069A000521A250007009A46CC4090409540CF40AF
:1069B000A244421E904153462F43074302933D0099
:1069C000654465459241029B52424F46D41880E788
:1069D000234A7D1C154200D0AAE062462500029B96
:1069E00005431A43002F00D0F5E0002D00D16BE1E4
:1069F000002A00D152E16346C51A029BE21AA8425E
:106A00009B415B42D31A1A0200D4D5E163461D1A9A
:106A1000AC4592410126029B52421C1B8846A41A97
:106A20000E40F6E697423FD052460125382A00DD57
:106A30004AE78022029B1204134302932DE73C0095
:106A40000025002205E707232B40002B00D0E2E6BB
:106A50006BE0C046FF070000FFFF7FFF01F8FFFF6C
:106A6000FE070000280000F0DFFA030018331F2B98
:106A700000DCB4E62A00083882409F4200DDB9E01D
:106A8000DB1B581C1F2800DCA0E115001F3BDD406C
:106A9000202805D040231B1A9A40531E9A411543C3
:106AA000072300272B40D0E7C00862070243E40811
:106AB00037E7EA0863071A43D34BE4089F4200D143
:106AC0002FE72403250B7C05640DC2E6CA4622008D
:106AD000024358D163460E00029C0393039B574622
:106AE000DA08E7E7C94CFF1A144092E6C84D7A1C51
:106AF0002A4200D084E022000243002F00D0EFE0C1
:106B0000002A00D1E5E0624602990A4300D1C5E0BF
:106B10006346C5188C46854280416444404224182F
:106B2000230202D5B94B01371C40BA460395D5E77D
:106B30006246851AA842924152429146029BE31A4C
:106B40001A004B46D21A130091461A026CD44A46D8
:106B50004C462A4300D03AE600260024002578E679
:106B6000029953460D00203AD540202B06D04022F2
:106B7000D21A0B00934062461A4393465B465A1E54
:106B800093411D4319E653465A1E012B00D1C6E01E
:106B90009D4EB24500D1BDE688460E000125382A3B
:106BA00010DC1F2A7FDC20212500891A070088407D
:106BB0008D40D740D440411E8841029B3D431B1B62
:106BC000054302936246551BAC459241029B5242DB
:106BD0004F469C1AF6E5002D00D0B7E0002A00D100
:106BE000F0E001260E4063460298D90842070A43A6
:106BF000C40896E6854CFF1A14406207E40860E773
:106C000081498A4200D1C9E06346C118814280416E
:106C1000029B4042E3181B18DD075C080723490864
:106C20000D4317002B4010E763461D1AAC459241F7
:106C30000126029B52421C1B8846A41A0E40C6E540
:106C40006346C518029B854280419C46404264448D
:106C500024180127230200D4F5E6022741E6634603
:106C6000C51AA8428041029B4042E41A0127241A17
:106C7000A8E5029D52462B00203AD3401900534606
:106C8000202B06D04022D21A2B00934062461A4392
:106C900093465D466B1E9D410D4315E66207C00895
:106CA0000243E4080DE7110027002039CF40202AD5
:106CB00005D040218A1A9440250005430395039D81
:106CC0006A1E95413D437DE7002A00D144E7012635
:106CD0000E406346D908029B5A070A43DC08F0E6D7
:106CE000002A28D06246029FC0083A4300D1DCE661
:106CF000620710438022E4081203144209D0FD0801
:106D0000154206D1634601262C00D8087B0718439C
:106D10000E40420FC000C0085207024301E663461E
:106D20001D1AAC459241029B52421C1B0E00884624
:106D30000127A41A46E56346D908029B5A070A436D
:106D4000DC08EEE56346029C0393C7E6C008002A10
:106D500000D1AAE6620710438022E408120314421D
:106D6000D7D0029FFD081542D3D163460126D8082B
:106D70007B072C0018430E40CBE70A002700203A7F
:106D8000D740202905D04022521A944025000543BF
:106D90000395039D6A1E95412F4310E614000025BC
:106DA000002256E5029B60449946604592414C445E
:106DB00052420500A4184CE71A001C002A4300D0D8
:106DC000B3E6C9E6802400262403AEE52021002591
:106DD000091A17E5002200250B4C3AE5002D00D1D9
:106DE000F6E54B46DA1B9246002F00D16FE6382AB3
:106DF00005DC80263604344388460E00D1E68846FA
:106E00000E000125DEE6C046FF070000FFFF7FFF02
:106E1000FE070000002D00D168E64B46D91B002F6D
:106E200001D18A46A7E50127382900DDC7E5802280
:106E300012041443AFE5C046F0B5C6461E03360B38
:106E4000B0460D4E0C034D005F0000B5240B6D0DD8
:106E50007F0DB5420BD0084900208F4204D1464631
:106E600016433000431E984180BCB846F0BD044331
:106E70000120002CF8D1EEE7FF0700000B00020014
:106E800070B5164D0C0382B04900002000920193AA
:106E9000240B490DDE0FA94204DD1148814203DDB8
:106EA000104BF01802B070BD8020400320430E4C00
:106EB000641A1F2C08DD0D4B5B1AD84003005842A2
:106EC000002EEFD11800EDE7094B009A9C46030015
:106ED00061448B40E2401343F1E7C046FE030000EB
:106EE0001D040000FFFFFF7F3304000013040000B7
:106EF000EDFBFFFF70B5002816D0C317C5185D4025
:106F0000C40F280000F090F8104B1B1A5B055B0DB6
:106F10000A2814DC02002E00153296400B22121AA9
:106F2000D5402D032D0B03E000240023002500266F
:106F30001B052B43E40723433000190070BD0B38B9
:106F400085402D0300262D0BF2E7C0461E040000ED
:106F500010B5041E10D000F067F80E4B1B1A5B052D
:106F60005B0D0A280FDC0B222100121AD1401530CC
:106F70000A038440120B01E0002300221B05134387
:106F80002000190010BD22000B388240120300249B
:106F9000120BF3E71E04000070B542024300C40F59
:106FA000FE201B0E591C550A08420CD0E021890016
:106FB0008C466D07120B63441B051343E407234300
:106FC0002800190070BD002B14D1002D1BD0280003
:106FD00000F02AF80A281CDC0B232A001B1ADA40CE
:106FE000030015339D400E4B12031B1A5B05120B59
:106FF0005B0DE1E7002D09D0130B802212031A4329
:107000006D07084BD8E700230022D5E70022054B87
:10701000D2E703002A000B3B9A400025E3E7C04675
:1070200089030000FF0700001C2101231B04984274
:1070300001D3000C10391B0A984201D3000A083909
:107040001B09984201D30009043902A2105C4018C0
:107050007047C04604030202010101010000000064
:107060000000000010B5002903D1FFF7DDFF20303C
:1070700002E00800FFF7D8FF10BDC046084B1A78A1
:10708000010A9A1811711A780132D2B21A701A785C
:10709000C0B29A1810711A780132D2B21A707047C1
:1070A0000401002010B50C00134B1B781B1AD9B239
:1070B000FF230FE05B00DBB2013AD2B2002A07D017
:1070C00058B20028F6DA5B0031204340DBB2F3E728
:1070D0000131C9B2A14205D2074A52181279534070
:1070E0000822EBE7044A117851180B711378013329
:1070F000DBB2137010BDC04604010020F0B50924B6
:107100000CE0661E094BB5005D19AF69A4001B19A0
:107110009F612C6C1C64AC6E9C66F4B2002CF0D1A8
:10712000024B986199661A64F0BDC04604010020C4
:1071300010B5002406E00020021C011CFFF7DEFF52
:107140000134E4B2082CF6D910BD0000F0B5DE46DB
:1071500057464E464546E0B583B08346894690463D
:10716000394B1B7C1E2B1CD8642303600B60C83377
:107170004246136003B0F0BCBB46B246A946A046E7
:10718000F0BD0134E4B2092C0ED8304BA2009B189C
:1071900098692F49FDF79CF90028F2D00137FFB21A
:1071A000EFE700240027EEE700240023019300937B
:1071B0009A4601E00134E4B2092C2CD8234BA200FA
:1071C0009B189D692249281CFDF782F90028F1D0FF
:1071D0003800FDF797FF061C011C281CFDF74EFC2C
:1071E000011C5046FDF7C0FA8246184DA300ED1869
:1071F000A86E311CFDF742FC011C0098FDF7B4FAA3
:107200000090286C311CFDF739FC011C0198FDF73A
:10721000ABFA0190CEE70F495046FDF715FEFDF79A
:1072200051FF5B4618600B490098FDF70DFEFDF716
:1072300049FF4B46186007490198FDF705FEFDF729
:1072400041FF4346186095E78401002004010020B7
:10725000000016430000C84210B582B002000B00C7
:107260000A4C14210091AE31200009F0F3FF0028F0
:1072700001D102B010BD05480AF060F90428F8D029
:107280000348044905F07CF8F3E7C0469801002064
:10729000184A01080F02000070B50500094C0023D0
:1072A00023708C20C001FFF7E9FE2800FFF7E6FEFF
:1072B00004210220FFF7F6FE2178C9B2201DFFF756
:1072C000CBFF70BD0401002010B5094C00232370D2
:1072D0001020FFF7D3FE0020FFF7D0FE042102208C
:1072E000FFF7E0FE2178C9B2201DFFF7B5FF10BD02
:1072F0000401002010B582B002000B000A4C1421DA
:107300000091AF3120000AF05FF8002801D102B0EF
:1073100010BD05480AF012F90428F8D08821034866
:10732000890005F02DF8F2E798010020184A0108BD
:1073300070B50C4C002323700B48FFF79FFE21789B
:10734000C9B2201DFFF788FF084D2C0068340321C7
:107350002000FFF7CFFF6823EB5C1B026078184327
:1073600070BDC0460401002002020000840100201C
:10737000F0B5C64600B507000E0015001C4C0023F2
:107380002370C0208000FFF779FE2178C9B2201D4C
:10739000FFF762FF174B98461C006834122120004B
:1073A000FFF7A8FF68234246D35C1B0662781204ED
:1073B0001343E27812021343227913433B60A3790B
:1073C0001B06E27912041343627A12021343A27A73
:1073D00013433360237B1B06627B12041343E27B5F
:1073E00012021343227C13432B6080BCB846F0BDCD
:1073F000040100208401002010B51C481C4B43618F
:107400001C4B83610023C3610122026243628362D9
:10741000C36203634363143009F0B6FE002816D13B
:10742000154800210AF08CF8002815D112480021D7
:107430000AF0B2F8002814D10C4B00227C215A54D7
:1074400001315A5408F0D0FB0C4B186010BD0C48A9
:107450006E2104F095FFE3E70948742104F090FFE2
:10746000E4E707487A2104F08BFFE5E78401002078
:10747000007800406D3D300098010020040200209B
:10748000184A010810B508480021FFF7E5FE022060
:10749000FFF702FFFFF718FF08F0A6FB034B186089
:1074A000FFF746FE10BDC046080100200402002080
:1074B00000B585B008F098FB2A4B1B68C01AFA2368
:1074C000DB00984204D9284B7C229B5C002B0FD018
:1074D00008F08AFB234B1B68C01AFA239B009842D2
:1074E00004D9214B7C229B5C012B08D005B000BD48
:1074F000FFF7C8FF1C4B7C2201219954E8E71A4B87
:1075000001329B5C002BF1D1174B1B7C1E2B02D848
:10751000154A01331374FFF70BFF01280BD0114BF1
:107520001B79022B1AD80F4A0133137108F05CFB48
:107530000C4B1860DAE70C4B1B7C1D2B03D8094B56
:1075400000221A71F2E703AA02A901A8FFF710FFAF
:10755000029A03990198FFF7D1FDF0E7FFF7E8FDE4
:10756000E4E7C046040200208401002010B584B086
:107570000400002303930293019301AA02A903A824
:10758000FFF7E4FD012C0AD0022C06D0002C02D01B
:10759000002004B010BD0398FBE70298F9E70198BA
:1075A000C82801DDC838F4E70020F2E702E0013026
:1075B000137001320378002BF9D102E0013113700E
:1075C00001320B78002BF9D11370704770B500248D
:1075D00004E01519065D4E550134E4B29C42F8D31F
:1075E00070BD10B504000A2008F066FA01F0DCFE58
:1075F00001F0E2FE200001F0F3FE10BDF0B583B013
:1076000007000D00160000240EE03A5D084901A8AD
:107610000BF080F963006A461279EA5401336A4636
:107620005279EA540134E4B2B442EED303B0F0BD6F
:107630002C4A010870B504000D000A2008F03CFA3D
:1076400001F0B2FE01F0B8FE2900200001F000FFB9
:1076500070BD0000F0B5D6464F464646C0B582B074
:1076600004000190884608F0BFFA314B18600022F0
:107670009A80230000255A1C1E78002E03D0013565
:10768000ADB21300F7E7022706E0294B9B889BB2B7
:10769000AB4238D208F090F908F0A6FA244B1B68E8
:1076A000C01A40453CD2002E3AD101F0B3FD00286B
:1076B000F0D11F4B99469B889AB2924601339BB2F8
:1076C0004A46938001F0B0FD53464B4418724B4636
:1076D0009B889BB2632BD8D9154B00229A80D4E7A4
:1076E00001339BB204009D420AD95818104A12185F
:1076F000127AD2B2601C2478A242F1D00096EFE751
:107700000137BFB2009E3900094B9B885B1B9F422B
:10771000C0DC002EBED1019C002301220092E2E7D2
:10772000300002B0E0BCBA46B146A846F0BDC04643
:107730000C02002010B598B004000D481D23002253
:107740006946FFF743FF102210A92000FFF756FFFC
:1077500020231D22694610A8FFF738FF3D21684607
:10776000FFF768FF03486421FFF774FF18B010BDEE
:10777000344A0108544A010870B580256D00094C4F
:1077800000222900200009F050FB052008F094F9A0
:1077900001222900200009F048FB03480349FFF7B4
:1077A00059FF70BD00040050544A010888130000BE
:1077B00070B51048FFF715FF0F483221FFF74AFF59
:1077C000002800D070BD80252D02A024E4050022F1
:1077D0002900200009F029FB052008F06DF901229D
:1077E0002900200009F021FB03480449FFF732FF7C
:1077F000E8E7C046584A0108544A010888130000C7
:1078000010B5084C2000FFF7ECFE322008F054F9C8
:107810002000FFF7E6FE322008F04EF90248FFF79D
:10782000E0FE10BD5C4A01086C4A0108024B6C2264
:10783000985CC0B27047C0460C02002030B58FB0D3
:10784000244C2000FFF7CDFE322008F035F920004F
:10785000FFF7C7FE322008F02FF91F4C1F4801AA7E
:107860002100FFF7A3FE01A8FFF7BBFE1C4801AAF9
:107870002100FFF79BFE322008F01EF9642101A8C9
:10788000FFF7E8FE0400012803D0002420000FB019
:1078900030BD322008F0AEF91248FFF7A2FEC82131
:1078A00011484900FFF7D6FE051EEFD101E0013572
:1078B000EDB2092D0CD8002808D1C8210A4849008A
:1078C000FFF7C8FE0028F2D02000F0E70400DDE753
:1078D0000400DBE75C4A0108F7270020804A010822
:1078E0008C4A01089C4A0108544A0108F8B5050071
:1078F000114C6C260023A355FFF75AFF0F4F380099
:10790000FFF76FFE322008F0D7F83800FFF769FE66
:10791000322008F0D1F82700703709483A002900D2
:10792000FFF744FE3800FFF75CFE064B01222221E0
:107930005A54A255F8BDC0460C0200205C4A01080A
:10794000B04A01088C02002010B50448FFF749FE38
:1079500003486421FFF77EFE10BDC046E44A0108DB
:10796000544A010810B5FFF723FF10BD30B591B0A0
:10797000041E70D009236A4613705370554BA82219
:107980009A5C69468A70A9229A5CCA70AA229A5C9B
:107990000A71AB229A5C4A71AC229A5C8A71AD2260
:1079A0009A5CCA71AE229A5C0A72AF229B5C4B72DF
:1079B0004948FFF716FE49483221FFF74BFE0028E1
:1079C0002BD00025464B2322012199544548FFF72F
:1079D00008FE45480923002208A9FFF7F7FD0A22FF
:1079E00003A96846FFF70AFE1423092208A903A881
:1079F000FFF7ECFD0024042C13D81D2108A8FFF785
:107A000019FE36486421FFF725FE012809D03220EF
:107A100008F052F80134E4B2EDE7FFF7A3FF0125C7
:107A2000D0E7962008F048F8304B6C229B5C012B85
:107A300004D0012D4CD1FFF787FF49E02C4C2D4994
:107A40002D482200FFF7B2FD2000FFF7CAFD962067
:107A500008F032F8EDE7294B1A8869460A809B78CE
:107A60008B70274D2800FFF7BCFD322008F024F86A
:107A70002800FFF7B6FD322008F01EF8184B23222D
:107A80000021995418480923002208A9FFF79EFDF8
:107A9000032203A96846FFF7B1FD0623092208A9BE
:107AA00003A8FFF793FD042C0FD80F2108A8FFF7B8
:107AB000C1FD0A486421FFF7CDFD012805D0322021
:107AC00007F0FAFF0134E4B2EDE70A2007F0F4FF13
:107AD00011B030BD30270020584A0108544A01082F
:107AE0008C020020EC4A0108F84A01080C02002030
:107AF0007C020020D8270020B04A0108044B01086E
:107B00005C4A010830B58FB0804B6C22002199543B
:107B1000FFF732FEFFF74CFE7D48FFF762FD322093
:107B200007F0CAFF7B48FFF75CFD322007F0C4FF77
:107B30007948FFF756FD7948FA21FFF78BFD0400DD
:107B4000012800D173E00025322007F0B5FF74480A
:107B5000FFF747FD73486421FFF77CFD002800D143
:107B600091E07148FFF73DFD70486421FFF772FD19
:107B7000002800D192E0322007F09EFF6C4B2222B9
:107B80009C5C012C00D196E06A48FFF72AFD0A2090
:107B900007F092FF6848FFF724FD0A2007F08CFFEA
:107BA0006648FFF71EFD0A2007F086FF6448FFF7CE
:107BB00018FD0A2007F080FF6248FFF712FD0A2037
:107BC00007F07AFF6048FFF70CFD0A2007F074FF0A
:107BD0005E48FFF706FD5E485E49FFF73BFD544BEC
:107BE0002322012199540120FFF7C0FE5A4C5B4823
:107BF00001AA2100FFF7DAFC01A8FFF7F2FC5848C0
:107C000001AA2100FFF7D2FC6E2101A8FFF722FD97
:107C1000544B1870012855D0012D64D0514B0022CF
:107C20001A703A4B6C32012199540FB030BD32209A
:107C300007F042FF4C48FFF7D4FC4C48FA21FFF70D
:107C400009FD002816D00025322007F035FF4848EE
:107C5000FFF7C7FC4748FA21FFF7FCFC002800D0DB
:107C600072E74548FFF7BDFC39486421FFF7F2FC95
:107C7000250069E74148FFF7B4FC35486421FFF768
:107C8000E9FC2500E0E73E48FFF7ABFC322007F0B7
:107C900013FF3C48FFF7A5FC012562E7323007F0EF
:107CA0000BFF2249384801AAFFF780FC01A8FFF723
:107CB00098FC01255FE7002199543448FFF791FCB7
:107CC000250061E73248FFF78CFC21486421FFF76B
:107CD000C1FC002803D0234B01221A709CE7214BE2
:107CE00000221A7098E7322007F0E6FE2948FFF7D5
:107CF00078FC174C64212000FFF7ACFC2648FFF706
:107D000070FC14492000FFF7A5FC87E70C02002057
:107D1000084B0108104B0108184B0108204B0108C3
:107D2000784B0108844B0108AC4B0108D827002090
:107D30008C020020B84B0108C84B0108DC4B01083D
:107D4000F04B0108044C0108184C01082C4C0108A8
:107D5000544A010888130000F7270020804A0108D0
:107D60008C4A0108E9020020284B0108344B010825
:107D7000504B01085C4B0108684B0108404B01085F
:107D8000904B01089C4B0108B04A01087C0200207E
:107D90009C4A0108344C01083C4C010810B5040011
:107DA000FFF706FD2000FFF7C5FC10BDBFF34F8FA6
:107DB000034B044ADA60BFF34F8FC046FDE7C0466D
:107DC00000ED00E00400FA05F0B5324B1978324BB3
:107DD000CA00521A51005B1801225A7300230CE0AA
:107DE0009A1D2C4908782D498C5C2B4AC100091A30
:107DF00048001218D4540133DBB20B2BF0D91423F2
:107E000001E00133DBB2254AD25C2C2A01D0182BC9
:107E1000F7D9013BDBB21F4A10781F4AC100091A8B
:107E20004800121800211173012215E01B49C85C9B
:107E30003038504317490E781749F400A71B7D00CE
:107E40004D192D7B7E00891928180873910051184F
:107E50004A00D2B2013BDBB2142BE7D80F4B1B7D9B
:107E60002D2B0AD00B4B1B78DBB2612B04D8094AAF
:107E700013780133DBB21370F0BD064B1878064B54
:107E8000C200141A61005918097B60001B1849428E
:107E90001973E7E7D4020020C0100020140300206B
:107EA00030B51B4B1B78D8B2002B2FD0194B0C24AC
:107EB0001C570123002501E00133DBB2632B10D8EE
:107EC000144AD900C91A48001218527B012AF3D16A
:107ED000104A1218127B52B2A242EDDD14001D00AE
:107EE000EAE700230BE00B4AE900491B480012189F
:107EF000D15C094AD218C73211700133DBB20B2BA7
:107F0000F1D9054BD32200219954012030BDC04640
:107F1000D4020020C010002030270020F0B583B02C
:107F200003000190002702E00137BFB213005A1C82
:107F300018780028F8D1022411E001339BB23500F3
:107F40009F4209D95A180D4EB25CD2B26E1C2D78E0
:107F5000AA42F2D00090F0E70134A4B200982100C8
:107F6000074B5B88DB1B9C4206DC002804D1019D8B
:107F7000002301220092E3E703B0F0BD08050020D2
:107F8000D4020020094B9B889BB2002B02D1074BE7
:107F900000229A71054A938899B201339BB293806B
:107FA000034B58549379434093717047D402002097
:107FB000DC03002010B50400C0B2FFF7E3FF200A85
:107FC000FFF7E0FF10BD10B5040080B2FFF7F2FF2D
:107FD000200CFFF7EFFF10BD70B50E00002406E087
:107FE000451C0078FFF7CEFF0134A4B22800B4424C
:107FF000F6D370BD70B50400FA218900FCF78EF845
:1080000086B2C0B23030C0B2FFF7BCFFFF252E40B1
:10801000FA239B0073439BB2E41AA4B264212000AC
:10802000FCF77CF886B2C0B23030C0B2FFF7AAFFCE
:108030002E4064235E43B6B2A41BA4B20A212000E2
:10804000FCF76CF886B2C0B23030C0B2FFF79AFFCE
:108050003540AB00ED186D00601BC0B23030C0B2CF
:10806000FFF790FF70BD70B504000A21FCF756F8C9
:1080700085B2C0B23030C0B2FFF784FFFF232B407F
:108080009A009B185B00E01AC0B23030C0B2FFF714
:1080900079FF70BD064A135C99005B185B002033C2
:1080A000DBB20130125C303A9818C0B27047C0465B
:1080B000080500200330024B185CC0B27047C04670
:1080C0000805002070B505000130C0B2FFF7F2FFCF
:1080D0000402A4B22800FFF7EDFF001980B270BDC2
:1080E00070B504000230C0B2FFF7ECFF05042000B9
:1080F000FFF7E8FF401970BDF0B5C64600B50500B2
:108100000F009046002409E06E1C43461819C0B2C7
:10811000FFF7D0FF28700134A4B23500A742F3D88E
:1081200080BCB846F0BD000010B52021044808F01E
:1081300075FE002801D0002010BD0120FCE7C046DC
:108140000004005070B5154B1B899BB2012B0DD15B
:10815000124B9B7A012B00D070BD104B00229A72FB
:108160001A81F9E707F040FD0C4BD86001F052F896
:108170000028F1D1094C6588ADB201F055F8084BE3
:108180005855638801339BB2638063889BB2054A6C
:108190009342E7D9014B00225A80E3E7D402002042
:1081A00008050020B70B000010B5FFF7CBFF224BEE
:1081B0005B889BB2002B3AD0204B1B78DBB2882B1C
:1081C00004D01D4B00225A80002031E007F00CFD46
:1081D000194BDB68C01AFA239B009842F1D8164B62
:1081E0005B889BB2012B24D9134B5A8892B2134B54
:1081F0009B7804339A4201D0002019E0002300212B
:1082000004E00E4AD25C51400133DBB20A4A528884
:1082100092B29342F5D3002904D0074B00225A8032
:10822000002005E0044B00225A80012000E00020DD
:1082300010BD0020FCE7C046D40200200805002045
:1082400010B5FFF77FFF294B5B889BB2002B49D00D
:10825000274B1B780D2B08D0254B5B780A2B04D0BD
:10826000224B00225A8000203DE0204B5B889BB2CD
:10827000042B39D91D4B5B88023B1D4AD35C0D2B67
:1082800007D01A4B5B88013BD35C0A2B01D000203E
:1082900029E01848FFF742FE012807D1134B0222BC
:1082A0001A74124B00225A8001201CE01248FFF77A
:1082B00035FE012803D10D4B03221A74F1E70F4854
:1082C000FFF72CFE012803D1084B04221A74E8E7BB
:1082D0000B48FFF723FE0128F6D0044B00225A80FA
:1082E000002000E0002010BD0020FCE7D4020020A8
:1082F00008050020484C0108544A0108584C010860
:10830000604C010870B5FFF71DFF574B5B889BB2AF
:10831000002B00D1A6E0544B5B7C012B05D0524BC7
:108320005B8A9BB20021012029E04F4B5B8A02331C
:108330009BB2F7E71D004D4AD25C0A2A29D14A4A6E
:10834000527CD6B2002A24D102339BB246484382E3
:10835000464A135DDBB2464C63544B1C525DD2B2AD
:10836000E2544388013B9BB230005A1E3F4CA25C52
:108370004F2A21D001339BB23E4A934223D83A4A36
:10838000528892B29A4220D05C1E384A125D0D2A61
:10839000D0D0364A125D0D2AE7D0344A125D0A2A3F
:1083A000E3D0324A125DD2B2314C6254013189B20B
:1083B0002D4A00245474D8E7E25C4B2ADAD12A4AC9
:1083C00001241475D6E70123D9E7002810D0002036
:1083D00049E001339BB2264AD25C222A02D0254AC8
:1083E0009342F6D95A1C92B222498B423BD803E001
:1083F0000023F0E7013292B21D49895C222906D0A0
:10840000190020318A4202D21A498A42F2D9110057
:1084100001339A4227D0174B9A4224D8931E144A0C
:10842000D35C7B2B03D00139535C242B1BD1104B25
:108430005B7CDBB2602B16D80D4B9B79DBB22F2B0C
:1084400011D90B4B9B79DBB2392B04D9084B9B79A3
:10845000DBB2402B07D9064B9B79DBB25A2B02D8F3
:10846000012000E0002070BDD4020020080500209B
:1084700014030020B70B0000F0B5CE46474680B588
:1084800099B08C4B00229A807720FFF77BFD8A4BB6
:108490005C78E4B22000FFF775FD0020FFF772FD65
:1084A000282C12D8A400854B1B599F460120FFF7AA
:1084B00069FD5320FFF77EFD002006F0BFFCFFF7AB
:1084C00061FD05F0E5FEFFF75DFD7A4A9388033B09
:1084D000DBB27B498B70897893794B4093719079AB
:1084E000C0B2FFF74FFD012019B0C0BCB946B0467D
:1084F000F0BD0020FFF7F4FD724B9842E5D1042057
:10850000FFF7E0FD704BC3189BB2B022920093427C
:10851000DBD201F07FFBD8E70020FFF7E1FD694BDC
:108520009842D2D10420FFF7DBFD05000820FFF7B9
:10853000C1FD0600AB0603D1102806D0002300E0E1
:108540000023002B23D000263AE00123F9E701376E
:10855000BE42BAD9FC00E4B220000930C0B2FFF735
:10856000BFFD05900D34E0B2FFF7BAFD0400B02264
:108570005202564BEB189342E9D20599280001F0BC
:1085800020FB281D210001F01CFB0835DFE7002738
:10859000DEE73001001980000930C0B2FFF7A0FD0E
:1085A000A30007AAD0500134E4B20F2CF1D9B022B5
:1085B0005202464BEB18934207D340350136F6B2D0
:1085C000012E00D981E70024EFE707A9280001F078
:1085D0000BFBF2E70020FFF783FD04000420FFF708
:1085E00069FD060000250BE0200001F0E8FAFFF726
:1085F000EAFC201D01F0E3FAFFF7E5FC0834013541
:10860000AE42F1D861E70020FFF76AFD2D4B98429A
:1086100000D05AE701F0E0FE57E70020FFF760FDC9
:10862000284B984200D050E7FFF7C0FB0020FFF72F
:1086300057FD244B984200D047E7254B1793C020A5
:10864000042217A9000101F003FB3EE701F0FCFC46
:10865000FFF798FC01F0F0FCFFF794FC0020FEF718
:1086600085FFFFF7B0FC0120FEF780FFFFF7ABFCB2
:108670000220FEF77BFFFFF7A6FC07F025F9C0B24A
:10868000FFF780FC05F000FEFFF77CFC1DE703F020
:108690002BF91048F421FFF79FFC16E70D48002244
:1086A000F421FFF729FD03F00FF80EE703F01CF9A2
:1086B00000241DE0D40200200805002028460108FF
:1086C000DC030020BBDDAACCC0FCFFFF0060FEF78E
:1086D000CCBBDDAA30270020D94B220078325200D3
:1086E0009B181A79587900021043FFF763FC013494
:1086F000072CF1D9D24C82235B00E35C0622FF32C7
:10870000A05C00021843FFF755FC83235B00E35C89
:108710000822FF32A05C00021843FFF74BFC8423C1
:108720005B00E35C0A22FF32A25C12021A4385233B
:108730005B00E35C1B0413430C22FF32A05C0006C9
:108740001843FFF740FC86235B00E35C0E22FF32F8
:10875000A05C00021843FFF72DFC87235B00E05C60
:10876000FFF710FC1023FF33E05CFFF70BFC200049
:108770001130FF303821FFF72FFCA4235B00E35CAE
:108780004A22FF32A25C12021A43A5235B00E35C7B
:108790001B0413434C22FF32A05C00061843FFF772
:1087A00012FCA6235B00E05CFFF7ECFB4E23FF33DB
:1087B000E35CA7225200A25C12021A435023FF334B
:1087C000E35C1B041343A8225200A05C000618437C
:1087D000FFF7F9FB5223FF33E05CFFF7D3FBA9233C
:1087E0005B00E05CFFF7CEFB5423FF33E35CAA227F
:1087F0005200A25C12021A435623FF33E35C1B04AF
:108800001343AB225200A05C00061843FFF7DBFBCA
:108810005823FF33E35CAC225200A25C12021A43DD
:108820005A23FF33E35C1B041343AD225200A05CC8
:1088300000061843FFF7C7FB5C23FF33E35CAE225F
:108840005200A25C12021A435E23FF33E35C1B0456
:108850001343AF225200A05C00061843FFF7B3FB9E
:108860006023FF33E35CB0225200A25C12021A4381
:108870006223FF33E35C1B041343B1225200A05C6C
:1088800000061843FFF79FFB6423FF33E35CB2222B
:108890005200A25C12021A436623FF33E35C1B04FE
:1088A0001343B3225200A05C00061843FFF78BFB72
:1088B0006823FF33E05CFFF765FB06E66000C0B2AB
:1088C000FFF700FC5E4B2200783252009B181871B3
:1088D000000A58710134072CF0D91020FFF7F2FB81
:1088E000574C82235B00E054000AE31858701220B2
:1088F000FFF7E8FB83235B00E054000AE31858709D
:108900001420FFF7EDFB84235B00E054020A2300F0
:108910000933FF335A70020C9A70000ED870182079
:10892000FFF7D0FB83B2FF2210400D32A0541B0A88
:1089300022000D32FF3253701A20FFF7BBFB872352
:108940005B00E0541B20FFF7B5FB1023FF33E0541E
:10895000002628E00024BEE7F500EDB228001C3018
:10896000C0B2FFF7AFFB364C33002233DB00E054DC
:10897000000AE418607028001E30C0B2FFF7A2FBA6
:10898000A070000AE070301DC000C0B2FFF79AFB73
:108990002071000A60712235E8B2FFF793FBA071E5
:1089A000000AE0710136062ED6D95420FFF798FB55
:1089B000234CA4235B00E054020A23004933FF3315
:1089C0005A70020C9A70000ED8705820FFF772FB94
:1089D000A6235B00E0541B4B9B780433572B11D824
:1089E000184B9B7804335D2B2ED8164B9B780433A1
:1089F0006E2B66D8134B9B780433722B71D802F020
:108A000063FE62E55920FFF76BFB0D4C4E23FF33ED
:108A1000E054020A23004E33FF335A70020C9A705E
:108A2000000ED8705D20FFF745FB5223FF33E05462
:108A30005E20FFF73FFBA9235B00E054D0E7C04670
:108A400030270020080500205F20FFF749FB774C06
:108A50005423FF33E054020A23005433FF335A7087
:108A6000020C9A70000ED8706320FFF739FB582370
:108A7000FF33E054020A23005833FF335A70020CCC
:108A80009A70000ED8706720FFF72AFB5C23FF3333
:108A9000E054020A23005C33FF335A70020C9A70D0
:108AA000000ED8706B20FFF71BFB6023FF33E054F0
:108AB000030A6034FF346370030CA370000EE0708F
:108AC00093E76F20FFF70CFB584B6422FF3298545A
:108AD000020A6433FF335A70020C9A70000ED87089
:108AE00088E77320FFF7E6FA504B6822FF3298546C
:108AF00085E74F48FEF7FAFEE7E40020FFF7E2FAC9
:108B000000F0DCFEE1E400F09BFDFFF73BFA00F033
:108B100091FDFFF737FAD8E40020FFF7CBFA01F018
:108B20006BFE042005F0BAFBCFE4032005F0B6FB92
:108B3000CBE40020FFF7BEFA01F03CFE062006F071
:108B40004BFCC2E4002001F035FE002006F044FC9E
:108B5000BBE40020FFF7AEFA0100002006F00CFC99
:108B60000120FFF7AFFA0100002006F013FC0920F6
:108B700005F0D4FDA9E4062005F0D0FDA5E4002011
:108B8000FFF798FA05F032FB9FE42A4CE078FFF7F4
:108B9000F9F92079FFF7F6F96079FFF7F3F9207812
:108BA000FFF7F0F96078FFF7EDF9A078FFF7EAF941
:108BB000A079FFF7E7F988E40020FFF77BFA814608
:108BC0000120FFF777FA80460220FFF773FA0600CC
:108BD0000320FFF76FFA07000420FFF76BFA040089
:108BE0000520FFF767FA05000620FFF763FA030088
:108BF00002950194009732004146484604F056F829
:108C000063E40D4BD878C0B2FEF7B0FE5DE40020FF
:108C1000FFF766FA094B984200D056E40848042250
:108C20001F21FFF769FA02F04FFD4EE430270020C4
:108C30000B050020AC2C002008050020BBDDAACCD1
:108C4000D827002010B5FFF7AFFA012800D010BDDB
:108C5000FFF712FC0128FAD1034B9988C9B20348E7
:108C600000F09CFCF3E7C046D4020020DC030020A7
:108C7000F0B5C64600B52E4B5E7D002E02D19D7D1F
:108C8000012D06D0012E43D00025280080BCB84617
:108C9000F0BD06F0A9FF264B9B69C01A254B9842F0
:108CA00004D9234B1B7FDCB2002B10D006F09CFFB5
:108CB0001F4B9B69C01A204B9842E6D91C4B0022DF
:108CC0009A7501F0B9F9051E1ED03500DDE7184F81
:108CD00001333B77042290467A7700227A807A82A9
:108CE0007B74FEF78DFD43467B7700233B7008E0E5
:108CF000124BE200121B52009B1800225A730134DF
:108D0000E4B2632CF4D9D1E70020FEF72FFEBCE7D4
:108D100006F06AFF064B9B69C01A074B984204D9BC
:108D2000034B00229A750025AFE70025ADE7C0464A
:108D3000D4020020C7AF00005FEA0000C01000208E
:108D400010B52D4B00229A801B7CDCB2032B04D083
:108D5000042C45D0022C02D00024200010BD274B4B
:108D6000DA7B1B7C9100521852009B18DBB2103B3F
:108D7000DBB2062B3ED89B00214AD3589F461120D8
:108D8000FFF788F901F048F9E7E71120FFF782F9CA
:108D900001F042F906F0F2FD0728DED0062006F0C9
:108DA000E9FDDAE71120FFF775F901F035F9D4E7AD
:108DB000114B9B7F002BD0D10F4B9B7D002BCCD137
:108DC00002F0C8FD0C4B00225A751A625A6200204C
:108DD00001F022F90124C0E7074B00229A77BCE793
:108DE000054B00225A751A625A62002001F014F9EC
:108DF0000124B2E70024B0E7D402002008050020D7
:108E0000CC46010810B53F480E21FFF7E5F83E4B70
:108E10009B7F012B0ED13C4B9B7D012B06D03A4B07
:108E200000229A770120FFF71EF906E00620FFF7DF
:108E30001AF902E00120FFF716F906F06BFD002891
:108E40004FD1314B1B6A012B04D9304BDB7EDBB297
:108E5000012B23D90020FFF7CDF80020FFF7CAF837
:108E60000020FFF7C7F8284A136A01331362284B22
:108E70002C229A5C2D21585C00021043FFF7F3F876
:108E800005F0E0FAFFF7B6F80D20FFF77BF81E4B70
:108E90009988C9B21F4800F081FB10BD05F0C6FFDC
:108EA000012810D00228DED1012006F035FAFFF7A4
:108EB000A1F806F00DFDFFF79DF8022006F02CFA50
:108EC000FFF798F8CFE7002006F026FAFFF792F8B0
:108ED00006F0FEFCFFF78EF805F0BAFFFFF78AF800
:108EE000C1E706F01FFDFFF785F806F01BFDFFF751
:108EF00081F806F017FDFFF77DF8034A536A013346
:108F00005362B4E76C4C0108D4020020882300208F
:108F100030270020DC03002010B54E4B5B7FDBB216
:108F2000042B63D89B004C4AD3589F46494B5B7D2A
:108F3000012B07D0474B9B7D002B07D1454B0122CE
:108F40005A7753E0434B03225A774FE0414B9B7FC4
:108F5000012B4BD13F4B1B7D012B47D13D4B0122B8
:108F60005A7743E03B4B5B7D012B09D0394B012203
:108F70005A7700221A625A62002001F04DF835E05B
:108F8000FFF75EF9012831D1FFF7DAFE314B587750
:108F90005B7F022B2AD12F4C26330022E25406F0AD
:108FA00023FEE06206F020FE20631FE006F01CFEB8
:108FB000284B1B6BC01A632818D9FFF723FF254CD9
:108FC0000323637706F010FEE0620FE0FEF736FC45
:108FD000204C60750023637700F0E6F93423E35CEE
:108FE000012B04D01B4B5B7D012B0ED010BD194B08
:108FF0005B7D002BF6D1174C3533E05CC0B2FEF739
:10900000B5FC34230022E254ECE7124C01336377C1
:1090100006F0EAFDE06206F0E7FD64382063E5E76C
:10902000FFF770F901280BD00A4B1B7D012BDDD116
:10903000FEF736FF012806D0064B00225A77D5E707
:10904000FEF7C2FEF0E702F03FFB024B01225A7727
:109050009A77CBE7D4020020E846010870B50E4CA1
:109060000023002563802381A38001333622A3548B
:1090700025746575A37506F0B7FDA06106F0B4FD13
:10908000A0636577257725753C23E554083BE554B7
:109090006574A57770BDC046D402002010B5FFF7F7
:1090A00043F801280BD0104B36229B5C002B15D1C6
:1090B000FEF758FC0C4B36220121995410BD0A4B87
:1090C00036229B5C012B02D0FFF7BCFDF6E7FEF7D2
:1090D0003BFC054B362200219954EFE7FFF7C8FD12
:1090E000FFF71AFFEAE7C046D402002010B584B0AB
:1090F00006F07AFD354B9B6BC01A354B984201D870
:1091000004B010BD06F070FD304B98635B7D002B02
:10911000F6D1FFF709F8041EF2D12C4B1B7F002B70
:10912000EED02A4B1B7D002BEAD000F085FF6B466A
:1091300018700120FEF71AFA6421FBF779F8FDF7A1
:10914000D9FE0022234BFCF76BF8FBF723FA6B46A2
:1091500058700020FEF70AFA6421FBF769F8FDF762
:10916000C9FE00221B4BFCF75BF8FBF713FA6B46BA
:1091700058800220FEF7FAF96421FBF759F8FDF751
:10918000B9FE0022134BFCF74BF8FBF703FA6B46D2
:10919000187173236A4653710E3B93710D33D3716B
:1091A00008E00D4B1B19A8331A7823006B441A7280
:1091B0000134E4B2052CF4D924236A46937357335F
:1091C000D3736846FEF7EAFD9AE7C046D402002052
:1091D0000F2700000000E03F30270020024B342220
:1091E0009954013298547047D402002010B5FEF70C
:1091F0009BFF10BD014B587D7047C046D402002034
:10920000034B00221A805A809A80DA807047C04649
:1092100038160020034B9888DB88C01A4342584117
:10922000C0B2704738160020094A93889BB209499A
:10923000C85CC0B2938801339BB2938093889BB281
:10924000054A934202D9024B00229A807047C046D9
:109250003816002040160020B70B0000F0B5D646A7
:109260004F464646C0B590B04A4D08239A462B62F9
:1092700038330393022604963D3B98460593002419
:109280000694012707970894434B994603A91800B1
:1092900009F051F9802303930496434605930694FD
:1092A0000794089403A9484609F045F980231B0157
:1092B0000393049643460593069407940133089359
:1092C000A02003A9C00509F036F95346039304967C
:1092D00043460593069407940233089303A948462E
:1092E00009F029F92D4AC621890053581B021B0A8F
:1092F000535080231B051360294B5A6B8021C901F1
:109300000A435A635A6B0A400292029ADA6C414647
:109310008A43DA64DA6A3A43DA62DA6A3A400192F4
:10932000019ADA6A3243DA62DB6A1E400096009BD9
:10933000E1235B0209930A940B940C940C230D9384
:10934000C0239B000E930F9409A9280009F082FA0C
:10935000AA6880235B011343AB606B68114A13401A
:109360006B60AB682A229343AB602B683B432B6056
:10937000EFF3108287F310882B6820210B432B60BA
:1093800082F31088FFF73CFF10B0E0BCBA46B1464C
:10939000A846F0BD003801400004005000E100E0A4
:1093A00000100240FFB7FFFF024AD3889BB29380B0
:1093B0007047C04638160020074B00221A80002351
:1093C00004E0064A0021D15401339BB29622520098
:1093D0009342F6D37047C04638160020F82100208B
:1093E00010B5184B00221A8009E00130154A138885
:1093F0009BB2154CE154138801339BB21380017862
:109400000029F2D10F4B1A8892B20F490D208854CF
:109410001A88013292B21A801A8892B25A800C3895
:1094200018800978C9B2094A91621880EFF3108157
:1094300080F3108813687F300343136081F3108832
:1094400010BDC04638160020F82100200038014029
:1094500030B5194B00221A800AE0174A13889BB2D4
:109460000578164CE554138801339BB21380013004
:10947000114B1B889BB29942EFD80F4B1A8892B2BE
:109480000E490D2088541A88013292B21A801A8827
:1094900092B25A800C3818800978C9B2084A916291
:1094A0001880EFF3108180F3108813687F30034336
:1094B000136081F3108830BD38160020F821002099
:1094C0000038014082B00D4B5A6AFF2313400193CC
:1094D0000B4BDA880199DA8892B2C9B209488154F3
:1094E000DA88013292B2DA80DB889BB2064A934274
:1094F00002D9034B0022DA8002B0704700380140E5
:109500003816002040160020B70B000010B5144B91
:109510001A8892B25B88013B9A4215D3EFF3108010
:10952000012181F310880F4B1A688024A2431A602E
:1095300080F31088EFF3108081F310881A683F31B0
:109540000A431A6080F31088054A138899B20133E0
:109550009BB21380044B5B5CDBB2024A936210BD8A
:109560003816002000380140F8210020094B1A88E5
:1095700092B25B889BB29A420BD3EFF31081012326
:1095800083F31088044A136840208343136081F3F7
:1095900010887047381600200038014010B50023AD
:1095A00005E004780D4AD4540133DBB201308B421C
:1095B000F7D30B484180094B1A78D2B2094B9A6213
:1095C00001220280EFF3108182F310881A68802054
:1095D00002431A6081F3108810BDC046F8210020B4
:1095E000381600200038014010B5094A8023802138
:1095F0000905D150BFF34F8FBFF36F8F054BDA6969
:109600001A6801218A431A60FFF728FE10BDC04680
:1096100000E100E00038014070470000014B18787D
:10962000C0B2704724230020014B5878C0B2704765
:1096300024230020014B9878C0B2704724230020D7
:10964000014BD878C0B2704724230020014BD8705A
:109650007047C0462423002010B5074B00221A7122
:109660009A705A71DA8001321A7201325A720720E6
:1096700006F05EFE10BDC0462423002010B50D4B41
:109680009B7A002B09D00C4B198889B20B4807F044
:10969000C5FB00280BD0002010BD074B198889B2EC
:1096A000064807F0BBFB0028F6D00120F4E70120B4
:1096B000F2E7C046242300200000002000040050F0
:1096C00010B5FFF7DBFF504BD872DA88013292B247
:1096D000DA80DA7AD2B21B7ADBB29A423ED04A4BB7
:1096E0005B79DAB2002B1ED0092A2ED0464BDB88DC
:1096F0009BB2062B21D9444B5B79DBB2082B0AD8ED
:109700004149CA7AD2B2487908231B1A9A408B7809
:109710001343DBB28B703C4A53790133DBB2537194
:109720000023D38009E0384BDB889BB2022B04D99D
:10973000354B0022DA8001325A71334BDA7AD2B2D9
:109740001A725B7A042B52D010BD2F4BDB889BB270
:10975000062BF2D92C4B04225A72EEE72A4B5A7987
:10976000D3B2092A15D00A2B28D0002B08D0264BBB
:10977000DB889BB20A2BE0D1234B04225A72DCE730
:10978000214BDB889BB2082BD7D11F4B04225A7286
:10979000D3E71D4BDB889BB2082BCED11A4BDB7A6B
:1097A000002B03D1184B04225A72C6E7164A53798C
:1097B0000133DBB253710023D380BEE7124BDB8849
:1097C0009BB2082BB9D1104C002363720F4B80223F
:1097D00052015A61072006F09FFD0123E3702079B2
:1097E000C0B2A178C9B20A4B5B689847A5E7064B9F
:1097F00000225A720332DA70044B802252015A61FD
:10980000072006F089FD9FE7242300200004014083
:1098100000000020014B587AC0B27047242300207A
:10982000034B0022DA705A729A815A707047C04610
:1098300024230020114B1B7A002B0FD0002806D0C8
:109840000E4B59890E4A53698B43536170470B4B3A
:109850005B890B4A51690B435361F7E7002806D037
:10986000064B5B89064A51690B435361EEE7034B94
:109870005989034A53698B435361E7E7000000208D
:10988000000400500B4B1B7AD8B2002B07D00A4BB8
:109890001B69084A52891A4209D000207047064BBA
:1098A0001B69044A52891A42F8D00120F6E70120C8
:1098B000F4E7C046000000200004005010B5064C3C
:1098C000E0810023237463820433E370072006F0F1
:1098D0002FFD0123637210BD2423002010B5000268
:1098E000401880B2FFF7EAFF10BD10B50002401823
:1098F00080B2FFF7E3FF10BD70B506000D00544BBA
:109900001B78002B02D1524B00221A75504B1C7D44
:10991000062C00D994E0A3004E4AD3589F464C4EE3
:1099200001233370E9B2A320FFF7D8FF06F05CF9FA
:10993000B061337D01333375200070BD06F054F9FA
:10994000434B9B69C01A312801D80024F4E7290A47
:10995000C320FFF7C3FF06F047F93D4B98611A7D1E
:1099600001321A750024E7E706F03EF9384B9B698F
:10997000C01A312801D80024DEE70821C120FFF7F2
:10998000ADFF06F031F9324B98611A7D01321A753C
:109990000024D1E706F028F92D4B9B69C01A312825
:1099A00001D80024C8E7E821FF313000FFF79DFF10
:1099B00006F01AF9264B98611A7D01321A750024B7
:1099C000BAE706F011F9224B9B69C01A312801D879
:1099D0000024B1E70821C120FFF780FF06F004F959
:1099E0001B4B98611A7D01321A750024A4E706F01A
:1099F000FBF8174B9B69C01A312801D800249BE75C
:109A0000F12149003000FFF770FF06F0EDF8104B30
:109A100098611A7D01321A7500248DE706F0E4F88A
:109A20000B4B9B69C01A312801D8002484E7084BEE
:109A300000221A751A700020FFF708FE01247BE748
:109A4000034B00221A7501321A70002474E7C046D5
:109A500024230020FC46010810B53D4B5B8A9B0780
:109A600060D13B4B5B8A9BB2A32B51D8384B5B8AAE
:109A70009BB2172B25D9364B5B8A9BB2182B26D06D
:109A8000334B5B8A9BB21C2B2AD0314AD3899BB2C1
:109A9000107C0F21091A0B4101210B401377538AC7
:109AA0005B0726D02A4B5B8A1C3B5B073AD1284CCC
:109AB000207FC0B2FFF7BEFE237C0133DBB22374EC
:109AC00030E0234A538A01339BB253822FE00020B7
:109AD000FFF7B0FE1E4A538A01339BB2538226E041
