:020000040800F2
:104000000050002095FB00083DC900083FC900088A
:1040100000000000000000000000000000000000A0
:1040200000000000000000000000000041C900087E
:10403000000000000000000043C9000845C9000856
:10404000E5FB0008E5FB0008E5FB0008E5FB0008D0
:10405000E5FB0008E5FB0008E5FB00086DC900086A
:10406000E5FB0008E5FB0008E5FB0008E5FB0008B0
:10407000E5FB0008E5FB0008E5FB0008E5FB0008A0
:10408000E5FB0008E5FB0008E5FB00080000000078
:10409000E5FB0008E5FB0008E5FB0008E5FB000880
:1040A000E5FB0008E5FB0008E5FB000879C900080E
:1040B000CDC90008E5FB000800000000E5FB000892
:1040C00010B5064C2378002B07D1054B002B02D0EE
:1040D000044800E000BF0123237010BDE000002071
:1040E00000000000F8410108044B10B5002B03D07C
:1040F0000349044800E000BF10BDC04600000000B6
:10410000E4000020F841010803B47146490840006A
:104110004900095E49008E4403BC704700224308F1
:104120008B4274D303098B425FD3030A8B4244D37F
:10413000030B8B4228D3030C8B420DD3FF220902C1
:1041400012BA030C8B4202D31212090265D0030B80
:104150008B4219D300E0090AC30B8B4201D3CB0376
:10416000C01A5241830B8B4201D38B03C01A5241B8
:10417000430B8B4201D34B03C01A5241030B8B42BA
:1041800001D30B03C01A5241C30A8B4201D3CB02A5
:10419000C01A5241830A8B4201D38B02C01A52418A
:1041A000430A8B4201D34B02C01A5241030A8B428D
:1041B00001D30B02C01A5241CDD2C3098B4201D3A5
:1041C000CB01C01A524183098B4201D38B01C01A23
:1041D000524143098B4201D34B01C01A524103099A
:1041E0008B4201D30B01C01A5241C3088B4201D349
:1041F000CB00C01A524183088B4201D38B00C01AF6
:10420000524143088B4201D34B00C01A5241411A1C
:1042100000D20146524110467047FFE701B5002029
:1042200000F0F0F802BDC0460029F7D076E77047ED
:1042300003460B437FD4002243088B4274D3030907
:104240008B425FD3030A8B4244D3030B8B4228D3A8
:10425000030C8B420DD3FF22090212BA030C8B42CE
:1042600002D31212090265D0030B8B4219D300E06E
:10427000090AC30B8B4201D3CB03C01A5241830BF3
:104280008B4201D38B03C01A5241430B8B4201D3A3
:104290004B03C01A5241030B8B4201D30B03C01ACC
:1042A0005241C30A8B4201D3CB02C01A5241830A46
:1042B0008B4201D38B02C01A5241430A8B4201D375
:1042C0004B02C01A5241030A8B4201D30B02C01A9F
:1042D0005241CDD2C3098B4201D3CB01C01A524106
:1042E00083098B4201D38B01C01A524143098B428F
:1042F00001D34B01C01A524103098B4201D30B0178
:10430000C01A5241C3088B4201D3CB00C01A52419C
:1043100083088B4201D38B00C01A524143088B4261
:1043200001D34B00C01A5241411A00D201465241FA
:10433000104670475DE0CA0F00D04942031000D319
:104340004042534000229C4603098B422DD3030A6E
:104350008B4212D3FC22890112BA030A8B420CD37E
:10436000890192118B4208D3890192118B4204D3A7
:1043700089013AD0921100E08909C3098B4201D327
:10438000CB01C01A524183098B4201D38B01C01A61
:10439000524143098B4201D34B01C01A52410309D8
:1043A0008B4201D30B01C01A5241C3088B4201D387
:1043B000CB00C01A524183088B4201D38B00C01A34
:1043C0005241D9D243088B4201D34B00C01A52410B
:1043D000411A00D20146634652415B10104601D398
:1043E0004042002B00D54942704763465B1000D322
:1043F000404201B5002000F005F802BD0029F8D0C8
:1044000016E770477047C0468446100062468C46E7
:104410001900634600E0C0461FB501F00DFE0028FC
:1044200001D40021C8421FBD10B501F05DFD40421E
:10443000013010BD10B501F0FFFD002801DB0020A8
:1044400010BD012010BDC04610B501F0F5FD0028DB
:1044500001DD002010BD012010BDC04610B501F0E7
:1044600085FD002801DC002010BD012010BDC046E4
:1044700010B501F07BFD002801DA002010BD0120FD
:1044800010BDC046844608006146FFE71FB500F036
:1044900091FC002801D40021C8421FBD10B500F0D6
:1044A0001DFC4042013010BD10B500F083FC002817
:1044B00001DB002010BD012010BDC04610B500F08A
:1044C00079FC002801DD002010BD012010BDC04690
:1044D00010B500F029FC002801DC002010BD0120EF
:1044E00010BDC04610B500F01FFC002801DA002006
:1044F00010BD012010BDC046002B11D1002A0FD1E4
:10450000002900D1002802D00021C943080007B4C7
:10451000024802A14018029003BDC046E9FEFFFF19
:1045200003B4684601B5029800F052F8019B9E461C
:1045300002B00CBC7047C046F0B5CE469946030C9D
:104540009C46130447461B0C1D000E0061460404E4
:10455000240C80B50700100C4B4365434143604376
:104560002C0CC01820188C46834203D980235B0290
:104570009846C444494679435643030C2D042D0CF8
:104580008919634400044019C918C0BCB946B04633
:10459000F0BDC04670B500220C4B04000D00FFF7C3
:1045A00067FF002804D12000290002F00BFC70BD39
:1045B000064B00222000290002F064F802F002FC01
:1045C00080231B069C466044F1E7C0460000E041A2
:1045D000F0B557464E464546DE46E0B504000D00B0
:1045E0009246994683B08B4230D82DD049465046EA
:1045F00002F0DAFC29000600200002F0D5FC331A94
:104600009846203B34D49B4653465A4693404246F4
:104610001F00534693401E00AF423BD8AF4200D12B
:1046200079E05B46A41BBD41002B00DA76E0002256
:1046300000230092019301235A46934001930123E2
:1046400042469340009329E08242CFD900220023C2
:10465000009201930C9B002B01D01C605D600098C0
:10466000019903B0F0BCBB46B246A946A046F0BDD6
:1046700042469B4620239B1A5246DA40414613008D
:104680004A468A40170042461F43534693401E0045
:10469000AF42C3D900220023009201934346002B6E
:1046A000D8D0FB0772081A4346467B080EE0AB429F
:1046B00001D1A2420CD8A41A9D41012024196D41B8
:1046C0000021013E24184D41002E06D0AB42EED908
:1046D000013E24196D41002EF8D1009801995B46E6
:1046E00000196941002B24DB2B005A464446D34075
:1046F0002A00E2401C005B461500002B2ADB260046
:104700009E40330026004746BE403200801A994141
:10471000009001919EE7A342BCD882E74246202345
:1047200000219B1A0022009101920122DA4001929D
:1047300085E7424620239B1A2A0046469A402300DA
:10474000F340444613432A00E2401C005B46150038
:10475000002BD4DA42462F002023260097409B1AD4
:10476000DE403B003343CDE7F8B54746CE464A022C
:1047700043024500C40F500A804648005B0A000E01
:104780009209944680B51E00814602002D0EDF007E
:10479000C90F8C4224D0281A00280EDD002A3ED1F1
:1047A0006246002A00D1FDE0421E012800D137E117
:1047B000FF2800D1A9E0100039E0002863D04B4663
:1047C000521B002D00D0E0E0002F00D1CEE0531EA0
:1047D000012A00D155E1FF2A00D194E01A00D9E066
:1047E0002A1A002A00DC99E0002862D0FF2D00D1AF
:1047F0008BE080236146DB0419438C461B2A00DCD6
:10480000D2E00123DB195A016AD50135FF2D5BD0B7
:104810000122A3491A405B080B4013431CE0FF2D03
:1048200000D172E080236246DB041A4394461B28C1
:1048300000DC90E00123FB1A5A0151D59B019E092F
:10484000300002F093FB330005388340854200DCE2
:1048500075E0944A2D1A13405A0704D00F221A40CB
:10486000042A00D004335A013CD5681CFE2D2BD0FD
:104870009B015E0AC0B2C0053043E4072043C0BCC0
:10488000B946B046F8BDFE206A1C104272D1002D18
:1048900000D0AEE0002F00D1ECE063460020002BFA
:1048A000E9D0FB1A5A0100D4F3E063460C00DB1B8D
:1048B000D2E7614600295BD0511E012A00D1A7E052
:1048C000FF2A22D00A0099E7FF200026D3E7FE2125
:1048D0006A1C114273D0FF2AF6D0150067447B088A
:1048E0005A07BBD1DB08FF2D0FD05B025E0AE8B28E
:1048F000C1E76246002A08D08022D203134204D0C6
:104900004046104201D10C004346002BDCD08026EB
:10491000F6031E437602FF20760AACE7002AD6D0C3
:10492000421B002D5CD0FF28EED08023DB041F4308
:104930001B2A00DC82E001234D46634463E720220A
:10494000401B0130121A19009340C1405A1E934176
:1049500000250B4380E7202361461B1A99406246DD
:104960000B00C240591E8B41134364E70C004346C1
:104970001500B8E76346FE1A730145D4002E00D037
:104980005EE700240020002675E7FF2BBBD08023C4
:10499000DB041F431B2A47DD012362460C004D4602
:1049A000D31A49E705009EE761462023D1409B1AB0
:1049B00062469A4013005A1E93410B4322E7002D92
:1049C00046D1002F62D063460020002B00D152E771
:1049D0003B0063445A0183D5324A013513407FE7D7
:1049E000002FC4D0531E012A12D0FF2A8CD01A00E7
:1049F0009EE7002F00D07CE76346002B83D1802602
:104A00000024FF20F60336E763460C00DE1B17E7A1
:104A10003B00634401255A0100D461E70225F7E613
:104A200063460125FB1A07E720239B1A38009F40A5
:104A30003B00D0405A1E93410343AEE720239B1A0C
:104A400039009F403B00D1405A1E93410B4373E70E
:104A5000002F00D158E76246002A00D155E7802296
:104A6000D203134200D150E74146114200D04CE737
:104A700043464AE76346002B83D00C00464600209D
:104A8000F9E663460C00DB1B0135D5E646460020FF
:104A9000F1E6002B00D023E700240026EBE6C04619
:104AA000FFFFFF7DFFFFFFFBF0B54F464646D646B2
:104AB0004502C0B547000C1C6D0A3F0EC60F002F03
:104AC00000D16FE0FF2F00D174E0002380229946CF
:104AD0009A46ED00D20415437F3F63025B0A984675
:104AE00063001B0EE40F002B4DD0FF2B45D0424638
:104AF0008021D200C9041143884600227F3B310047
:104B0000FF1A4B466140C9B20F2B00D9B8E070487C
:104B10009B00C3589F460023984626004546924670
:104B20005346022B00D18DE0032B00D1A1E0012BD5
:104B300018D03B007F33002B6DDD6A0704D00F22B5
:104B40002A40042A00D004352A0103D5614B1D40B8
:104B50003B008033FE2B00DD74E0AA01520AD8B27C
:104B600002E00E0000200022C005F607104330438B
:104B7000E0BCBA46B146A846F0BD4346002B3FD143
:104B80000222FF3F03E04346002B2DD101223100DA
:104B90004B466140C9B213430F2B38D84E489B0097
:104BA000C3589F46002D13D104239946033B002789
:104BB0009A4692E7002D05D108239946063BFF2728
:104BC0009A468AE70C239946093BFF279A4684E7D1
:104BD000280002F0CBF97627431F9D4000237F4237
:104BE00099469A463F1A78E7404602F0BFF9424696
:104BF000431F9A4076235B4290461B1A00227EE7B1
:104C000003234A461A439146FC33032277E70E00FA
:104C1000FF200022A8E70122D31A1B2BA2DC9E371B
:104C20002A00BD40DA406B1E9D4115436A0704D03F
:104C30000F222A40042A00D004356A0144D50120FD
:104C4000002291E7FF2000228EE780220026FF202D
:104C5000D20389E7002398468022D203154208D068
:104C60004346134205D11A4352022600FF20520A3E
:104C70007AE78022D2032A435202FF20520A73E7C6
:104C800042466B015501AB421AD21B200022013F64
:104C900001261C0052005B00002C01DB9D4201D864
:104CA0005B1B324301380028F3D1581E8341134364
:104CB0001D003B007F330E00002B00DD3DE7AAE71F
:104CC0001A2001225B1BE3E7AA010020520A4BE7EE
:104CD00044450108FFFFFFF78445010870B5420015
:104CE00045024E024C00C30F6D0A0120120E760AD7
:104CF000240EC90FFF2A06D0FF2C03D0A24201D1F7
:104D0000B54206D070BD002DFCD1FF2CFAD1002E8B
:104D1000F8D18B4206D00120002AF3D12800431E8F
:104D20009841EFE70020EDE770B5420045024E02E2
:104D30004C00C30F6D0A120E760A240EC80FFF2A0C
:104D40001BD0FF2C0ED0002A1BD1002C01D1002E2D
:104D50001CD0002D0CD083421CD00221581E0840CC
:104D6000013870BD002E22D1002AF4D1002DF2D1DD
:104D70000028F6D101204042F3E7002D17D1FF2C87
:104D8000F0D0002CE7D1002EE5D1E6E70020002D81
:104D9000E7D0E2E7A24205DCEADBB54202D8E7D37E
:104DA0000020DEE74342584140000138D9E70220A5
:104DB0004042D6E770B5420045024E024C00C30F98
:104DC0006D0A120E760A240EC80FFF2A0BD0FF2C94
:104DD0000DD0002A1FD1002C16D1002E14D1002096
:104DE000002D10D009E0002D0CD1FF2C13D1002E86
:104DF00008D1002A08D0834212D00221581E084050
:104E0000013800E0022070BD002DF4D10028FAD155
:104E100001204042F7E7002CEDD1002EEBD1ECE76A
:104E2000A24205DCF2DBB54202D8EFD30020EAE76C
:104E30004342584140000138E5E7C04643025B0A5F
:104E4000F0B54F4646469946D646C30F45009846AC
:104E5000C0B54B460F1C2D0E00D1CBE0FF2D00D16D
:104E6000CFE08022DB00D2041A43002391460026C3
:104E70009A467F3D7C027B00640A1B0EFF0F002BCD
:104E800000D1A9E0FF2B11D08022E400D20414430A
:104E900042467F3B5B197A400020D2B25D1C0A2E4D
:104EA00013DD3A000B2E47D047463FE02B00FF337F
:104EB000002C1ED102221643424601357A40D2B25E
:104EC000FF350A2E00DDE4E00220022E1CDC013E4C
:104ED000012E42D802283DD0012866D100200021B1
:104EE000C0050843D2071043E0BCBA46B146A84605
:104EF000F0BD03221643424601357A40D2B2FF3557
:104F00000A2E00DDE4E003200121B140A626F600D0
:104F100031420AD19026B600314216D1B93EFF3E49
:104F20000E421AD0A146824600E0170053463A00CE
:104F3000022B0FD04C4650460328CDD18021C90307
:104F400021434902FF20490ACAE780210022FF20AD
:104F5000C903C5E7FF200021C2E7200C494624040D
:104F6000240C27000E0C0904090C74434F434643DC
:104F70004843390C001909188C4203D9802040029B
:104F8000844666443F0408043F0CC0198401671E30
:104F9000BC41090C800E8919044389010C430901A5
:104FA00071D5012361081C400C432B007F33002B7B
:104FB00051DD610704D00F212140042900D00434C1
:104FC000210103D5434B1C402B008033FE2BC1DC59
:104FD000A101490AD8B283E7002C2CD10123424613
:104FE0001E432B007A400120D2B25D1C0A2E00DD48
:104FF00057E76AE7002B10D10123042600259A46C3
:1050000038E7002B04D102230826FF259A4631E712
:1050100003230C26FF259A462CE7484601F0A6FFFD
:105020004A46431F76259A4000236D42914600264A
:105030009A462D1A1EE7200001F098FF4246431FB2
:105040009C402B1A763B7A400020D2B25D1C0A2E7F
:1050500000DD26E739E70121CB1A1B2B00DD3DE7F8
:105060009E352100AC40D940631E9C4121434B0733
:1050700004D00F230B40042B00D004314B0104D586
:10508000012000212CE71D008FE789010020490A3B
:1050900026E702230F2E0CD180214B46C9030B4279
:1050A0000DD00C420BD1214349023A00FF20490A9E
:1050B00016E70B2E00D0F7E6A1469A4636E7802188
:1050C0004B46C903194349024246FF20490A07E7F4
:1050D0000323DFE7FFFFFFF741024200C30F490A46
:1050E0000020120E7E2A03DD9D2A02DD094A98184F
:1050F0007047802000040143952A07DC9620821A1D
:10510000D1404842002BF3D10800F1E7963A914094
:10511000F7E7C046FFFFFF7F70B5002813D0C31725
:10512000C5185D40C40F280001F020FF9E23010038
:105130001B1A962B0FDC082831D008398D406D02E0
:105140006D0AD8B202E0002400200025C0052843E3
:10515000E407204370BD992B0CDD0522121A2800AC
:10516000D040020008001B3085402800451EA841A1
:1051700002431500052916DC2A000F4802406E077D
:1051800009D00F263540042D05D00432550102D533
:105190009F2302405B1A9201550AD8B2D6E76D02EE
:1051A00096206D0AD2E74A1F95402A000248024025
:1051B0006E07F0D0E5E7C046FFFFFFFB70B5041EA9
:1051C0000ED001F0D3FE9E2301001B1A962B0CDC9F
:1051D00008282CD008398C406402640AD8B201E057
:1051E00000200024C005204370BD992B0ADD020079
:1051F00020001B3290400200501E82410520401AC0
:10520000C4401443052916DC22000F4802406507FC
:1052100009D00F252C40042C05D00432540102D5AE
:105220009F2302405B1A9201540AD8B2DAE7640263
:105230009620640AD6E74A1F9440220002480240A2
:105240006507F0D0E5E7C046FFFFFFFBF0B54F462E
:105250004646D6460400C0B51F000B0310004E00A2
:105260005B0ACD0F610F7A001943E3003C03FF0F87
:10527000BC46640A470F2743760D520DC000B9465D
:105280008046B71A654500D19BE0002F00DC84E022
:10529000002A00D1BEE0C84A964200D124E1802213
:1052A0004C4612041443A146382F00DD67E11F2F3E
:1052B00000DDD6E120224C46D21B9440A246444653
:1052C000FC4020005446044340469040421E90411A
:1052D0004A46FA400443891A1C1BA3429241524297
:1052E0008B1A9A4653461B0200D4D4E053465A0206
:1052F000530A9A465346002B00D104E1504601F070
:1053000035FE0300083B20222000D21A5146D0402F
:10531000994002009C400A43B34200DA02E19B1B21
:10532000591C1F2900DDA7E02023100026005B1A6E
:105330009C409840CE40CA40631E9C4130439246F8
:1053400000260443630709D00F232340042B05D014
:10535000231DA342A4416442A2441C0053461B02E5
:1053600000D49BE0944B01369E4200D1B8E05346F6
:105370009249E4080B4019005B07234372054C0275
:10538000240B520D1205ED0722432A431800110089
:10539000E0BCBA46B146A846F0BD002F48D0971BE6
:1053A000002E00D00EE10C001C4300D1B7E17C1EA2
:1053B000012F00D126E2804DAF4200D1D5E1270078
:1053C00007E1002F00DCB2E0002A47D07A4A96427B
:1053D00000D189E080224C4612041443A146382FA4
:1053E0006BDC1F2F00DC6EE13A004846203AD040CB
:1053F0008446202F07D040224846D21B904002000E
:105400004046104380464046421E9041624604009A
:10541000144357E04A46024300D103E17A1E012FAC
:1054200000D193E1644CA74200D18AE117003BE729
:10543000634C721C224200D0E0E00A001A43002EA6
:1054400000D074E1002A00D1D0E14A46024300D0E6
:10545000E3E14A07DB081343C90829E04A4602434F
:1054600000D17DE17A1E012F00D1E0E0524CA7422D
:1054700000D166E11700B2E710001F3BD840202999
:1054800003D040235B1A9A401443631E9C410023BF
:1054900000269A460443630700D055E75246E308C6
:1054A0005207134352463700D108434A97421FD050
:1054B00009037A050C0B520D64E742464C4614432F
:1054C000621E9441E4189C429241524292468A44A0
:1054D00053461B02DFD5384B01369E4200D0B3E065
:1054E0003200002400234DE74A07DB081343C908B4
:1054F0001A000A4300D100E2802424030C43240351
:105500002D4A240B3EE7200001F030FD0300183344
:105510001F2B00DCF7E62200083882400024B3424B
:1055200000DBFCE6F61A254B1A4092460AE7002FEC
:105530002BD0971B002E00D1B8E01F4CA24200D107
:105540001CE1802424042143382F00DD1EE11F2F9D
:1055500000DD9EE120260C00F61B1800B340B4408D
:10556000F8405E1EB341F94004431C43894444445F
:1055700044459B415B424B449A461600A8E742468D
:105580004C461443621E9441A6E60D4C721C224206
:1055900000D0A8E00A001A43002E00D00AE1002A39
:1055A00000D15EE14A46024300D061E14A07DB08D0
:1055B0001343C9087CE7C046FF070000FFFF7FFFD9
:1055C000FE070000CF4CA24200D1CEE0802424048C
:1055D0002143382F5BDC1F2F00DDDCE020250C0091
:1055E000ED1B1E00AB40AC40FE405D1EAB413443A2
:1055F000F9401C434B465B1A99464CE04A461C1A3C
:10560000881AA34292415242924602005046121A10
:105610009246120278D45346234300D06AE6002112
:10562000002545E74A07DB081343C9083DE71C1876
:105630009C429B4149448A465B429A445346012618
:105640001B0200D427E702265246AF4B01211A4025
:105650001300214062080A43DC075B089A461443A2
:1056600070E63A004C46203AD440A446202F07D09A
:1056700040224846D21B90400200404610438046DC
:105680004046421E904162460400144324E61943FA
:105690000C00631E9C4143461C1BA0459B41494690
:1056A0005B42CB1A9A46654616001BE60C001C436B
:1056B00000D1C7E07C1E012F00D1F9E0914EB74226
:1056C0005CD0270040E720224C464046D21B944045
:1056D000F840044340469040421E90414A46FA40FA
:1056E00004438918EEE6874CA24200D1F9E6181867
:1056F00098429B4149445B42CB18DC0740085B0859
:105700009A4616000443C6E64246D41AA045804194
:105710004B464042591A0B1A9A466546EAE54B46F3
:105720004A46C0085B0765460343D108BDE6002A28
:1057300000D08EE04B46034317D18021002509039A
:10574000DAE64A07DB081343C908D1E61C1A4A46C1
:10575000A3429B41891A5B42CB1A9A460126C1E5B6
:105760004A07DB081343C9089FE64346D8084B465F
:105770004A465B0765460343D108B9E64346D80865
:105780004B464A465B070343D108B1E619430C0078
:10579000631E9C41EBE63C000D00203CE540202FC1
:1057A00003D04024E41BA1400B431C00631E9C411A
:1057B0002C4370E7002AE1D04A460243C1D04A0791
:1057C000DB0813438022C9081203114208D048465F
:1057D000C408144204D143462100DB0842071343A6
:1057E0005A0FDB005207DB08134381E64B460343A5
:1057F00000D114E74B464A46C0085B0765460343A1
:10580000D10855E6C41AA04580414B464042591A7A
:105810000B1A9A466546012664E51C1A4A46A342BD
:1058200080418A1A4042121A9246120249D54246D3
:10583000D41AA04580414B464042591A0B1A9A4649
:1058400065467FE54B464A46C0085B070343D108DF
:105850002BE64A46DB08024338D14A071343C908FE
:1058600046E64B464A46C0085B070343D1081FE69D
:105870001C189C429B4149448A465B429A445346C9
:105880001B0200D407E652461F4B01261A409246DF
:1058900001E63C000E00203CE640202F03D04024CF
:1058A000E41BA1400B431C00631E9C4134435EE695
:1058B00043448342804149448A4640421C0082441A
:1058C000BCE65346234300D1A9E6E4E54A07134367
:1058D0008022C9081203114209D04846C408144264
:1058E00005D1434665462100DB08420713435A0FA2
:1058F000DB00DB0852071343FAE50023014A1C00D2
:1059000040E5C046FF070000FFFF7FFFF0B55746A8
:105910004E464546DE46E0B50C031F004B0081466F
:105920009246050085B0240B5B0DCE0F002B00D1F5
:1059300052E1D24A934200D16EE1420FE400144397
:105940008022120422439046CD4AC50093469B44D0
:105950000023994600933C037B005046240B5B0DCB
:10596000FF0F002B00D11AE1C44A934200D15EE13F
:10597000420FE4002243802424041443C04AC1009F
:1059800094465A466344D31A9B46002033007B401A
:105990009A464B460F2B27D8BA4A9B00D3589F46AE
:1059A000B246009B022B16D0032B00D187E2012BBD
:1059B00000D0D5E00023002200251B0513435246EA
:1059C000D20713432800190005B0F0BCBB46B2460D
:1059D000A946A046F0BD00220025A84BEDE7BA4637
:1059E000A0460D000090DCE7444500D2C4E100D1A0
:1059F000BFE101235B429C462E0040460025E34464
:105A000023020C0E1C431B0C994623040A021F0C94
:105A1000494600920197FEF707FC02007A430B0407
:105A2000310C804619438A4207D901235B429C46C8
:105A30000919E0448C4200D801E2881A4946FEF771
:105A4000F3FB019A360442430904360C03000E436B
:105A5000B24204D93619013BB44200D8E9E1B01A88
:105A60004246009E12041A43330C1F00110C90464C
:105A7000029313043204160C32001B0C5A43039693
:105A80007B434E437943170CBC469B1963449E42AB
:105A900003D980267602B44661441E0C71181604A0
:105AA0001B04360C9E19884202D312D1B54210D283
:105AB00043465A1E009B9C4665441F009D429B41E5
:105AC0005B421B19C018844200D29EE100D199E1CB
:105AD0009046AE1BB542AD41401A6D42401B844218
:105AE00000D1D2E14946FEF79FFB019A0B044243E5
:105AF000310C050019438A4200D96CE1881A4946E5
:105B0000FEF792FB019A360442430904360C030067
:105B10000E43B24200D953E10398B61A02002D0495
:105B20001D43029F2B041B0C5A437B439C46290CAC
:105B30004843130C844463447943984203D980203A
:105B4000400284466144180C12041B04120C4018D5
:105B50009B18864200D200E100D1FBE001231D43E7
:105B6000494B5B44002B00DCAAE06A0700D03DE112
:105B7000E9084246D20106D54246444B1A408023EA
:105B80009046DB005B44424A934200DD23E74246F5
:105B90005B05550752020D43120B5B0D0DE7514695
:105BA000214300D17CE0002C00D1FBE0200001F07B
:105BB000DDF902000B3A1D239B1A52460100DA4020
:105BC000534608398B408C4019001443314B5844DC
:105BD0009B4683440020D9E603002343984644D0E3
:105BE000002C00D1CFE0200001F0C0F9010002003C
:105BF0000B391D235B1A49461000D94008388440F0
:105C00000B004D46234398468540234B9B1A9B46E9
:105C10000023994600939EE60200224390461DD140
:105C200008229B46022300259146009393E65146A5
:105C3000214309D102234A461A43184B91469C46F8
:105C400000240220E344A1E603234A461A43134BEF
:105C500091469C4651460320E34497E60C229B461E
:105C60000323A0469146009375E60423994600233A
:105C70009B460133002500936DE6C046FF070000F8
:105C800001FCFFFFC4450108FF030000FFFFFFFE0A
:105C9000FE070000F30300000DFCFFFF01F8FFFF0B
:105CA0004A4601231A439146002401206EE6002350
:105CB00080229A460025884B12037EE601256D421C
:105CC0000122D21A382A00DD74E61F2A00DCBDE06A
:105CD0001F214942CB1A4146D9400B00202A04D04B
:105CE00041467E4A5A4491400D4329004A1E914143
:105CF000194307231D0000220D400B4200D1D0E0C4
:105D00000F2200230A40042A00D1C7E00A1D8A425C
:105D1000894149425B1811001A0200D4BEE00123F8
:105D20000022002549E6802243461203134208D090
:105D3000144206D122431203BA460D00664B120BE1
:105D40003BE68022434612031A431203B246624BDB
:105D5000120B32E6002B00D102E7A6196A1EA642FA
:105D600000D289E0864200D29FE000D1AFE015006A
:105D7000F4E6A94200D93CE64346DE0758086B0822
:105D80001E43ED073CE601F0F1F801000200153179
:105D900020321C2900DC2CE74B46083883400025C4
:105DA000984632E701F0E2F803001A00153220307D
:105DB0001C2A00DCFFE65446083B00219C4005E716
:105DC0003619013BB44200D9A6E6B24200D8A3E698
:105DD000831E3619A0E60919013D8C4200D98DE6D3
:105DE0008A4200D88AE6851E091987E60F222A40D2
:105DF000042A00D1BCE6291DA942AD416D42C90863
:105E0000A844B6E6AF4200D962E6814204D800D089
:105E10005EE6AE4200D85BE602235B429C46009BF6
:105E2000E0449C4665449D429B415B421B19C0185F
:105E30004FE6B24200D812E6831E36190FE68A42B8
:105E400000D8FAE5831E98460919F6E5244B280088
:105E50005B4441469D409940D0406B1E9D41434666
:105E600001432943D3404A0700D155E70F220A4096
:105E7000042A00D04AE74FE71500864200D06DE6BD
:105E8000009A9A4200D069E66AE6164B5B44002B02
:105E900000DC13E701250021A8446AE65D075B02E8
:105EA0001A0BC90800230D4387E50099023D4A00FB
:105EB0008A42BF417F423F19F6190092DDE78022F6
:105EC000434612031A431203034B120B75E5009964
:105ED0009942EAD31500D3E7FF0700003E04000013
:105EE0001E040000FF030000F0B54E464546DE46A6
:105EF00057469046E0B517001A03120B050084467A
:105F000019480E034C0091465A00DB0F9B46360B96
:105F1000640DC90F520D844219D0824210D0012065
:105F200094420ED14E450CD10120C44509D15945AA
:105F300017D0002C05D130002843431E984100E0C3
:105F40000120F0BCBB46B246A946A046F0BD3300D6
:105F500001202B43F5D1A242F3D14B463B43F0D174
:105F6000E2E70020EDE7C046FF070000F0B5474636
:105F7000CE460400180016001B031B0B2D4D4A00D3
:105F8000994680B543000F03A446B0463F0B520D1F
:105F9000C90F5B0DC00FAA4221D0AB4213D0002A1B
:105FA00022D13C43002B02D14D462E4322D0002C5F
:105FB00010D0814222D00220013908400138C0BCF3
:105FC000B946B046F0BD4D462E4329D1002AF0D146
:105FD0003C43EED10028F2D101204042EFE73D00E2
:105FE00025431DD19342EED0002BE2D14C462643EF
:105FF000DFD1E0E70020002CE1D0DCE79A420ADCA8
:10600000E8DB4F45D7D80ED000204F45D7D2002926
:10601000E2D00800D3E74342584140000138CEE7C0
:1060200002204042CBE7C445C5D80020C445C6D2B3
:10603000EDE7C046FF070000F0B54746CE46040036
:10604000180016001B031B0B2C4D4A00994680B507
:1060500043000F03A446B0463F0B520DC90F5B0D22
:10606000C00FAA420DD0AB4210D0002A27D13C432A
:10607000002B11D14D462E430ED10020002C15D0FF
:106080000EE03D00254310D1934218D14D462E43DA
:106090000BD1002A02D13C43002C0BD0814214D0FA
:1060A000022001390840013800E00220C0BCB94696
:1060B000B046F0BD0028F9D101204042F6E7002BA0
:1060C000ECD14C462643E9D1EAE79A4204DD43424B
:1060D000584140000138E9E79A42EBDB4F45DFD8F1
:1060E00006D000204F45E1D20029E5D00800DDE7C9
:1060F000C445D5D80020C445D8D2F5E7FF07000035
:10610000F0B54546DE4657464E46E0B51F000B0348
:106110001B0B9B464D00CB0F04009146984687B061
:106120006D0D00D1CDE1CE4B9D4200D1E9E15A4643
:10613000430FD2001343802212041A43C3009A462D
:10614000C84B93469C4600230026654400933C03BD
:106150007B004846240B5B0DFF0F002B00D189E12B
:10616000BF4A934219D0420FE40022438024240402
:106170001443BC4A00219446424663445B19019390
:10618000019B7A400133C000D2B202930A2E1CDD7B
:106190003A000B2E5ED0474656E04946B04B2143AD
:1061A000EB18019300292AD18020022200012B0044
:1061B00084461643424663447A40D2B202930A2E82
:1061C00000DD31E2002000240221022E26DC013E07
:1061D000012E52D802294CD0012900D018E1002309
:1061E000002400251B052343D20713432800190070
:1061F00007B0F0BCBB46B246A946A046F0BD802120
:10620000032209012B008C461643424663447A4020
:10621000D2B202930A2E00DD28E203210125B54007
:10622000AC46A6266346F600354033420BD1902695
:10623000B600334218D1B93EFF3E1E421DD0A346E0
:106240008246009100E0170000993A00022910D020
:106250005C4650460329BFD180231B031C43240303
:1062600005007F4B240BBDE7802400227C4B2403D8
:10627000B8E7002400257A4BB4E753461E04360CD9
:106280001F0C3300010C0004000C4343984603002C
:106290007B43994633004B439C4643460D001B0C01
:1062A0009A467D43CC44D4440095E14504D98023EB
:1062B0005B0299464D44009563461B0C1D006346E6
:1062C0001B049C4643461B041B0C984663464344F0
:1062D0000393230C984633002404240C63439C4608
:1062E00023007B43994643465E435F434E446346E7
:1062F000B2461E0C5644B14503D980235B02994631
:106300004F44330C99463B004B4405936346AC46DF
:106310001F043F0C3604F619B444634604935B46ED
:106320001B0C9C465B461F043F0C3B0043439946B5
:10633000634643439A464B4660461B0C9B46484384
:106340007943514459448A4503D980235B029A46D4
:1063500050440B0C9A464B461B041B0C99463B00C1
:106360006343090445464944994663465C436B438D
:106370009C464B461B0C98466F433F19474450447C
:10638000BC4203D980235B029846C444049B009D11
:1063900098464544B542B641734298464B461E0462
:1063A000059B3C049946360CA4194C44A1468346EF
:1063B0006E18C1448E428941CB445D4649426D18F6
:1063C0009C42A441C1459B41834580418D42894106
:1063D0005B4264421C434042039B494201437002BA
:1063E0003F0C1843E419471EB84164186444F60D85
:1063F00061023043EC0D6E020C433043C90100D4FE
:10640000F1E00121430801400B43E0071843640811
:106410001549029B8C466344002B00DC97E0410742
:1064200009D00F210140042905D0011D814280417E
:10643000404224180800E10106D58021C9008C469D
:106440000A4B1C40029B634409498B4200DD10E764
:106450006107C50864025B050D43240B5B0DC1E6B3
:10646000FF07000001FCFFFFFF030000FFFFFFFE2E
:10647000FE0700004B46234359D0002C00D1A3E077
:10648000200000F073FD010003000B391D22521A99
:1064900049461800D1404A460838824084401000DE
:1064A0000C43744AEB1A9446424663440193019BA1
:1064B0007A4001330021D2B202930A2E00DD67E652
:1064C00083E65B4603439A462AD05B46002B6DD099
:1064D000584600F04BFD010003000B391D22521AF3
:1064E000210018005D46D140083885400A008440EC
:1064F0002A439346A2465F4D0026ED1A00230093DF
:1065000025E65B4603439A4605D100239B460233AA
:10651000082600931BE6032382460C26009316E60A
:1065200000239B4601330426002500930FE64246D4
:10653000013301951E43019B7A4001330024002062
:106540000121D2B202930A2E00DD21E63DE60121AF
:10655000C91A382900DD42E61F2947DD1F2625001C
:106560007642F31ADD402B00202905D04249029DD6
:106570008C466544AC402043411E884118430723A4
:106580001D000024054003424AD00F23002403408D
:10659000042B42D0031D834280414042241818003E
:1065A00023023AD50123002400251BE600F0DEFC7F
:1065B00001000300153120331C298FDD083800222B
:1065C00084409246A34696E700F0D0FC0100030009
:1065D000153120331C2900DC58E702004C46083AEC
:1065E000002094405DE7019B029311E7234B2600B6
:1065F0009C460300029DCB406544AE401E43030011
:10660000AB40581E834130001843CC404307C7D0ED
:106610000F230340042BBDD1C2E765076402240B9E
:10662000C00800230543DDE5002502230F2E0CD111
:1066300080245B46240323420ED021420CD10C431C
:1066400024033A000E4B240BCCE50B2E00D0A2E520
:106650008B46AA460093F7E580245B4624031C433F
:10666000240342465546064B240BBBE54D4621000C
:106670000323DBE70DFCFFFF3E0400001E040000C7
:10668000FF070000F0B557464E464546DE46E0B5EA
:106690000D000400190010002B035B0A620F1A435F
:1066A000E3000C03640A470F2743D04C6E00914669
:1066B00083B04A00C0009846A246760DED0F520DF9
:1066C000C90F0190A24200D1B9E0012461408B467C
:1066D0008D4200D18DE0B41AA446002C00DCB7E056
:1066E000002A00D1CBE0C14A964200D186E1802247
:1066F000120417436246382A00DDA4E11F2A00DD98
:106700001DE2614620223C00521A01009040944054
:10671000421E90416246A0466446D7404A46E14048
:106720004446D21B91460C4304431C1BA342924196
:106730004B4652429B1A9A4653461B0200D42BE109
:1067400053465A02530A9A465346002B00D166E13B
:10675000504600F00BFC0300083B20222000D21A18
:106760005146D040994002009C400A439E4200DDC1
:1067700064E19B1B591C1F2900DDFEE02023100053
:1067800026005B1A9C409840CE40CA40631E9C4144
:106790003043924600260443630709D00F23234069
:1067A000042B05D0231DA342A4416442A2441C0033
:1067B00053461B0200D4F2E08C4B01369E4200D1BE
:1067C0000FE153468A49E4080B4019005B07234355
:1067D00072054C02240B520D12052243ED072A4389
:1067E0001800110003B0F0BCBB46B246A946A04653
:1067F000F0BDB41AA446002C59DD002A00D1B0E047
:10680000564500D1FAE08022120417436246382A26
:1068100000DDD4E01F2A00DCC0E13900203AD1407D
:106820006246202A06D064464022121B3C00944057
:1068300004430194019C621E94410C43C3E03C005C
:1068400004432BD08B468D422ED06A4CA446B444D0
:106850006446002C5FD0941BA446002E00D020E19B
:106860004C461C4300D1C7E161464C1E012900D1B2
:1068700023E25E4DAC4500D1D8E1A4461AE13A00CE
:10688000024300D1E4E02200013A012C00D1C3E12F
:1068900056498C4200D1B1E094462BE70124614077
:1068A0008B468D4200D016E752498C46B44464466C
:1068B000002C00D1D3E0911B8C46002E00D15EE16C
:1068C0004A498A4200D1BEE180214C4609040C436A
:1068D000A1466146382900DDBAE11F2900DD27E223
:1068E0002024641A4946A1401E0088466146A34000
:1068F000CE4041465C1EA341314319430C00634620
:106900004946D9407F18241884429B415B429A46ED
:106910001600BA445DE0384C721C224200D0DFE021
:106920004A461A43002E00D05CE1002A00D1CFE194
:106930003A00024300D17FE11C1A4A46A342894132
:10694000D21B4942521A9246120200D40AE2C41AD9
:10695000A04280414B464042FF1A3B1A9A465D4690
:106960001AE73A00024373D02200013A012C00D109
:10697000CBE0544542D0944648E710001F3BD84036
:10698000202903D040235B1A9A401443631E9C4184
:10699000002300269A460443630700D0FEE65246D1
:1069A000E308520713435246B446D2080F498C45B8
:1069B0002AD01203140B62465205520D0CE73C001C
:1069C0000443621E9441E4189C42924152424A445C
:1069D000924653461B02DFD5044B01369E4200D03F
:1069E000A0E0320000240023F6E6C046FF070000C6
:1069F000FFFF7FFF01F8FFFFFE070000DB084A46AC
:106A0000520713434A46D2081900114300D1B5E199
:106A10008024240314432403D54A240BDCE62000FD
:106A200000F0A4FA030018331F2B00DC95E62200C7
:106A30000838824000249E4200DC9AE6F61ACD4BCC
:106A40001A409246A8E63C000443621E94416CE65C
:106A50004A46DB08520713434A46D208A6E7C64C0B
:106A6000721C224200D0ACE04A461A43002E00D0ED
:106A700005E1002A00D156E13A00024300D1DBE0F3
:106A80001C189C429B414F44BA465B429A44534671
:106A90001B0200D480E75246B64B01261A409246AC
:106AA0007AE7B34CA24200D1C0E080244D462404D2
:106AB0002543A9466446382C53DC61461F2C00DD73
:106AC000CDE020251E002D1B4C46AB40AC40CE40F7
:106AD0005D1EAB41344323434C46CC403F1B45E055
:106AE0004A461C1AD11BA3429241524292460A00C6
:106AF0005146521A9246120200D583E05346234370
:106B000000D021E60022002553E71C189C429B413F
:106B10004F44BA465B429A44534601261B0200D4B6
:106B20003AE702265246934B01211A4013002140B6
:106B300062080A43DC075B089A4614432CE63900D6
:106B4000203AD1406246202A06D064464022121BD9
:106B50003C00944004430194019C621E94410C4308
:106B6000E3E5494619430B005C1EA341C41AA04249
:106B70009B415B42FB1A9A465D461600DCE549469E
:106B8000194300D1AEE0614664460139012C00D1C1
:106B9000E0E0774CA44556D08C469AE66146202228
:106BA0003C00521A944001009040A0466446421EA8
:106BB00090416246E1404446D7400C430443B94407
:106BC00001E76B498A4200D10CE7181898429B41B3
:106BD0004F445B42FB18DC0740085B089A461600EE
:106BE0000443D9E6002A00D081E03B0003431DD1D5
:106BF0008022002512030BE7C0087B075D46034394
:106C0000FA08D3E6C41AA04280414B464042FF1A1C
:106C10003B1A9A465D4697E51C1A4A46A3429B4199
:106C2000D71B5B42FB1A9A46012685E5C0087B0705
:106C30005D460343FA08E7E64A46DB08520713437A
:106C40004A46D208B5E6C0087B070343FA08DBE6EC
:106C5000494619430B00591E8B411C0053E64D4613
:106C6000203CE540202905D04024641A4946A14033
:106C70000B43984643465C1EA3412B4376E7002A0C
:106C8000E1D03A00DB08024300D1B8E64A46520799
:106C9000802413434A462403D208224207D0FE0828
:106CA000264204D15D463200C3087F073B43590F9B
:106CB000DB004907DB080B43A6E6C41AA04280416B
:106CC0004B464042FF1A3B1A9A465D46012633E581
:106CD0003B00034300D115E7C0087B075D46034333
:106CE000FA0866E6C0087B070343FA085EE63A0046
:106CF000DB08024300D182E64A4652078024134350
:106D00004A462403D208224207D0FE08264204D174
:106D10005D463200C3087F073B43590FDB00DB08A9
:106D200049070B4370E6C0087B070343FA0840E6B7
:106D30004C462039CC406146202906D06646402189
:106D4000891B4E468E40334398464346591E8B411D
:106D50001C43D8E51C18844280414F44BA46404247
:106D60008244D9E65346234300D1CBE614E6C0461D
:106D7000FF070000FFFF7FFFFE0700000023014A1E
:106D80001C0029E5FF07000070B505000C481C0336
:106D900016005B000A034900120B490D240B5B0D22
:106DA000814208D0064A0020934203D1200030439C
:106DB000431E984170BD01202A43FBD1F2E7C04633
:106DC000FF0700000A0030B5134C5300090305000B
:106DD000090B00205B0DD20FA34204DD0F48834254
:106DE00002DD0F4BD01830BD8020400301430D4819
:106DF000C01A1F2808DD0C48C31AD9400B0058429E
:106E0000002AF0D11800EEE7084CC540A4466344C0
:106E100099400B002B43F2E7FE0300001D04000025
:106E2000FFFFFF7F3304000013040000EDFBFFFFB2
:106E300070B5002816D0C317C5185D40C40F2800D0
:106E400000F094F8114B1B1A0A2816DC02002E00E1
:106E5000153296400B22121AD5405B052D032D0BDF
:106E60005B0D03E000240023002500261B052B43B7
:106E7000E40723433000190070BD0B3885405B05E3
:106E80002D0300262D0B5B0DF0E7C0461E0400000D
:106E900010B5041E10D000F069F80F4B1B1A0A2819
:106EA00011DC0B222100121AD14015300A035B05B8
:106EB0008440120B5B0D01E0002300221B051343ED
:106EC0002000190010BD22000B3882405B05120320
:106ED0000024120B5B0DF1E71E04000070B54202A6
:106EE0004300C40FFE201B0E591C550A08420CD04B
:106EF000E02189008C466D07120B63441B05134388
:106F0000E40723432800190070BD002B14D1002D85
:106F10001BD0280000F02AF80A281CDC0B232A00CA
:106F20001B1ADA40030015339D400E4B12031B1A47
:106F30005B05120B5B0DE1E7002D09D0130B8022DE
:106F400012031A436D07084BD8E700230022D5E748
:106F50000022054BD2E703002A000B3B9A40002594
:106F6000E3E7C04689030000FF0700001C2101235E
:106F70001B04984201D3000C10391B0A984201D31C
:106F8000000A08391B09984201D30009043902A2FA
:106F9000105C40187047C046040302020101010161
:106FA000000000000000000010B5002903D1FFF729
:106FB000DDFF203002E00800FFF7D8FF10BDC0461B
:106FC000084B1A78010A9A1811711A780132D2B254
:106FD0001A701A78C0B29A1810711A780132D2B2A7
:106FE0001A707047FC00002010B50C00134B1B7882
:106FF0001B1AD9B2FF230FE05B00DBB2013AD2B219
:10700000002A07D058B20028F6DA5B00312043404E
:10701000DBB2F3E70131C9B2A14205D2074A5218E7
:10702000127953400822EBE7044A117851180B718A
:1070300013780133DBB2137010BDC046FC00002092
:10704000F0B509240CE0661E094BB5005D19AF6967
:10705000A4001B199F612C6C1C64AC6E9C66F4B27E
:10706000002CF0D1024B986199661A64F0BDC046BD
:10707000FC00002010B5002406E00020021C011CCA
:10708000FFF7DEFF0134E4B2082CF6D910BD000092
:10709000F0B5DE4657464E464546E0B583B08346DA
:1070A00089469046394B1B7C1E2B1CD864230360F9
:1070B0000B60C8334246136003B0F0BCBB46B24617
:1070C000A946A046F0BD0134E4B2092C0ED8304BDD
:1070D000A2009B1898692F49FDF7FAF90028F2D011
:1070E0000137FFB2EFE700240027EEE7002400237A
:1070F000019300939A4601E00134E4B2092C2CD8A4
:10710000234BA2009B189D692249281CFDF7E0F93A
:107110000028F1D03800FDF7FFFF061C011C281CD9
:10712000FDF7C2FC011C5046FDF71EFB8246184DC0
:10713000A300ED18A86E311CFDF7B6FC011C0098E9
:10714000FDF712FB0090286C311CFDF7ADFC011C13
:107150000198FDF709FB0190CEE70F495046FDF776
:107160006DFEFDF7B9FF5B4618600B490098FDF70F
:1071700065FEFDF7B1FF4B46186007490198FDF722
:107180005DFEFDF7A9FF4346186095E77C010020EE
:10719000FC000020000016430000C84200B583B088
:1071A00002000B000A48143014210091AE3109F09E
:1071B00061FE002801D103B000BD0548143009F07C
:1071C000CDFF0428F7D00348034904F0BBFEF2E7E3
:1071D0007C010020044601080F02000070B5050084
:1071E000094C002323708C20C001FFF7E9FE280022
:1071F000FFF7E6FE04210220FFF7F6FE2178C9B270
:10720000201DFFF7CBFF70BDFC00002010B5094C1E
:10721000002323701020FFF7D3FE0020FFF7D0FEDD
:1072200004210220FFF7E0FE2178C9B2201DFFF7FC
:10723000B5FF10BDFC00002000B583B002000B00BC
:107240000B48143014210091AF3109F0CDFE002815
:1072500001D103B000BD0648143009F07FFF0428B7
:10726000F7D088210348890004F06CFEF1E7C0469E
:107270007C0100200446010870B50C4C00232370EB
:107280000B48FFF79DFE2178C9B2201DFFF786FF4E
:10729000084D2C00683403212000FFF7CDFF682340
:1072A000EB5C1B026078184370BDC046FC000020F8
:1072B000020200007C010020F0B5C64600B50700C0
:1072C0000E0015001C4C00232370C0208000FFF727
:1072D00077FE2178C9B2201DFFF760FF174B984653
:1072E0001C00683412212000FFF7A6FF68234246E5
:1072F000D35C1B06627812041343E2781202134334
:10730000227913433B60A3791B06E27912041343ED
:10731000627A12021343A27A13433360237B1B0663
:10732000627B12041343E27B12021343227C134359
:107330002B6080BCB846F0BDFC0000207C01002022
:1073400010B51D481D4B43611D4B83610023C36174
:107350000122026243628362C362036343631430A7
:1073600009F022FD002818D113481430002109F03B
:10737000F7FE002816D110481430002109F01CFF38
:10738000002814D10C4B00227C215A5401315A544C
:1073900008F084FC0B4B186010BD0B486C2104F006
:1073A000D1FDE1E70848722104F0CCFDE3E706488F
:1073B000782104F0C7FDE5E77C010020007800405B
:1073C0006D3D3000FC0100200446010810B508485E
:1073D00004300021FFF7E2FE0220FFF7FFFEFFF777
:1073E00015FF08F05BFC034B1860FFF743FE10BD70
:1073F000FC000020FC01002000B585B008F04EFC28
:107400002A4B1B68C01AFA23DB00984204D9284B88
:107410007C229B5C002B0FD008F040FC234B1B68A8
:10742000C01AFA239B00984204D9214B7C229B5C12
:10743000012B08D005B000BDFFF7C8FF1C4B7C2214
:1074400001219954E8E71A4B01329B5C002BF1D1E2
:10745000FFF712FFC0B201280BD0144B1B79022B8F
:1074600021D8124A0133137108F018FC0F4B186031
:10747000E0E70F4B1B7C1E2B02D80D4A013313741F
:107480000B4B1B7C1D2B03D8084B00221A71EBE71A
:1074900003AA02A901A8FFF70FFF029A0399019816
:1074A000FFF7CEFDF0E7FFF7E5FDDDE7FC0100208B
:1074B0007C01002010B584B00400002303930293E4
:1074C000019301AA02A903A8FFF7E2FD012C0AD04B
:1074D000022C06D0002C02D0002004B010BD03986E
:1074E000FBE70298F9E70198C82801DDC838F4E7FE
:1074F0000020F2E702E00130137001320378002B24
:10750000F9D102E00131137001320B78002BF9D16F
:107510001370704770B5002404E01519065D4E55D0
:107520000134E4B29C42F8D370BD10B504000A20C7
:1075300008F01CFB01F0D2FE01F0D8FE200001F0A3
:10754000E9FE10BDF0B583B007000D001600002461
:107550000EE03A5D084901A80AF0E2FF63006A46BE
:107560001279EA5401336A465279EA540134E4B29A
:10757000B442EED303B0F0BD1846010870B5040064
:107580000D000A2008F0F2FA01F0A8FE01F0AEFEAC
:107590002900200001F0F6FE70BD0000F0B5D646CF
:1075A0004F464646C0B582B004000190884608F0B8
:1075B00075FB314B186000229A80230000255A1C6D
:1075C0001E78002E03D00135ADB21300F7E7022775
:1075D00006E0294B9B889BB2AB4238D208F03CFABC
:1075E00008F05CFB244B1B68C01A40453CD2002EBF
:1075F0003AD101F0A9FD0028F0D11F4B99469B8894
:107600009AB2924601339BB24A46938001F0A6FD9E
:1076100053464B4418724B469B889BB2632BD8D978
:10762000154B00229A80D4E701339BB204009D429F
:107630000AD95818104A1218127AD2B2601C24784B
:10764000A242F1D00096EFE70137BFB2009E3900A9
:10765000094B9B885B1B9F42C0DC002EBED1019C66
:10766000002301220092E2E7300002B0E0BCBA46FB
:10767000B146A846F0BDC0460402002010B598B03F
:1076800004000D481D2300226946FFF743FF102226
:1076900010A92000FFF756FF20231D22694610A8DD
:1076A000FFF738FF3D216846FFF768FF0348642174
:1076B000FFF774FF18B010BD2046010840460108CE
:1076C00070B580256D00094C00222900200009F0CA
:1076D000BCF9052008F04AFA01222900200009F02F
:1076E000B4F903480349FFF759FF70BD0004005087
:1076F000404601088813000070B51048FFF715FFD9
:107700000F483221FFF74AFF002800D070BD8025C6
:107710002D02A024E40500222900200009F095F99B
:10772000052008F023FA01222900200009F08DF934
:1077300003480449FFF732FFE8E7C0464446010822
:10774000404601088813000010B5084C2000FFF7E0
:10775000ECFE322008F00AFA2000FFF7E6FE3220A5
:1077600008F004FA0248FFF7E0FE10BD48460108A1
:1077700058460108024B6C22985CC0B27047C04664
:107780000402002030B58FB0244C2000FFF7CDFE5E
:10779000322008F0EBF92000FFF7C7FE322008F096
:1077A000E5F91F4C1F4801AA2100FFF7A3FE01A81D
:1077B000FFF7BBFE1C4801AA2100FFF79BFE322009
:1077C00008F0D4F9642101A8FFF7E8FE04000128BD
:1077D00003D0002420000FB030BD322008F064FA3E
:1077E0001248FFF7A2FEC82111484900FFF7D6FE54
:1077F000051EEFD101E00135EDB2092D0CD80028AE
:1078000008D1C8210A484900FFF7C8FE0028F2D075
:107810002000F0E70400DDE70400DBE7484601084C
:10782000F72700206C4601087846010888460108C1
:1078300040460108F8B50500114C6C260023A355FD
:10784000FFF75AFF0F4F3800FFF76FFE322008F0A6
:107850008DF93800FFF769FE322008F087F927001C
:10786000703709483A002900FFF744FE3800FFF757
:107870005CFE064B012222215A54A255F8BDC04697
:1078800004020020484601089C46010884020020AA
:1078900010B50448FFF749FE03486421FFF77EFE58
:1078A00010BDC046D04601084046010810B5FFF79C
:1078B00023FF10BD30B591B0041E71D009236A4674
:1078C00013705370564BA8229A5C69468A70A9229D
:1078D0009A5CCA70AA229A5C0A71AB229A5C4A71BD
:1078E000AC229A5C8A71AD229A5CCA71AE229A5C13
:1078F0000A72AF229B5C4B724A48FFF716FE4A4859
:107900003221FFF74BFE00282BD00025474B2322C6
:10791000012199544648FFF708FE464809230022F2
:1079200008A9FFF7F7FD0A2203A96846FFF70AFE38
:107930001423092208A903A8FFF7ECFD0024042C56
:1079400013D81D2108A8FFF719FE37486421FFF757
:1079500025FE012809D0322008F008F90134E4B2EC
:10796000EDE7FFF7A3FF0125D0E7962008F0FEF82A
:10797000314B6C229B5C012B04D0012D4DD1FFF7C4
:1079800087FF4AE02C4C70342C492D482200FFF729
:10799000B1FD2000FFF7C9FD962008F0E7F8ECE7FD
:1079A000284B1A8869460A809B788B70264D2800E0
:1079B000FFF7BBFD322008F0D9F82800FFF7B5FD2E
:1079C000322008F0D3F8194B23220021995419488A
:1079D0000923002208A9FFF79DFD032203A9684699
:1079E000FFF7B0FD0623092208A903A8FFF792FDBF
:1079F000042C0FD80F2108A8FFF7C0FD0A48642106
:107A0000FFF7CCFD012805D0322008F0AFF8013493
:107A1000E4B2EDE70A2008F0A9F811B030BDC04685
:107A20003027002044460108404601088402002017
:107A3000D8460108E446010804020020D8270020A7
:107A40009C460108F04601084846010830B58FB051
:107A5000814B6C2200219954FFF732FEFFF74CFE58
:107A60007E48FFF762FD322008F080F87C48FFF77F
:107A70005CFD322008F07AF87A48FFF756FD7A4824
:107A8000FA21FFF78BFD0400012800D173E00025E7
:107A9000322008F06BF87548FFF747FD7448642101
:107AA000FFF77CFD002800D191E07248FFF73DFD13
:107AB00071486421FFF772FD002800D192E0322066
:107AC00008F054F86D4B22229C5C012C00D196E00A
:107AD0006B48FFF72AFD0A2008F048F86948FFF7CD
:107AE00024FD0A2008F042F86748FFF71EFD0A202F
:107AF00008F03CF86548FFF718FD0A2008F036F852
:107B00006348FFF712FD0A2008F030F86148FFF7DC
:107B10000CFD0A2008F02AF85F48FFF706FD5F48D1
:107B20005F49FFF73BFD554B23220121995401206A
:107B3000FFF7C0FE5B4C5C4801AA2100FFF7DAFCAE
:107B400001A8FFF7F2FC594801AA2100FFF7D2FC77
:107B50006E2101A8FFF722FD554B1870012856D061
:107B6000012D65D0524B00221A703B4B6C32012123
:107B700099540FB030BD322007F0F8FF4D48FFF7A1
:107B8000D4FC4D48FA21FFF709FD002816D0002546
:107B9000322007F0EBFF4948FFF7C7FC4848FA21BD
:107BA000FFF7FCFC002800D072E74648FFF7BDFC59
:107BB0003A486421FFF7F2FC250069E74248FFF7E5
:107BC000B4FC36486421FFF7E9FC2500E0E73F48B4
:107BD000FFF7ABFC322007F0C9FF3D48FFF7A5FCDB
:107BE000012562E7323007F0C1FF2349394801AA75
:107BF000FFF780FC01A8FFF798FC01255FE7002153
:107C0000995415487030FFF790FC250060E7324822
:107C1000FFF78BFC21486421FFF7C0FC002803D04C
:107C2000234B01221A709BE7214B00221A7097E721
:107C3000322007F09BFF2948FFF777FC174C64219F
:107C40002000FFF7ABFC2648FFF76FFC144920002B
:107C5000FFF7A4FC86E7C04604020020F4460108B2
:107C6000FC460108044701080C4701086447010865
:107C70007047010898470108D82700208402002097
:107C8000A4470108B4470108C8470108DC470108B8
:107C9000F047010804480108184801084046010857
:107CA00088130000F72700206C4601087846010879
:107CB000E102002014470108204701083C47010861
:107CC00048470108544701082C4701087C47010830
:107CD000884701089C460108884601082048010899
:107CE0002848010810B50400FFF706FD2000FFF743
:107CF000C5FC10BDF0B5304B1978304BCA00521A94
:107D000051005B1801225A7300230CE09A1D2A4986
:107D100008782B498C5C294AC100091A48001218BE
:107D2000D4540133DBB20B2BF0D9142301E001331F
:107D3000DBB2234AD25C2C2A01D0182BF7D9013BA5
:107D4000DBB21D4A10781D4AC100091A48001218FA
:107D500000211173012213E01949C85C30385043E7
:107D600015490E781549F400A71B7D004D19297B94
:107D700009182973910051184A00D2B2013BDBB2B5
:107D8000142BE9D80E4B1B7D2D2B0AD00A4B1B78E8
:107D9000DBB2612B04D8084A13780133DBB21370CD
:107DA000F0BD054B1878054BC200141A6100591834
:107DB0000B7B5B420B73E9E7CC020020B81000207C
:107DC0000C03002030B51B4B1B78D8B2002B2FD0F2
:107DD000194B0C241C570123002501E00133DBB2B1
:107DE000632B10D8144AD900C91A48001218527BC4
:107DF000012AF3D1104A1218127B52B2A242EDDDD1
:107E000014001D00EAE700230BE00B4AE900491BC0
:107E100048001218D15C094AD218C73211700133D8
:107E2000DBB20B2BF1D9054BD32200219954012051
:107E300030BDC046CC020020B81000203027002002
:107E4000F0B583B003000190002702E00137BFB214
:107E500013005A1C18780028F8D1022411E00133CD
:107E60009BB235009F4209D95A180D4EB25CD2B26E
:107E70006E1C2D78AA42F2D00090F0E70134A4B233
:107E800000982100074B5B88DB1B9C4206DC002826
:107E900004D1019D002301220092E3E703B0F0BD6D
:107EA00000050020CC020020094B9B889BB2002BD0
:107EB00002D1074B00229A71054A938899B2013387
:107EC0009BB29380034B585493794340937170470E
:107ED000CC020020D403002010B50400C0B2FFF78C
:107EE000E3FF200AFFF7E0FF10BD10B5040080B2E9
:107EF000FFF7F2FF200CFFF7EFFF10BD70B50E008B
:107F0000002406E0451C0078FFF7CEFF0134A4B240
:107F10002800B442F6D370BD70B50400FA21890080
:107F2000FCF7FCF886B2C3B23033D8B2FFF7BCFF1F
:107F3000FF252E40FA239B0073439BB2E41AA4B2A0
:107F400064212000FCF7EAF886B2C0B23030C0B23B
:107F5000FFF7AAFF2E4064235E43B6B2A41BA4B26F
:107F60000A212000FCF7DAF886B2C0B23030C0B285
:107F7000FFF79AFF3540AB00ED186D00601BC0B2F3
:107F80003030C0B2FFF790FF70BD70B504000A2119
:107F9000FCF7C4F885B2C0B23030C0B2FFF784FF3E
:107FA000FF232B409A009B185B00E01AC0B23030D0
:107FB000C0B2FFF779FF70BD020006490B5C980064
:107FC0001B185B002033D8B201328B5C303BC018E9
:107FD000C0B27047000500200330024B185CC0B2ED
:107FE0007047C0460005002070B505000130C0B2E2
:107FF000FFF7F2FF84B22402A4B22800FFF7ECFFDF
:1080000080B2001980B270BD70B504000230C0B2F9
:10801000FFF7EAFF05042000FFF7E6FF401970BDF7
:10802000F0B583B0060001911700002408E0751C2C
:108030003819C0B2FFF7D0FF30700134A4B22E005F
:108040006B469B88A342F2D803B0F0BD10B5202147
:10805000044808F0F3FC002801D0002010BD0120E6
:10806000FCE7C0460004005070B5154B1B899BB25D
:10807000012B0DD1124B9B7A012B00D070BD104B00
:1080800000229A721A81F9E707F008FE0C4BD860BB
:1080900001F05AF80028F1D1094C6588ADB201F021
:1080A0005DF8084B5855638801339BB26380638841
:1080B0009BB2054A9342E7D9014B00225A80E3E77D
:1080C000CC02002000050020B70B000010B5FFF720
:1080D000CBFF274B5B889BB2002B1FD0254B1B7817
:1080E000DBB2882B0FD0224B00225A8001200028BF
:1080F0001DD11F4B5A8892B21E4B9B7804339A4273
:1081000015D0012015E007F0C9FD194BDB68C01A36
:10811000FA239B009842E6D8002000E001200028C6
:10812000E5D1134B5B889BB2012BE0D801200028DE
:1081300018D0002819D10E4B00225A80013010BDF2
:108140000C4AD25C5140C9B20133DBB2084A5288B2
:1081500092B29CB29442F3D30029EAD0044B00229D
:108160005A80ECE703000100F0E70020E7E7C04693
:10817000CC0200200005002010B5FFF775FF2F4B43
:108180005B889BB2002B1CD02D4B1B780D2B2AD06B
:108190002B4B5B780A2B28D0284B00225A800124D5
:1081A000002C17D1254B5B88023B254AD35C0D2B55
:1081B00010D0224B5B88013BD35C0A2B0AD00124F0
:1081C0000AE00124002CEBD11C4B5B889BB2042BF2
:1081D000E6D80124002C0AD0002C2CD1174B002209
:1081E0005A80013428E00024ECE70024EAE715482F
:1081F000FFF726FE012803D1104B02221A74EBE789
:108200001148FFF71DFE012803D10C4B03221A74FD
:10821000E2E70E48FFF714FE012803D1074B0422C2
:108220001A74D9E70A48FFF70BFE0128F6D0034B72
:1082300000225A8000E00024200010BDCC02002063
:108240000005002034480108404601084448010860
:108250004C48010870B5FFF707FF564B5B889BB28F
:10826000002B58D0534B5B7C012B05D0514B5A8AC5
:1082700092B2002101202AE04E4B5A8A023292B279
:10828000F7E715004C4CA45C0A2C2AD1494C647CBD
:10829000E6B2002C25D1023292B246484282464ACA
:1082A000D35CDBB2454C63544B1C525DD2B2E254FA
:1082B0004288013A92B23000531E3F4CE35C4F2B90
:1082C00022D0013292B23E4B9A4200D90122394B60
:1082D0005B889BB293421FD0531E374CE45C0D2C3D
:1082E000CFD0354CE45C0D2CE6D0334CE45C0A2C4A
:1082F000E2D0314CE35CDBB2304C6354013189B2E3
:108300002C4B00245C74D7E7A35C4B2BD9D1294BB1
:1083100001241C75D5E70120002801D0002070BD84
:108320000023264AD25C222A05D0254A934202D84D
:1083300001339BB2F5E75A1C92B221498B42EED829
:1083400001E0013292B21D49895C222906D0190050
:1083500020318A4202D21A498A42F2D911000133ED
:108360009A42DCD0164B9A42D9D8931E134AD35C5A
:108370007B2B03D00139535C242BD0D10F4B5B7C7A
:10838000DBB2602BCBD80D4B9B79DBB22F2BC6D940
:108390000A4B9B79DBB2392B04D9084B9B79DBB2B2
:1083A000402BBCD9054B9B79DBB25A2BB7D80120A7
:1083B000B5E7C046CC020020000500200C030020D9
:1083C000B70B0000F0B5CE46474680B599B08E4B4E
:1083D00000229A807720FFF767FD8C4B5C78E4B22F
:1083E0002000FFF761FD0020FFF75EFD282C12D86A
:1083F000A400874B1B599F460120FFF755FD5020D5
:10840000FFF76AFD002006F07BFAFFF74DFD05F04F
:10841000E5FFFFF749FD7C4A9388033BDBB27D49CA
:108420008B70897893794B4093719079C0B2FFF744
:108430003BFD012019B0C0BCB946B046F0BD0020DC
:10844000FFF7E2FD744B9842E5D10420FFF7CCFD25
:10845000724BC3189BB2B02292009342DBD201F060
:1084600065FBD8E70020FFF7CFFD6B4B9842D2D1D8
:108470000420FFF7C9FD07000820FFF7ADFD050048
:108480003F231E003E403B4223D1102802D100254D
:1084900038E00136B542BED9F400E4B2200009301C
:1084A000C0B2FFF7B1FD05900D34E0B2FFF7ACFDAF
:1084B0000400B02252025A4BFB189342E9D20599AC
:1084C000380001F00AFB381D210001F006FB0837D7
:1084D000DFE70026DEE72801001980000930C0B27E
:1084E000FFF792FDA30007AAD0500134E4B20F2C8D
:1084F000F1D9B02252024A4BFB18934207D34037BE
:108500000135EDB2012D00D985E70024EFE707A979
:10851000380001F0F5FAF2E70020FFF775FD0400DE
:108520000420FFF759FD060000250BE0200001F0B4
:10853000D2FAFFF7DAFC201D01F0CDFAFFF7D5FCE7
:1085400008340135AE42F1D865E70020FFF75CFD45
:10855000314B984200D05EE701F0B0FE5BE70020AF
:10856000FFF752FD2C4B984200D054E7BFF34F8FDA
:108570002C4B2D4ADA60BFF34F8FC046FDE7002039
:10858000FFF742FD244B984200D044E7274B179356
:10859000C020042217A9000101F0E6FA3BE701F030
:1085A000EBFCFFF781FC01F0DFFCFFF77DFC002016
:1085B000FEF780FFFFF799FC0120FEF77BFFFFF736
:1085C00094FC0220FEF776FFFFF78FFC06F0ACF973
:1085D000C0B2FFF769FC05F0FDFEFFF765FC1AE786
:1085E00002F0C6FF1248F421FFF788FC13E7104899
:1085F0000022F421FFF714FD02F02CFF0BE702F03C
:10860000B7FF002422E0C046CC0200200005002075
:1086100020420108D4030020BBDDAACCC0FCFFFF30
:108620000060FEF700ED00E00400FA05CCBBDDAA17
:1086300030270020F14B2200783252009B181A7923
:10864000587900021043FFF747FC0134072CF1D999
:10865000EA4C82235B00E35C0622FF32A05C00024E
:108660001843FFF739FC83235B00E35C0822FF32E9
:10867000A05C00021843FFF72FFC84235B00E35C3F
:108680000A22FF32A25C12021A4385235B00E35CDC
:108690001B0413430C22FF32A05C00061843FFF7B3
:1086A00024FC86235B00E35C0E22FF32A05C000208
:1086B0001843FFF711FC87235B00E05CFFF7F4FB36
:1086C0001023FF33E05CFFF7EFFB20001130FF3099
:1086D0003821FFF713FCA4235B00E35C4A22FF323E
:1086E000A25C12021A43A5235B00E35C1B04134344
:1086F0004C22FF32A05C00061843FFF7F6FBA623CE
:108700005B00E05CFFF7D0FB4E23FF33E35CA72266
:108710005200A25C12021A435023FF33E35C1B0495
:108720001343A8225200A05C00061843FFF7DDFBAC
:108730005223FF33E05CFFF7B7FBA9235B00E05C4B
:10874000FFF7B2FB5423FF33E35CAA225200A25C82
:1087500012021A435623FF33E35C1B041343AB227C
:108760005200A05C00061843FFF7BFFB5823FF33FD
:10877000E35CAC225200A25C12021A435A23FF337C
:10878000E35C1B041343AD225200A05C00061843B7
:10879000FFF7ABFB5C23FF33E35CAE225200A25C2D
:1087A00012021A435E23FF33E35C1B041343AF2220
:1087B0005200A05C00061843FFF797FB6023FF33CD
:1087C000E35CB0225200A25C12021A436223FF3320
:1087D000E35C1B041343B1225200A05C0006184363
:1087E000FFF783FB17E66000C0B2FFF7FDFB834B8A
:1087F0002200783252009B181871000A5871013417
:10880000072CF0D91020FFF7EFFB7C4C82235B0094
:10881000E054000AE31858701220FFF7E5FB8323A9
:108820005B00E054000AE31858701420FFF7ECFBDB
:1088300084235B00E054020A23000933FF335A709B
:10884000020C9A70000ED8701820FFF7CDFB83B28F
:10885000FF2210400D32A0541B0A22000D32FF32BD
:1088600053701A20FFF7B8FB87235B00E0541B20EE
:10887000FFF7B2FB1023FF33E054002628E000246A
:10888000BEE7F500EDB228001C30C0B2FFF7ACFB2C
:108890005A4C33002233DB00E054000AE4186070C5
:1088A00028001E30C0B2FFF79FFBA070000AE070E6
:1088B000301DC000C0B2FFF797FB2071000A607145
:1088C0002235E8B2FFF790FBA071000AE071013693
:1088D000062ED6D95420FFF797FB484CA4235B0003
:1088E000E054020A23004933FF335A70020C9A7095
:1088F000000ED8705820FFF76FFBA6235B00E054F2
:108900003F4B9B780433572B07D83D4B9B78043360
:108910005D2B1FD802F09EFD7DE55920FFF774FB0B
:10892000364C4E23FF33E054020A23004E33FF330C
:108930005A70020C9A70000ED8705D20FFF74CFB45
:108940005223FF33E0545E20FFF746FBA9235B0070
:10895000E054DAE75F20FFF757FB284C5423FF333E
:10896000E054020A23005433FF335A70020C9A7009
:10897000000ED8706320FFF747FB5823FF33E05405
:10898000020A23005833FF335A70020C9A70000E0B
:10899000D8706720FFF738FB5C23FF33E054020AEE
:1089A00023005C33FF335A70020C9A70000ED870AB
:1089B0006B20FFF729FB6023FF33E054030A603488
:1089C000FF346370030CA370000EE070A2E70D4843
:1089D000FEF730FF1FE50020FFF706FB00F00AFF5F
:1089E00019E500F0C9FDFFF75FFA00F0BFFDFFF7E2
:1089F0005BFA10E5012005F0F9FC0CE530270020BA
:108A00000005002003050020032005F0EFFC02E52F
:108A10000020FFF7E1FA01F03DFEFCE4002001F048
:108A200039FEF8E40020FFF7D7FA05F0CBFCF2E4BA
:108A30000020FFF7D1FA01F05FFEECE4284CE0786B
:108A4000FFF732FA2079FFF72FFA6079FFF72CFA57
:108A50002078FFF729FA6078FFF726FAA078FFF769
:108A600023FAA079FFF720FAD5E40020FFF7B4FA43
:108A700081460120FFF7B0FA80460220FFF7ACFAEA
:108A800006000320FFF7A8FA07000420FFF7A4FA66
:108A900004000520FFF7A0FA05000620FFF79CFA66
:108AA000030002950194009732004146484603F0C6
:108AB000D7FDB0E40B4BD878C0B2FEF7FBFEAAE4BA
:108AC0000020FFF7A1FA084B984200D0A3E4074822
:108AD00004221F21FFF7A4FA02F0BCFC9BE4C0466D
:108AE000A82C002000050020BBDDAACCD827002040
:108AF00010B5FFF7EBFA012800D010BDFFF762FCBC
:108B00000128FAD1034B9988C9B2034800F0E2FC6E
:108B1000F3E7C046CC020020D4030020F0B5C646DF
:108B200000B52E4B5E7D002E02D19D7D012D06D01D
:108B3000012E43D00025280080BCB846F0BD07F0C8
:108B4000ADF8264B9B69C01A254B984204D9234B9C
:108B50001B7FDCB2002B10D007F0A0F81F4B9B69E5
:108B6000C01A204B9842E6D91C4B00229A7501F09E
:108B7000FBF9051E1ED03500DDE7184F01333B77AA
:108B8000042290467A7700227A807A827B74FEF7FC
:108B9000DBFD43467B7700233B7008E0124BE2008D
:108BA000121B52009B1800225A730134E4B2632C4A
:108BB000F4D9D1E70020FEF77DFEBCE707F06EF8A0
:108BC000064B9B69C01A074B984204D9034B0022FD
:108BD0009A750025AFE70025ADE7C046CC0200201E
:108BE000C7AF00005FEA0000B810002070B5504B1E
:108BF00000229A801B7CDCB2032B05D0042C00D110
:108C000089E0022C02D00024200070BD494BDA7BA1
:108C10001B7C9100521852009B18DBB2103BDBB258
:108C2000062B00D981E09B00434AD3589F46112070
:108C3000FFF7C2F901F088F9E6E71120FFF7BCF968
:108C400001F082F905F0E6FB002808D0052005F0C8
:108C5000CDFB032005F070FE05F0F8FBD4E7374D9F
:108C60002826A85D01F048FDA85D05F0C7FBEDE7EB
:108C70001120FFF7A1F9002812D1304D2826A85D58
:108C800001F03AFDA85D05F0B9FB01F06DF901288E
:108C900023D0032005F0AAFB002005F04DFEB3E72A
:108CA00005F0B8FB254B28229854010A013299544B
:108CB000010C01329954010E013299543C2809D912
:108CC000033A3C21995401320021995401329954BC
:108CD0000132995402F0BEFBCFE7002005F086FB7D
:108CE000DAE7134B9B7F002B00D08DE7104B9B7D69
:108CF000002B00D088E702F065FC0D4B00225A756E
:108D00001A625A62002001F01FF901247CE7084B27
:108D100000229A7778E7064B00225A751A625A6247
:108D2000002001F011F901246EE700246CE7C04631
:108D3000CC02002000050020C4420108302700209A
:108D400010B541480E21FFF7D9F8404B9B7F012B0E
:108D50000ED13E4B9B7D012B06D03C4B00229A77D7
:108D60000120FFF712F906E00620FFF70EF902E0F6
:108D70000120FFF70AF905F01FFF00284FD1334B00
:108D80001B6A012B04D9324BDB7EDBB2012B24D9C9
:108D90000020FFF7C1F80020FFF7BEF80020FFF722
:108DA000BBF82A4A136A013313622A4B2C229A5CBD
:108DB0002D21585C00021043FFF7E7F805F030FB67
:108DC00080B2FFF7A9F80D20FFF76EF81F4B9988C6
:108DD000C9B2214800F07EFB10BD05F089FD0128D5
:108DE0000FD00228DDD11D4C208C80B2FFF794F803
:108DF00001F072FCFFF790F8208F80B2FFF78CF83B
:108E0000CFE7164C208980B2FFF786F801F064FCAA
:108E1000FFF782F8608980B2FFF77EF8C1E705F0BE
:108E20001DFB80B2FFF778F805F018FB80B2FFF762
:108E300073F805F013FB80B2FFF76EF8034A536A2C
:108E400001335362B1E7C04658480108CC02002004
:108E50008823002030270020D4030020442D002048
:108E600010B54E4B5B7FDBB2042B63D89B004C4AA2
:108E7000D3589F46494B5B7D012B07D0474B9B7DC9
:108E8000002B07D1454B01225A7753E0434B032275
:108E90005A774FE0414B9B7F012B4BD13F4B1B7DC2
:108EA000012B47D13D4B01225A7743E03B4B5B7D81
:108EB000012B09D0394B01225A7700221A625A62DB
:108EC000002001F041F835E0FFF756F9012831D1D3
:108ED000FFF78CFE314B58775B7F022B2AD12F4C4A
:108EE00026330022E25406F0D9FEE06206F0D6FEF8
:108EF00020631FE006F0D2FE284B1B6BC01A6328CC
:108F000018D9FFF71DFF254C0323637706F0C6FE33
:108F1000E0620FE0FEF736FC204C607500236377BB
:108F200000F0DCF93423E35C012B04D01B4B5B7DA8
:108F3000012B0ED010BD194B5B7D002BF6D1174CC9
:108F40003533E05CC0B2FEF7B5FC34230022E254B6
:108F5000ECE7124C0133637706F0A0FEE06206F006
:108F60009DFE64382063E5E7FFF774F901280BD014
:108F70000A4B1B7D012BDDD1FEF724FF012806D013
:108F8000064B00225A77D5E7FEF7B4FEF0E702F071
:108F900061FA024B01225A779A77CBE7CC02002084
:108FA000E042010870B50E4C002300256380238148
:108FB000A38001333622A35425746575A37506F08A
:108FC0006DFEA06106F06AFEA063657725772575C2
:108FD0003C23E554083BE5546574A57770BDC04655
:108FE000CC02002010B5FFF731F801280BD0104B50
:108FF00036229B5C002B15D1FEF758FC0C4B362219
:109000000121995410BD0A4B36229B5C012B02D0E2
:10901000FFF76EFDF6E7FEF73BFC054B362200211D
:109020009954EFE7FFF77AFDFFF71AFFEAE7C0462A
:10903000CC02002010B584B006F030FE354B9B6B9F
:10904000C01A354B984201D804B010BD06F026FE78
:10905000304B98635B7D002BF6D1FEF7F7FF041EC3
:10906000F2D12C4B1B7F002BEED02A4B1B7D002B0B
:10907000EAD000F079FF6B4618700120FEF71AFA6B
:109080006421FBF7D5F8FDF7D3FE0022234BFCF754
:10909000DDF8FBF77FFA6B4658700020FEF70AFAFE
:1090A0006421FBF7C5F8FDF7C3FE00221B4BFCF75C
:1090B000CDF8FBF76FFA6B4658800220FEF7FAF9FD
:1090C0006421FBF7B5F8FDF7B3FE0022134BFCF764
:1090D000BDF8FBF75FFA6B46187173236A4653714C
:1090E0000E3B93710D33D37108E00D4B1B19A83360
:1090F0001A7823006B441A720134E4B2052CF4D9B7
:1091000024236A4693735733D3736846FEF7EAFD08
:109110009AE7C046CC0200200F2700000000E03F85
:1091200030270020024B3422995401329854704762
:10913000CC020020034B00221A805A809A80DA80E9
:109140007047C04630160020034B9888DB88C01A51
:1091500043425841C0B2704730160020094A9388F4
:109160009BB20949C85CC0B2938801339BB293801B
:1091700093889BB2054A934202D9024B00229A80FF
:109180007047C0463016002038160020B70B00008C
:10919000F0B5D6464F464646C0B590B04A4D082376
:1091A0009A462B6238330393022604963D3B984639
:1091B000059300240694012707970894434B99468A
:1091C00003A9180008F0C7FF8023039304964346C1
:1091D000059306940794089403A9484608F0BBFF3A
:1091E00080231B010393049643460593069407943A
:1091F00001330893A02003A9C00508F0ACFF534633
:109200000393049643460593069407940233089308
:1092100003A9484608F09FFF2D4AC62189005358EC
:109220001B021B0A535080231B051360294B5A6BEA
:109230008021C9010A435A635A6B0A400292029A7A
:10924000DA6C41468A43DA64DA6A3A43DA62DA6A05
:109250003A400192019ADA6A3243DA62DB6A1E40CE
:109260000096009BE1235B0209930A940B940C94F3
:109270000C230D93C0239B000E930F9409A9280083
:1092800009F0D8F8AA6880235B011343AB606B68D0
:10929000114A13406B60AB682A229343AB602B6882
:1092A0003B432B60EFF3108287F310882B6820215B
:1092B0000B432B6082F31088FFF73CFF10B0E0BC3B
:1092C000BA46B146A846F0BD00380140000400503F
:1092D00000E100E000100240FFB7FFFF024AD38820
:1092E0009BB293807047C04630160020074B002287
:1092F0001A80002304E0064A0021D15401339BB2B6
:10930000962252009342F6D37047C0463016002092
:10931000F021002010B5184B00221A8009E001301E
:10932000154A13889BB2154CE154138801339BB244
:10933000138001780029F2D10F4B1A8892B20F499D
:109340000D2088541A88013292B21A801A8892B27B
:109350005A800C3818800978C9B2094A916218807D
:10936000EFF3108180F3108813687F30034313609C
:1093700081F3108810BDC04630160020F021002077
:109380000038014030B51A4B00221A800AE0184A12
:1093900013889BB20578174CE554138801339BB2B0
:1093A00013800130124B1B889BB28AB29A42EED8CE
:1093B0000F4B1A8892B20F490D2088541A88013237
:1093C00092B21A801A8892B25A800C3818800978A2
:1093D000C9B2094A91621880EFF3108180F31088B6
:1093E00013687F300343136081F3108830BDC0469B
:1093F00030160020F02100200038014082B00D4BD3
:109400005A6AFF23134001930B4BDA880199DA88DB
:1094100092B2C9B209488154DA88013292B2DA8034
:10942000DB889BB2064A934202D9034B0022DA80C2
:1094300002B0704700380140301600203816002076
:10944000B70B000010B5144B1A8892B25B88013B31
:109450009A4215D3EFF31080012181F310880F4B4E
:109460001A688024A2431A6080F31088EFF31080FA
:1094700081F310881A683F310A431A6080F310881C
:10948000054A138899B201339BB21380044B5B5C8D
:10949000DBB2024A936210BD301600200038014052
:1094A000F0210020094B1A8892B25B889BB29A4245
:1094B0000BD3EFF31081012383F31088044A136860
:1094C00040208343136081F31088704730160020DA
:1094D0000038014010B5002305E004780D4AD4544B
:1094E0000133DBB201308B42F7D389B20A484180A5
:1094F000084B1A78D2B2094B9A6201220280EFF32C
:10950000108182F310881A68802002431A6081F368
:10951000108810BDF02100203016002000380140D6
:1095200010B5094A802380210905D150BFF34F8F20
:10953000BFF36F8F054BDA691A6801218A431A60FD
:10954000FFF726FE10BDC04600E100E000380140F4
:1095500070470000014B1878C0B270471C230020F0
:10956000014B5878C0B270471C230020014B9878FB
:10957000C0B270471C230020014BD878C0B270479E
:109580001C230020014BD8707047C0461C230020CC
:1095900010B5074B00221A719A705A71DA800132A5
:1095A0001A7201325A72072006F0FCFE10BDC04646
:1095B0001C23002010B50D4B9B7A002B09D00C4BBF
:1095C000198889B20B4807F039FA00280BD000201F
:1095D00010BD074B198889B2064807F02FFA0028FA
:1095E000F6D00120F4E70120F2E7C0461C2300205A
:1095F000000000200004005010B5FFF7DBFF504BC7
:10960000D872DA88013292B2DA80DA7AD2B21B7A70
:10961000DBB29A423ED04A4B5B79DAB2002B1ED0C5
:10962000092A2ED0464BDB889BB2062B21D9444B0E
:109630005B79DBB2082B0AD84149CA7AD2B24879A1
:1096400008231B1A9A408B781343DBB28B703C4A79
:1096500053790133DBB253710023D38009E0384BD7
:10966000DB889BB2022B04D9354B0022DA80013211
:109670005A71334BDA7AD2B21A725B7A042B52D017
:1096800010BD2F4BDB889BB2062BF2D92C4B04224A
:109690005A72EEE72A4B5A79D3B2092A15D00A2B0F
:1096A00028D0002B08D0264BDB889BB20A2BE0D1B8
:1096B000234B04225A72DCE7214BDB889BB2082B38
:1096C000D7D11F4B04225A72D3E71D4BDB889BB2C4
:1096D000082BCED11A4BDB7A002B03D1184B042276
:1096E0005A72C6E7164A53790133DBB2537100232D
:1096F000D380BEE7124BDB889BB2082BB9D1104C4C
:10970000002363720F4B802252015A61072006F03A
:109710003DFE0123E3702079C0B2A178C9B20A4BA3
:109720005B689847A5E7064B00225A720332DA704D
:10973000044B802252015A61072006F027FE9FE762
:109740001C2300200004014000000020014B587A37
:10975000C0B270471C230020034B00221A73DA703A
:109760005A72DA815A7070471C230020114B1B7A01
:10977000002B0FD0002806D00E4B59890E4A536992
:109780008B43536170470B4B5B890B4A51690B4309
:109790005361F7E7002806D0064B5B89064A5169FA
:1097A0000B435361EEE7034B5989034A53698B43DB
:1097B0005361E7E700000020000400500B4B1B7AC8
:1097C000D8B2002B07D00A4B1B69084A52891A42AB
:1097D00009D000207047064B1B69044A52891A427F
:1097E000F8D00120F6E70120F4E7C0460000002091
:1097F0000004005010B5064C20820023A374A382FD
:109800000433E370072006F0CDFD0123637210BD21
:109810001C23002010B50002401880B2FFF7EAFFB9
:1098200010BD10B50002401880B2FFF7E3FF10BD75
:1098300070B505000C004B4B1B78002B02D1494B37
:1098400000229A75474B9A7D062A00D984E093003E
:10985000454AD3589F46434D01232B70E1B2A320C4
:10986000FFF7D8FF06F01AFAA861AB7D0133AB759C
:1098700070BD06F013FA3B4B9B69C01A3128F7D92B
:10988000210AC320FFF7C6FF06F008FA354B98619E
:109890009A7D01329A75EBE706F000FA314B9B692D
:1098A000C01A3128E4D90821C120FFF7B3FF06F020
:1098B000F5F92C4B98619A7D01329A75D8E706F03C
:1098C000EDF9284B9B69C01A3128D1D9274B585D37
:1098D000E821FF31FFF7A5FF06F0E0F9214B986181
:1098E0009A7D01329A75C3E706F0D8F91D4B9B6942
:1098F000C01A3128BCD90821C120FFF78BFF06F020
:10990000CDF9184B98619A7D01329A75B0E706F04F
:10991000C5F9144B9B69C01A3128A9D9134B585D5E
:10992000F1214900FFF77DFF06F0B8F90D4B986172
:109930009A7D01329A759BE706F0B0F9094B9B6955
:10994000C01A312800D893E7064B00229A751A7086
:109950000020FFF717FE8BE7024B00229A750132B9
:109960001A7085E71C230020F4420108FC4401081A
:1099700010B53D4B9B8A9B0760D13B4B9B8A9BB2AA
:10998000A32B51D8384B9B8A9BB2172B25D9364B2A
:109990009B8A9BB2182B26D0334B9B8A9BB21C2BE5
:1099A0002AD0314A138A9BB2907C0F21091A0B41AD
:1099B00001210B401377938A5B0726D02A4B9B8AA1
:1099C0001C3B5B073AD1284C207FC0B2FFF7CEFE8C
:1099D000A37C0133DBB2A37430E0234A938A0133C2
:1099E0009BB293822FE00020FFF7C0FE1E4A938AAD
:1099F00001339BB2938226E00120FFF7B7FE1A4A9B
:109A0000938A01339BB293821DE0FFF7D7FE164B7A
:109A10001B7FDBB29842D1D1134B1B7F0120C01AB0
:109A2000C0B2FFF7A3FEC9E70F4B9B8A9BB2A42BE2
:109A30000AD00D4B9B8A9BB2B42B09D00A4A938A59
:109A400001339BB2938210BD0120FFF78FFEF0E738
:109A5000054B00225A72054B802252015A610720A1
:109A600006F094FCEAE7C0461C23002000040140F5
:109A700010B5FFF76BFE012814D0FFF767FE022830
:109A800017D0FFF763FE00280BD10D4AD38B0133AB
:109A90009BB2D383D38B9BB25B2B02D913000122E1
:109AA0005A7010BDFFF764FF054B0022DA835A702D
:109AB000E7E7FFF7A1FD024B0022DA835A70E0E7E7
:109AC0001C23002010B580235B01984200D010BDFC
:109AD000FFF75EFDFBE70068704770B504000D00FE
